:4000000000800020110000002D0400002D04000008B5044B1A6803F53F5302331A6000F01FFA00BFFA46004010B5054C237833B9044B13B10448AFF300800123237010BDFC
:40004000A081FF1F00000000642B0000084B10B51BB108480849AFF300800848036803B910BD074B002BFBD0BDE81040184700BF00000000642B0000A481FF1F0881FF1FF3
:400080000000000010B5A4B062B60020012100F04BFD00F081FD0028FBD0254800F040FE00F084F800F0B6FB00F010F920A8012100F02AF91CA8022100F026F918A80321BC
:4000C00000F022F914A8042100F01EF920A800F023F91CA800F020F918A800F01DF914A800F01AF9BDF88C4034B9BDF87C301BB9BDF96C30002BE9D00021049105A83C224D
:4001000002F01DF90B4B1A68BDF86C10BDF85C30BDF97C00009009B201911BB2029304A8054923B202F014F904A800F0F9FDCDE7682B0000F481FF1F702B0000164A13684C
:4001400001331360154A138801339BB21380B3F57A7F20D30022114B1A80114A138801339BB213803B2B16D900220D4B1A800D4A138801339BB213803B2B0CD90022094BE4
:400180001A80094A138801339BB21380172B02D90022054B1A807047F481FF1FF081FF1FF281FF1FF881FF1FFA81FF1F08B5024801F02CFE08BD00BF3D01000008B501F04E
:4001C00051FE0D4B187010F0020F07D001F058FEC0F5F42000F21F10074B5860064B1B7813F0010F02D00022034B5A6001F02CFE024801F04DFE08BDBC81FF1F1FA1070032
:4002000008B501F055FD0D4B187210F0020F07D001F05CFDC0F5F42000F21F10074BD860064B1B7A13F0010F02D00022034BDA6001F030FD024801F051FD08BDBC81FF1FFA
:400240001FA1070008B501F071FF0D4B187410F0020F07D001F078FFC0F5F42000F21F10074B5861064B1B7C13F0010F02D00022034B5A6101F04CFF024801F06DFF08BDD0
:40028000BC81FF1F1FA1070008B501F09DFE0D4B187610F0020F07D001F0A4FEC0F5F42000F21F10074BD861064B1B7E13F0010F02D00022034BDA6101F078FE024801F0E1
:4002C00099FE08BDBC81FF1F1FA1070008B50A4801F056FE01F024FE084801F06FFD01F045FD074801F0B0FF01F07EFF054801F0F9FE01F0C7FE08BDBD010000010200006B
:400300004502000089020000017000234370838143608360704700BF70B504460378012B0CD0022B07D0032B02D13E4A167C07E03C4A167E04E03B4A167A01E0394A1678A7
:40034000012B0CD0022B07D0032B02D1354A556907E0344AD56904E0324AD56801E0314A5568012B02D101F05FFD0BE0022B02D101F0E4FD06E0032B02D101F043FF01E0D6
:4003800001F08EFE28B1284B1B6863600123637007E0254B1B6862689B1A322B01D9002363706378002B3CD0002E3AD0A5F5BB43403B45F20822934200D9A568C5F500433B
:4003C000E83313F5167F05DDB3F5167F02DA0023A38111E048F2E8039D4202D942F6E06201E042F22832A5F50043E83BC3EB03131B0193FBF2F3A381A5602378012B01D135
:4004000001F08EFD2378022B01D101F0AFFC2378032B01D101F0E8FE2378042B01D101F031FE70BDBC81FF1FF481FF1FFEE700BF08B5094B1A681044084BC31A802B02DC7D
:40044000054B186005E001F043FF0C2303604FF0FF32104608BD00BF0C81FF1FD882FF1F08B5104E104D16E029686B68AC68002204E051F8040B43F8040B0432A242F8D12C
:40048000E868002203E0002143F8041B04328242F9D11035013E002EE6D101F01FFFFFF7F1FDFEE701000000842D000008B5124A124B1A60124A136843F4007313600023AE
:4004C0000AE0032B03D80F4A52F8231000E00E490E4A42F8231001332F2BF2D90C4B1A780C4B1A70094A0C4B1A6000F0B9F800220A4B1A6008BD00BF0004FA050CED00E0FE
:4005000014ED00E0000000002D0400000080FF1FBC7600400481FF1F08ED00E00081FF1FFEE700BFF0B40022174611E050F82760F3B226F0FF0608E001EB420511F81240C5
:400540006D78A5550132013BDBB2002BF4D10137212FEBD9F0BC7047064B1B78DBB203F00701054A11701B09013213704422034B1A707047CF0100496E58004076580040C9
:4005800008B50A46002101F0DAFE08BD38B50122264B1A801823264A137045F6BF5102321180023213700622224B1A705222A3F580731A70204B1B78DBB2204A13704FF40C
:4005C000E1621F4B1A8041F25122023B1A80002419250CE01B4B1B7803F0010343EA440404F003044FF4F07000F022F9013D0DB1032CEFD115B90320FFF792FF124A4FF4D9
:400600008073138007231370002310490B7048200231087013700532137002220C4B1A700C4A137843F00303137038BD8040004082400040004300400F010049A1460040A4
:400640002242004025420040044000400640004001400040A243004008B501F065FE08BD38B572B6294A137843F00403137000240CE0274963001A1952000A4423445B0061
:40068000C8589188FFF77CFF0134E4B2062CF0D94FF090401F49FFF745FF1F4A137843F0020313701032137843F0020313701B4C237843F040032370A2F58632513A137872
:4006C00043F010031370164816490822FFF7C4FF154816490A22FFF7BFFF154815490822FFF7BAFF144A137843F008031370134D61232B70FFF74AFF81232B70FFF72CFF99
:400700000F4821460E22FFF7A7FF38BDE8460040882B00008800004803500140A043004002510040AC070048F0510040B407004812510040C00700482243004000480040A1
:40074000B0430040024A137843F080031370704777640040014B1870704700BF07640040014B1870704700BF47640040014B1870704700BF27640040014B1870704700BFDB
:4007800037640040014B1870704700BF87640040014B1878704700BF67640040014B1878704700BF5764004008B501E0FFF7F6FFFFF7EEFF10F0100FF8D108BD10B5134A04
:4007C000137803F0C00343F009031370104C237843F001032370FF20FFF7BCFFFF20FFF7BFFF0020FFF7C2FF0020FFF7C5FF0020FFF7C8FF00F024F8237843F01003237084
:4008000000F022F8FFF7D0FF10BD00BF776400409764004008B5054B1B7823B9FFF7CEFF0122024B1A70FFF78DFF08BDDC81FF1F0230800803D000BF01380046FCD17047BD
:40084000EFF3108072B6704780F31088704700BF01BE704708B5034B1B7A03FB00F0FFF7E7FF08BD1081FF1F70B504460E46074B1D681F2802D90020FFF7EAFF04F01F0480
:40088000103455F8240045F8246070BD08ED00E038B504460D46072902D90020FFF7D8FF1F2C02D90020FFF7D3FF04F01F0000F1604000F564406D01EDB2057038BD00BFBD
:4008C000134B1B78DBB20360124A127843EA02230360114A127843EA024303600F4A127843EA026303600E4B1B78DBB243600D4A127843EA022343600B4A127843EA0243A7
:4009000043600A4A127843EA02634360704700BF0301004904010049EC4600400201004901010049000100490501004906010049F8B5FFF785FF0546404A137843F0010340
:4009400013701032137843F00103137001273C4B1F700226943B1E7002F5E2521B32137803F07F0313700020FFF774FF354C237803F0F9032370344A137803F0DF03137027
:4009800023783B4323703846FFF764FF2820FFF761FF2E4B1A7802F07F021A701A7802F0BF021A702378334323703046FFF752FF237843F0040323700023254A137001322E
:4009C00013702846FFF740FF17200721FFF760FF17202049FFF748FF18200721FFF758FF18201D49FFF740FF15200721FFF750FF15201A49FFF738FF05200721FFF748FFCF
:400A000005201749FFF730FF06200721FFF740FF06201449FFF728FF07200146FFF738FF07201149FFF720FF0C200721FFF730FF0C200E49FFF718FFF8BD00BFA543004013
:400A40009D6000409443004012600040F85100408460004031130000011100002D13000075120000AD120000E91200003913000008B5214B18700023204A1370204A1370F2
:400A8000204A1370204A1370204A1370204A1370204A1370204B4FF400021A604FF080721A604FF400121A6020221A6040221A6080221A6011B1012906D00BE0174A1378A4
:400AC00003F0FE0313700AE0144A137843F00103137004E0114A137843F00103137003220F4B1A708022203B1A700120FFF7A0FE04220C4B1A7008BD1582FF1F1882FF1FF0
:400B00003482FF1F3782FF1F2C82FF1F3682FF1F3982FF1F1482FF1F00E100E009600040286000401260004038B505460C46064B1B7823B9FFF7FCFE0122034B1A70284654
:400B40002146FFF795FF38BDDD81FF1F00230A4A13700A4A13700A4A13700A4A13700A4A13700A4A13700A4A13700322094B1A708022203B1A7070471882FF1F3482FF1F42
:400B80003782FF1F2C82FF1F3682FF1F3982FF1F1482FF1F28600040014B1878704700BF3782FF1F431EDBB2072B3BD8F0B4074600EB40039B001C4C2344DB889BB2C3F51A
:400BC00000739A4207D900EB40039B002344DA88C2F5007292B200EB40039B00124C2344DB7843EA1223114D04012E192B55D3B2737039B909E0CE5C3D010D4C6655013367
:400C00009BB200E000239342F5D3430003449B00054A134400225A705A79D2B20001054B1A54F0BC704700BF3C82FF1FFC5F004078600040FE5F00400246002001E0013032
:400C400080B2135C002BFAD1704700BF10B4FF2400220EE00A4B9B5C03EB43039B0009490B449B78DBB2834201D1144602220132D2B2012AEED920465DF8044B704700BFD6
:400C80000482FF1F4482FF1F10B5204C2079FFF7DDFF237813F0800F0ED06378DBB2212B2FD11B4B07221A80C0EBC000194A1044586000F093FA10BD144B5B78DBB2202BFA
:400CC00002D0222B10D01EE0114A07231380C0EBC00310490B4453600F4A135C43F00103135400F0A3FA10BD084B9B780B4A22F81030094A135C43F00203135400F02EF9C9
:400D000010BD002010BD002010BD00BF006000402082FF1F2081FF1FFC81FF1F1082FF1F2DE9F8438046224B1B78224AD65CF6B2FFF782FF05460027344606EB46039B004E
:400D40001D4A13441B899BB2AB4208D206EB46039B001344B3F808901FFA89F900E0A946304608EB07014A46FFF71CFFC9EB0505ADB245B906EB46039B000F4A13441B89CE
:400D80009BB2994510D14F44BFB204EB44039B00094A13445B7813F0FF0FF6D025B9304600210A46FFF7FEFE002DC5D1BDE8F883DE81FF1F0082FF1F3C82FF1FC37803F03D
:400DC000030390F9020000280FDA032B06D002F001030B48C15442F001020EE0C2F380030848C15442F0040207E0032B05D0C2F340030548C15442F002021046704700BFB1
:400E00000082FF1F0482FF1F0882FF1F1C4B19781C4A13880B449BB2138000230EE01A4A51680978C9B21948C1545168013151600133DBB21188013989B21180124A12880C
:400E400092B20AB1072BEAD90D4A1278D2B2082A00D05BB10E490A7882F080020A700F210C4A117002210C4A117004E0022209490A7009490A70094A1370014A13707047C8
:400E80001482FF1F1682FF1F2082FF1F00600040AA82FF1F3582FF1F1882FF1F3882FF1F0222074B1A708022064B1A700F22064B1A700023054A1370054A13700120704791
:400EC0001882FF1FAA82FF1F3582FF1F1482FF1F3882FF1F08B5FFF799FF08BD10B4184B197801F00F010239C9B2164A13880B449BB21380002010E0134B5C68134A125CE9
:400F0000D2B222705A6801325A600130C0B20139C9B21A88013A92B21A800B4B1B889BB20BB10029E8D10A4B19700A4A137883F0800313700B22084B1A705DF8044B70475A
:400F4000296000401682FF1F2082FF1F006000403882FF1FAA82FF1F3582FF1F0623064A1370064A13708022054B1A700022054B1A700120704700BF1882FF1F3582FF1F30
:400F8000AA82FF1F3882FF1F064B9B6843B1054B9A6810709A6804490988518000229A60704700BF2082FF1F1682FF1F08B5134B1A78D2B21A701B78DBB213F0800F02D0FD
:400FC0000F4A137008BD0220FFF7DEFF0D4B1B7803F06003202B05D0402B06D043B900F095FC06E001F048F903E000F037FE00E0002010B90322024B1A7008BD28600040CA
:401000003582FF1F0060004008B5084B1978084A13880B449BB213800022064B1A700120FFF7B2FF0322044B1A7008BD1482FF1F1682FF1F1882FF1F3582FF1F08B50B4BEC
:401040001B78DBB2042B06D0062B07D0022B0BD1FFF7DAFF08BDFFF741FF08BD0320FFF793FF0322024B1A7008BD00BF1882FF1F3582FF1F08B50022044B1A700120FFF724
:4010800083FF0322024B1A7008BD00BF1882FF1F3582FF1F08B50B4B1B7813F0FF0F07D0084A137843F0800307490B70002313700022064B1A700120FFF766FF0322044B22
:4010C0001A7008BD3682FF1F086000401882FF1F3582FF1F08B5094B1B78DBB2042B06D0062B07D0022B07D1FFF7F4FE08BDFFF7C1FF08BDFFF7CEFF08BD00BF1882FF1F2C
:4011000008B5284B1B78DBB213F0100F48D013F0800F0CD003F00F03012B16D1FFF746FF214B1B7813F0800F11D1012312E013F0400F03D0FFF7CEFF01230BE013F0200FB2
:4011400007D0FFF77BFF012304E0002302E0002300E0002323B3134B1B7813F0800F1FD1124B1B78124A12781343124A13701278D2B29A4214D10C4B1B78DBB2094A12787E
:4011800012F0800F07D1084B1B78DBB2054A1370137803F00F03044A1278D2B29342EAD108BD00BF286000403582FF1FAA82FF1F3882FF1F296000400022064B1A80064B9B
:4011C0009B682BB1044A916800230B7092685380704700BF1682FF1F2082FF1F08B50F4B1B889BB213B9FFF75BFE15E002220C4B1A7000220B4B1A70FFF7DEFF0A4AD179E3
:40120000937943EA0123054A128892B29A4201D9024A1380FFF7FAFD012008BD2082FF1F1882FF1FAA82FF1F0060004008B504220B4B1A7080220B4B1A70FFF7BDFF0A4A0F
:40124000D179937943EA0123084A128892B29A4201D9064A13800B22054B1A70012008BD1882FF1FAA82FF1F006000402082FF1F3582FF1F0A4A137803F0FE031370094B30
:401280009B7C094B1B7B03F00303012B04D0064AD37B83F08003D3730122034B5A7370470B600040FC5F00403C82FF1F0B4A137803F0FD0313700A4B93F82230094B1B7ECE
:4012C00003F00303012B04D0064AD37E83F08003D3760122034B5A76704700BF0B600040FC5F00403C82FF1F0D4A137803F0FB0313700C4B93F832300B4B93F8243003F07A
:401300000303012B06D0084A92F8273083F0800382F827300122044B83F82520704700BF0B600040FC5F00403C82FF1F704700BF08B5FFF70BFC08BD08B500F09BFC08BDE3
:4013400070B588B0054603AC174E0FCE0FC43368237035B322232B7003236B7001A8FFF7AFFA002402231AE008AA224412F81C2C08A901EB121111F8141CE954581C00214A
:401380002954981C02F00F0208AE324412F8142C2A54DA1CA9540134E4B20433DBB2212BE2D908B070BD00BFB42B000010B401223DE0114613010C242148C45402EB4203A7
:4013C0009B00204803445B7913F0FF0F12D002EB42039B0003441B7913F0800F04D01001194B03449C700AE01001174B03440820987004E01001144B0344802098704B00A4
:401400000B449B000F480344DC88E4B208010C4901448C71D888C0F30720C871D888C0B20871DB88C3F307234B710132D2B2082ABFD9FF22054B1A705DF8044B704700BF37
:40144000706000403C82FF1FFC5F00400A600040074B1B78074A02EBC30253681A7C824203D903EBC003586970470020704700BF1582FF1FC82B0000F8B5404B1B7813F02D
:40148000FF0F79D03D4B18780138C0B2FFF7E0FF047AC2683A4B1878C0B200236AE01178814264D13749095CC9B25578A9425ED1917801F07F01D67806F00306DFF8C8E093
:4014C0004D000D44AD000EEB05074FF0000C87F803C092F802C087F804C092F803C00EF805C095883D8192F90250002D0DDA012E01D1072700E00D274D000D44AD00224E9E
:4015000035446F7101266E700CE0012E01D1052700E009274D000D44AD001B4E35446F7100266E70DFF868E00F010EEB07060125B57001FA05F529448900134D29440D8945
:40154000C5F307250EF807500D89EDB27570CE88F6B20E4D3D44AE71CE88C6F30726EE71CE88F6B22E71C988C1F30721697108320133DBB2A34292D3F8BD00BF3782FF1F48
:401580002C82FF1FA882FF1F3C82FF1F70600040FC5F0040034B1A78034B03EBC2035868704700BF1582FF1FC82B000008B5074B18780138C0B2FFF74BFF28B14268127939
:4015C00000EBC203586908BD002008BD3782FF1F2DE9F84300220EE06F4E53009D18AD00741900217155A170E1702181A172617061710132D2B2082AEED940B90AE0002243
:401600006649CA546649CA540133DBB200E00023012BF4D9634B1B7813F0FF0F00F0B980604B18780138C0B2FFF712FF80464368DB7913F0400F05D05B4A137843F0010398
:40164000137004E0584A137803F0FE03137098F808704FF0000901266CE0D8F80C50002464E0AB7803F07F039E425CD1314606EB46039B00484803441B899BB2A88883425A
:4016800005D206EB46039B00434A134418812B784248C35CDBB26878834244D195F802C03D484B000B449B0000EB030E8EF804C095F803E000F803E0EB7803F0030395F9EA
:4016C0000200002811DA012B02D14FF0070C01E04FF00D0CDFF8C0E04B0058188000704480F805C00123437012E0012B02D14FF0050C01E04FF0090C27484FEA410E0EEB6B
:4017000001039B00034483F805C0194600234B70AB790A2B01D0022B05D1284631464A46FFF74CFB814608350134E4B2BC4298D30136F6B2082E90D9D8F80C0000220CE0C7
:40174000837803F07F0310F8084B03EB43039B0016490B449C700132D2B2BA42F0D3FFF725FF134B1860002301210EE00A4C4A00501880002044C380028913449BB203F02B
:40178000010213449BB20131C9B20829EED9FFF70DFEBDE8F88300BF3C82FF1FA882FF1F1C82FF1F3782FF1F3982FF1F4482FF1F3082FF1F08B5154B1A7902F07F02531E25
:4017C000DBB2072B20D8530013449B0010490B44997841F0010199700021D970597841F0020159701B7913F0800F05D01201094B13448D229A7004E01201064B1344892204
:401800009A70FFF7ABFB08BD002008BD006000403C82FF1FFC5F0040264B1B7903F07F035A1ED2B2072A43D810B55A001A44920021490A44917801F0FE0191700021D1705C
:4018400019017F241D484454517801F0FD015170127912F0800F14D003EB4302920016490A445278D2B2012A05D11B0102461A440C23937019E01B01104A1A440D23937080
:4018800013E003EB430292000B490A445278D2B2012A05D11B01094A1A440823937004E01B01064A1A4409239370FFF757FB10BD00207047006000403C82FF1FFC5F0040A4
:4018C00010B50E4B1C79E4B20D4B18780138C0B2FFF7BEFD43681B799C4201D9022C0AD8084A135DDBB208490B55044B9B78DBB21355012010BD002010BD00BF00600040C3
:401900003782FF1FA882FF1F1C82FF1F10B59B4B1B78DBB200219A4A118013F0800F00F0AD80964A5278D2B20A2A00F27281DFE812F06900700170017001700170010B0003
:401940007001920070019A008C4BDB78DBB2012B09D1FFF71FFE4268894B5A6012221A80FFF73CFC10BD854BDB78DBB2022B13D1824B9878FFF76CFD002800F04C814268FC
:401980007F4B5A605A68D1785A68927842EA01221A80FFF723FC10BD784BDB78DBB2032B05D02CE00A7811440133DBB201E000237449724A9278D2B29A4203D90A7812F070
:4019C000FF0FEFD16D4B9B7813F0FF0F0BD06B4B9B78DBB26C4A127C934204D16B4C2046FFF7AEFC21460B7813F0FF0F00F015810B78634A13805160FFF7F0FB10BD00F0CE
:401A00003BFC10BD13F0030317D0022B40F007815B490B80594B1B7903F07F0303EB43039B005B4A13449A78D2B25A4B1A7000225A704B60FFF7D2FB10BD514902230B80F0
:401A4000554B1A78D2B2534B1A7000225A704B60FFF7C4FB10BD4A4B01221A804F4A5A60FFF7BCFB10BD464A01231380434B1B794B490B445360FFF7B1FB10BD3F4A52788F
:401A8000013A0A2A00F2CD80DFE812F04B00CB009600CB000B00CB00CB00CB001300CB003000364B9B78DBB23E4A1370FFF756FA10BD324B9B7803F0FF041BB1601EC0B23D
:401AC000FFF7C6FC04B110B9002C40F0AC80334B1B78DBB29C4206D0304B1C700120324B1870FFF775FDFFF739FA10BDFFF7E8FE002800F09A80214A1379DBB21279D2B2AA
:401B00002A490A702A4AD25C2549C95CD3B28B4204D00122244B1A70FFF7AEFCFFF71EFA10BD03F00303012B17D04BB1022B7ED1124B9B7813F0FF0F7BD1FFF76DFE10BD47
:401B40000E4B9B78DBB2012B75D1134A137803F0FD031370FFF702FA10BD084B1B79DBB2012B6AD8054B98781B79DBB21149CA5C22EA0002CA54FFF7F1F910BD0060004081
:401B80002082FF1F302C0000142D0000B082FF1F3C82FF1FE081FF1F3982FF1F3782FF1FA882FF1F3682FF1F3482FF1F2C82FF1F1C82FF1FAC82FF1F03F00303012B17D09B
:401BC0004BB1022B3BD1224B9B7813F0FF0F38D1FFF7F0FD10BD1E4B9B78DBB2012B32D11C4A137843F002031370FFF7B7F910BD174B1B79DBB2012B27D8154B98781B795D
:401C0000DBB21549CA5C22EA0002CA54FFF7A6F910BD002010BD002010BD002010BD002010BD002010BD002010BD002010BD002010BD002010BD002010BD002010BD0020B6
:401C400010BD002010BD002010BD002010BD00BF006000403982FF1FAC82FF1F044B1B7813F0800F01D0024B5B780020704700BF00600040024B1878C0F38010704700BF1B
:401C80008F450040024A137843F080031370704779650040024A137803F07F031370704779650040014B1870704700BF8A650040014B1878704700BF6A65004008B50146A9
:401CC000014800F0CFFA08BD28650040024B186820F07F40704700BF4865004008B50146014800F0BFFA08BD08650040024A137843F01003137070477965004000F0030081
:401D0000044B1A7802F0FC021A701A7810431870704700BF7965004008B501E0FFF7D6FFFFF7C6FF10F0080FF8D108BD10B50D4C2046FFF7C3FF2046FFF7D0FFFEF780FDA5
:401D4000094A137843F010031370FEF77DFDFFF7CDFF0020FFF7D2FFFFF7DEFF0320FFF7A1FF10BD1FA107009A65004008B5054B1B7823B9FFF7DAFF0122024B1A70FFF70A
:401D800081FF08BDE481FF1F014B1B689864704708ED00E04001C0B2014B1870704700BF02E400E00422014B1A60704700E100E00422014B1A60704780E100E010B50446EA
:401DC000FFF7F6FF2046FFF7DFFF0720FFF7E2FFFFF7E8FF10BD00BF014B1B681864704708ED00E04001C0B2014B1870704700BF00E400E00122014B1A60704700E100E05E
:401E00000122014B1A60704780E100E010B50446FFF7F6FF2046FFF7DFFF0720FFF7E2FFFFF7E8FF10BD00BF024B187800F00100704700BF01510040024A137843F08003C3
:401E40001370704775650040024A137803F07F031370704775650040014B1870704700BF86650040014B1878704700BF6665004008B50146014800F0F5F908BD24650040E3
:401E8000024B186820F07F40704700BF4465004008B50146014800F0E5F908BD04650040024A137843F01003137070477565004000F00300044B1A7802F0FC021A701A784D
:401EC00010431870704700BF7565004008B501E0FFF7D6FFFFF7C6FF10F0080FF8D108BD10B50D4C2046FFF7C3FF2046FFF7D0FFFEF7A6FC094A137843F010031370FEF714
:401F0000A3FCFFF7CDFF0020FFF7D2FFFFF7DEFF0320FFF7A1FF10BD1FA107009665004008B5054B1B7823B9FFF7DAFF0122024B1A70FFF781FF08BDE581FF1F024B18781D
:401F4000C0F34000704700BF01510040014B1B685864704708ED00E04001C0B2014B1870704700BF01E400E00222014B1A60704700E100E00222014B1A60704780E100E049
:401F800010B50446FFF7F6FF2046FFF7DFFF0720FFF7E2FFFFF7E8FF10BD00BF024A137843F080031370704771640040024A137803F07F031370704771640040014B18703B
:401FC000704700BF82640040014B1878704700BF6264004008B50146014800F043F908BD20640040024B186820F07F40704700BF4064004008B50146014800F033F908BDC7
:4020000000640040024A137843F01003137070477164004000F00300044B1A7802F0FC021A701A7810431870704700BF7164004008B501E0FFF7D6FFFFF7C6FF10F0080F0F
:40204000F8D108BD10B50D4C2046FFF7C3FF2046FFF7D0FFFEF7F4FB094A137843F010031370FEF7F1FBFFF7CDFF0020FFF7D2FFFFF7DEFF0320FFF7A1FF10BD1FA1070036
:402080009264004008B5054B1B7823B9FFF7DAFF0122024B1A70FFF781FF08BDE681FF1F024B1878C0F3C000704700BF01510040014B1B681865704708ED00E04001C0B202
:4020C000014B1870704700BF04E400E01022014B1A60704700E100E01022014B1A60704780E100E010B50446FFF7F6FF2046FFF7DFFF0720FFF7E2FFFFF7E8FF10BD00BFD3
:40210000024A137843F080031370704775640040024A137803F07F031370704775640040014B1870704700BF85640040014B1878704700BF6564004008B50146014800F015
:4021400091F808BD24640040024B186820F07F40704700BF4464004008B50146014800F081F808BD04640040024A137843F01003137070477564004000F00300044B1A78E8
:4021800002F0FC021A701A7810431870704700BF7564004008B501E0FFF7D6FFFFF7C6FF10F0080FF8D108BD10B50D4C2046FFF7C3FF2046FFF7D0FFFEF742FB094A137869
:4021C00043F010031370FEF73FFBFFF7CDFF0020FFF7D2FFFFF7DEFF0320FFF7A1FF10BD1FA107009564004008B5054B1B7823B9FFF7DAFF0122024B1A70FFF781FF08BD65
:40220000E781FF1F024B1878C0F38000704700BF01510040014B1B68D864704708ED00E04001C0B2014B1870704700BF03E400E00822014B1A60704700E100E00822014BC7
:402240001A60704780E100E010B50446FFF7F6FF2046FFF7DFFF0720FFF7E2FFFFF7E8FF10BD00BFCBB20370C1F307234370C1F307418170704700BF08B5124B1B7803F0CD
:402280000303012B02D0022B04D00FE00D4B1B79DBB20CE00B4B1B7903F07F0303EB43039B00094A13449B78DBB200E00023074A1268D35C022B02D1FEF7E6FC08BD002094
:4022C00008BD00BF006000404482FF1F3082FF1F014B1868704700BF9C81FF1F0E4B70B51E460E4C0025E41AA410A54204D056F8253098470135F8E700F032FD084B094C5D
:402300001E46E41AA4100025A54204D056F8253098470135F8E770BD6C2D00006C2D00006C2D0000742D000010B5431E0A44914204D011F8014B03F8014FF8E710BD0346C7
:402340000244934202D003F8011BFAE7704700000EB400B54FF402719CB0ADF814106FF00041049107914FF6FF711DABADF81610084953F8042B02900690086802A90193C8
:4023800000F064F8029B00221A701CB05DF804EB03B070479C81FF1F2DE9F0478E688246B3420C469046994640D38A8912F4906F3AD02568096902236F1A656905EB4505E2
:4023C00095FBF3F57B1C4B449D4238BF1D4653050FD5294600F030FB064698B121693A46FFF7A2FFA38923F4906343F08003A38113E02A4600F076FB064670B950462169A1
:4024000000F0D6FA0C23CAF80030A3894FF0FF3043F04003A381BDE8F08726613E4426604E466561ED1BA560B14500D24E4632462068414600F0A0FAA36800209B1BA36024
:4024400023681E442660BDE8F08700002DE9F0439DB003938B8906461C060D4690460CD50B6953B9402100F0E7FA2860286110B90C233360CCE040236B61002309932023EA
:402480008DF8293030238DF82A3043461C4613F8012B1AB9B4EB08090FD002E0252AF5D1F8E73046294642464B46FFF775FF013000F0A980099B4B4409932378002B00F07B
:4024C000A28000234FF0FF3204930793059206938DF853301A9304F101084446DFF8489121784846052200F039FA08F10108049B30B1C9EB00000122824013430493ECE78D
:40250000D80644BF20228DF85320190744BF2B228DF8532022782A2A02D0079923460EE0039A0134111D12680391002ABBBF524243F0020307920792B8BF04930AE01C4657
:4025400022780133303A092A03D80A2000FB0121F5E7079123782E2B1AD163782A2B0AD1039B02341A1D1B680392002BB8BF4FF0FF3305930CE0611C00220C4623780131F8
:40258000303B092B03D80A2000FB0232F5E70592DFF8988021784046032200F0DFF938B1049AC8EB00004023834013430493013421781A48062204F101088DF8281000F08A
:4025C000CDF988B1164B33B9039B073323F007030833039313E003AB0093304604A92A46104BAFF3008007E003AB0093304604A92A460C4B00F092F8421C074603D0099BD7
:402600003B44099341E7AB895B0601D4099801E04FF0FF301DB0BDE8F08300BF342D000000000000992300002A2D0000302D00002DE9F84391461F468A680B690646934274
:40264000B8BF1346C9F8003091F843200C46DDF8208012B10133C9F800302368990642BFD9F800300233C9F80030256815F006051CD094F843302268003318BF01239206D4
:402680001FD5E118302081F843005A1C94F845102244023382F8431013E03046394604F119020123C047013007D00135E368D9F800209B1A9D42F0DBDBE74FF0FF30BDE891
:4026C000F8833046394604F14302C0470130F4D02268D9F80050E36802F00602042A08BF5D1B2269A3680CBF25EAE57500259342C4BF9B1AED184FF00009A9450ADA304646
:40270000394604F11A020123C0470130D5D009F10109F2E70020BDE8F88300002DE9FF410C461746227E98466E2A06460A9B01F1430100F0B08012D8632A23D00AD8002A13
:4027400000F0BD80582A40F0CC8084F84520DFF804E257E0642A1ED0692A1CD0C1E0732A00F0B18009D86F2A2ED0702A40F0B980226842F0200222603FE0752A24D0782AD0
:402780003BD0AEE01A6804F14205111D1960136884F84230A9E020681A6810F0800F02D0101D186008E010F0400F02F10400186002D0B2F9003000E01368002B3EDA2D22D9
:4027C0005B4284F8432039E020681A6810F0800F02D0101D186007E010F0400F02F10400186001D0138800E01368227EDFF864E16F2A0CBF08220A221CE07822DFF858E1AC
:4028000084F845202268186812F0800F00F104051D6003D1550601D5038800E00368D00744BF42F0200222601BB9226822F0200222601022002084F8430002E0DFF814E147
:402840000A226568002DA8BF2068A560A4BF20F00400206003B965B10D46B3FBF2F002FB10331EF8033005F8013D03460028F4D100E00D46082A0BD12368DA0708D5236982
:4028800062689A42DEBF302305F8013C05F1FF35491B21612EE025681A6815F0800F606903D0151D1D60136808E015F0400F02F104051D60136801D0188000E018600023AD
:4028C00023610D4616E01A68111D1960156800212846626800F042F808B1401B6060636804E004F1420584F8422001232361002384F84330CDF800803046214603AA3B463B
:40290000FFF796FE013002D14FF0FF301FE0304639462A462369C0470130F5D023689B0705D4E068039B9842B8BF18460FE00025E368039A9B1A9D42F3DA3046394604F1CC
:4029400019020123C0470130DED00135F0E704B0BDE8F0813B2D00004C2D000010B5C9B202449042034605D01C7801308C42F8D1184610BD002010BD814210B501EB020317
:4029800001D3421E0BE09842FBD28118D21AD34204D013F8014D01F8014DF8E710BD994204D011F8014B02F8014FF8E710BD000030B500293CD051F8042C0B1F1D49002A50
:4029C000B8BF9B180A680C4612B95A600B6030BD93420DD219685818904201BF5A5852181A60426823605A6030BD994203D80A4651680029F9D1146815199D420AD11B68D2
:402A00002344D0188842136012D10868034413604B680CE002D90C23036030BD1C681819884201BF08684968001918605960536030BD00BFEC81FF1F70B5CC1C24F0030448
:402A400008340C2C38BF0C24002C064603DA0C233360002070BD8C42F9D3204A136810461946A1B10A68121B0ED40B2A03D90A608B188C501FE08B420BBF5A684A680260EA
:402A80005A6018BF0B4616E00B464968E9E7144D2B681BB9304600F04BF828603046214600F046F8421C0346D1D0C51C25F0030585420AD11C6003F10B001A1D20F00700B7
:402AC000821A0AD05142995070BD3046E91A00F02FF80130BBD02B46ECE770BDEC81FF1FE881FF1FF8B5074615460E4621B91146BDE8F840FFF7A0BF1AB9FFF759FF28464D
:402B0000F8BD00F025F8A8420ED238462946FFF793FF044650B131462A46FFF705FC38463146FFF745FF01E03046F8BD2046F8BD38B5064C0023054608462360FDF778FC2F
:402B4000431C02D1236803B12B6038BDD482FF1F51F8040C0028BEBF091851F8043CC0180438704700000000496E69742E2E2E005B256C645D202564202564202564202572
:402B800064200D0A00000000205100405000C0510040100000000140001000140140000800400140000A004C0140000200500140200000003031323334353637383941420F
:402BC000434445460000000001000000D02B000001000000142D0000000000000000000001000000E82B000001000000D02C000003000000142C0000000000000000000031
:402C0000000000000000000000000000102C0000020A000000008103080002000100820240000A000100030240000A0002030000040309042C034300790070007200650054
:402C4000730073002000530065006D00690063006F006E0064007500630074006F007200100355005300420055004100520054003803430044004300200043006F006D0072
:402C80006D0075006E00690063006100740069006F006E00200049006E007400650072006600610063006500260343004400430020004400610074006100200049006E00C8
:402CC00074006500720066006100630065000000090243000201018032090400000102020103052400100104240202052406000105240100010705810308000A090401006F
:402D0000020A0000040705820240000007050302400000001201000202000008B40432F201000102800100004300232D302B2000686C4C00656667454647003031323334B6
:402D40003536373839414243444546003031323334353637383961626364656600000000F8B500BFF8BC08BC9E4670474D000000AD040000F8B500BFF8BC08BC9E4670474D
:402D800029000000982D00000881FF1F98000000380100000000000000000000D882FF1F0000E02EC05D00001800000000366E0100C2010000000800C201000000080000B7
:402DC000A120000000000200000000000000000000000000000000000000000000000000000000000000000000000000282D000000000000000000000000000000000000BB
:402E000000000000000000000000000000000000000000000000000000000000000000000000000000000000000000003C81FF1F00000000000000000000000000000000B7
:402E40000000000000000000000000000000000000000000000000000000000000000000000000000000000000000000000000000000000000000000000000000000000052
:402E80000000000000000000000000000000000000000000000000000000000000000000000000000000000000000000000000000000000000000000000000000000000012
:402EC00000000000000000000000000000000000000000000000000000000000000000000000000000000000000000000000000000000000000000000000000000000000D2
:402F00000000000000000000000000000000000000000000000000000000000000000000000000000000000000000000000000000000000000000000000000000000000091
:020000040003F7
:0200000480007A
:40000000014500400352004003640040026500404E0001402401014036020140220301404D0401402C050140470601402C07014003090140010D01404214014023150140D1
:4000400033160140211701404218014020190140331A0140231B014007400140134101400A4201400C4301400145014001460140094701400948014008490140074C0140C9
:4000800008500140025101407E02084009807C40820F850F870F860F8A0F2701350137014032420149FF4AFF4BFF4F01501859045A045C905D095F01604062406440654047
:4000C000668068806A806C806E808104840485088602871089088B108D188E0F911897029A0D9B019F03A20FA501AA08AC02AE04AF03B008B201B403B503B604B71CBBC023
:40010000BE45C032C201C9FFCAFFCBFFCD83CE03CF01D018D293D804D904DA04DB04DC99DD99DF01E040E240E440E540E680E880EA80EC80EE80050807020E081580168831
:400140001C101D881E4921402220270929082D082E803580362037093D603E05401041804208458846086D606F04758076807702C0A0C240C4D0CA52CCF0CEF0D07E05300C
:4001800007C913FF183019501AC31BAE1EFF205022AD243026C629302BC32C5A2D552EA02FA032F033F0340F350F3A203B204032420145EC4702481349FF4AFF4BFF4D83C8
:4001C0004E034F01501854035604580459045A045B045C995D995F016040624064406540668068806A806C806E800E05154017051E24240427202F0A360137103C0445886E
:4002000046084F0556085E605F05678087409140924196049B059E08A188A908C2C0C4B0CA30CCA0CE40D070D6F0D880E6024032420149FF4AFF4BFF4F0150185A045D09D4
:400240005F016040624064406540668068806A806C806E8081208508871089088A088B108F039302970199189A0D9E0FA20FA303A402A501A604A704A804AA02AD18B008ED
:40028000B201B338B403B504B604B703BB0CBE45C032C201C9FFCAFFCBFFCD83CE03CF01D018D293D403D604D804D904DA04DB04DC99DD99DF01E040E240E440E540E680C1
:4002C000E880EA80EC80EE8006080C800E081520168017081C101D881E4B271A2C802E042F02371A3C043E91401041804208458846085E405F2567806E106F0A748076806E
:400300008B4090049B209F10A601A70AC040C2C0C470CAD0CCE0CEF0D07ED6F0D880E6804032420145EC4702481349FF4AFF4BFF4D834E034F0150185A045D095F0160400E
:40034000624064406540668068806A806C806E80860387018E049108920894019B0CA303A604A702B008B104B202B301B401B508B604B702BF04C040C106C5D1C650C7023C
:40038000C81BC9FFCAFFCBFFCDA0CF04D018D280D407D804D904DA04DB04DF01E040E2C0E440E540E6C0E8C0EAC0ECC0EEC0004003200A501020184019921A10210222A4F4
:4003C00029022B20302031023808404045884608482849014F05500C5320560859115A085B4072408E8097059E08A188AD10AE04C005C20CC404CA03CC05CE02D071D2040D
:40040000D60FE608EE01E040E608EE01E6024032420149FF4AFF4BFF4F0150185A045D095F016040624064406540668068806A806C806E808101820F83048A0D8E0F930328
:4004400097019A089B029C049E02A303A402A604B008B201B303B403B504B604BE45C032C201C9FFCAFFCBFFCD83CE03CF01D018D293D804D904DA04DB04DC99DD99DF0192
:40048000E040E240E440E540E680E880EA80EC80EE80051007420D200F0217081C111D981E4027282D02372A3F024011412045A86C046F0A750277428B0194099640A1200C
:4004C000A588A70AC0D0C2C0C420CA80CCE0CE80D07EE080E602E804010102FF043006C61502170418301AC31D06205A22A029022B042C502D062EAD310732F0340F3A20CE
:400500003B034032420145EC4620480B49FF4AFF4BFF4D834E034F01501854035604580459045A045B045C995D995F016040624064406540668068806A806C806E8004098E
:400540000E08168017801E2827802E802F0A360437803C0145A84D044F0155205D045E605F01650181018D809980AA20AB40C030C240C490CA30CC50CE80D070D6F0D880E9
:400580004063420549FF4AFF4BFF4F0150185A045D095F016040624064406540668068806A806C806E80860D8F0295019608970498029A049B019F03A20FA303A804AA0265
:4005C000AE0FB008B203B401B504B604B703BE51C023C201C9FFCAFFCBFFCD83CE03CF01D018D293D804D904DA04DB04DC99DD99DF01E040E240E440E540E680E880EA809D
:40060000EC80EE800108092810821208180619081A411B1021602901308031203208398040044108420145084C014F20695070827101C004C206C40BCA01CC0ECE08D04EAC
:40064000D230E4400030010102C309020B040D061050110612AD1EFF2102230428302AC62C5A2EA0300F310734F03A023B034026420145EC4702481349FF4AFF4BFF4D83B9
:400680004E034F01501854035604580459045A045B045C995D995F016040624064406540668068806A806C806E80010209020A011150191221022902310238023950400475
:4006C000420149054A085108520859155A4063408740900691509241A508AA08C008C209C403CA01CC01CE0DD00CD204D60FD80132203308340435803B10CCF0CE100002AB
:40070000020205113180320437408580871097109C049D90A620A708A910C0F0CC70E210E640EC208804960899019C049D809F40A001A202A620A7088604960899019D80FA
:40074000A001A620A708AB40AE02E610E840EE80871097200B280F2087048F019720A710AB10C20EE0022201818099019D80A001A620A708C840E22087088801A001A70833
:40078000A901AE21E640E820620167028E019302D601D802E4020001010109010A010B0111011B011D0100FF01AB00000F0F0000000000004000000000000000C0000000D2
:4007C00000C0C000C00000000000000000000000000000000000000000000000000000000000000000000000000000000000000000000000000000000000000000000000B9
:4008000000000000000000000000000000000000000000000000000000000000000000000000000000000000000000000000000000000000000000000000000000000000B8
:400840000000000000000000000000000000000000000000000000000000000000000000000000000000000000000000000000000000000000000000000000000000000078
:400880000000000000000000000000000000000000000000000000000000000000000000000000000000000000000000000000000000000000000000000000000000000038
:4008C00000000000000000000000000000000000000000000000000000000000000000000000000000000000000000000000000000000000000000000000000000000000F8
:0200000490006A
:0400000000004005B7
:0200000490105A
:04000000BC90ACAF55
:0200000490303A
:020000008B79FA
:0200000490402A
:4000000000000000000000000000000000000000000000000000000000000000000000000000000000000000000000000000000000000000000000000000000000000000C0
:400040000000000000000000000000000000000000000000000000000000000000000000000000000000000000000000000000000000000000000000000000000000000080
:400080000000000000000000000000000000000000000000000000000000000000000000000000000000000000000000000000000000000000000000000000000000000040
:4000C0000000000000000000000000000000000000000000000000000000000000000000000000000000000000000000000000000000000000000000000000000000000000
:0200000490501A
:0C00000000012E16106900012E299BE261
:00000001FF