:400000000080002011000000310D0000310D000008B5044B1A6803F53F5302331A6000F089FE00BFFA46004010B5054C237833B9044B13B10448AFF300800123237010BD74
:400040001081FF1F0000000014380000084B10B51BB108480849AFF300800848036803B910BD074B002BFBD0BDE81040184700BF00000000143800001481FF1F0881FF1F99
:40008000000000002DE9F043ADF5097D62B600F075F98F4B1E68002002F0B4F800F0BCFD0DF5FA79002448468A4922468A4B00F0B5FD0DF5E478404688492246234600F043
:4000C000ADFD67AD4FF07E5328461946224600F0A5FD5CA882492246824B00F09FFD51A8814922464FF07C5300F098FD00F094FA7E4F00976FF400040194CDF8089046A8F4
:400100000021F02242F2D00300F098FA784B0093784B0193CDF808803BA8012146224FF4486300F08BFA00970194029530A80221F0224FF4966300F081FA00F0C3FD2FA83B
:4001400000215A2200F0EEFD00F0A8F92BA8012100F0C2F927A8022100F0BEF923A8032100F0BAF91FA8042100F0B6F900F08AFC04A800F093FC564C2068801B03F0CCF803
:4001800005462668BDF8A83043B1BDF9B830002BB8BF5B42584A1268934202DA04A800F093FC2BA800F0A0F927A800F09DF923A800F09AF91FA800F097F99DF89D300BB3AA
:4001C000BDF8A810F1B146A809B200F04BFA46A800F0BEFA4B9803F0BDFA484A80FB0223C218C317C3EB22234FF4B47202FB1303132B03DC012002F005F812E0002002F069
:4002000001F80EE01C9A3E4B1B6800955CA8002100F012FD669803F09DFA01B246A800F021FA9DF8AD302BB3BDF8B80003B2002BB8BF5B42304A126893421BDD00B202F012
:400240003DFC00222F4B02F09FFC804689462E4B186802F033FC02460B464046494602F0BDFD02F053FF01463BA82A46002300F0ABFA05E03BA800212A46002300F0A4FA73
:400280009DF87D303BB1BDF8881021B130A809B200F0E8F903E030A8002100F0E3F99DF88D3083B1BDF898306BB11BB25A2101FB03F3154A116893FBF1F15A312FA8C9B267
:4002C00000F004FD57E72FA85A2100F0FFFC52E76081FF1F0000C8420000A0410000204300000C420000F04000004040FFFF7F7F9A9919409A9919C018380000B7600BB652
:400300003C380000000059C020380000164A136801331360154A138801339BB21380B3F57A7F20D30022114B1A80114A138801339BB213803B2B16D900220D4B1A800D4AD2
:40034000138801339BB213803B2B0CD90022094B1A80094A138801339BB21380172B02D90022054B1A8070476081FF1F5C81FF1F5E81FF1F6481FF1F6681FF1F08B502488B
:4003800000F080FF08BD00BF0D03000008B500F0A5FF0D4B187010F0020F07D000F0ACFFC0F5F42000F21F10074B5860064B1B7813F0010F02D00022034B5A6000F080FF30
:4003C000024800F0A1FF08BD2C81FF1F1FA1070008B500F0A9FE0D4B187210F0020F07D000F0B0FEC0F5F42000F21F10074BD860064B1B7A13F0010F02D00022034BDA6027
:4004000000F084FE024800F0A5FE08BD2C81FF1F1FA1070008B501F0C5F80D4B187410F0020F07D001F0CCF8C0F5F42000F21F10074B5861064B1B7C13F0010F02D0002246
:40044000034B5A6101F0A0F8024801F0C1F808BD2C81FF1F1FA1070008B500F0F1FF0D4B187610F0020F07D000F0F8FFC0F5F42000F21F10074BD861064B1B7E13F0010FDB
:4004800002D00022034BDA6100F0CCFF024800F0EDFF08BD2C81FF1F1FA1070008B50A4800F0AAFF00F078FF084800F0C3FE00F099FE074801F004F901F0D2F8054801F0BA
:4004C0004DF801F01BF808BD8D030000D10300001504000059040000017000234370838143608360704700BF70B504460378012B0CD0022B07D0032B02D1454A167C07E0CE
:40050000434A167E04E0424A167A01E0404A1678012B0CD0022B07D0032B02D13C4A556907E03B4AD56904E0394AD56801E0384A5568012B02D100F0B3FE0BE0022B02D157
:4005400000F038FF06E0032B02D101F097F801E000F0E2FF28B12F4B1B6863600123637007E02C4B1B6862689B1A322B01D9002363706378002B4AD0002E48D0A5F5BB4320
:40058000403B45F20822934200D9A568C5F50043E83313F5167F05DDB3F5167F02DA0023A38111E048F2E8039D4202D942F6E06201E042F22832A5F50043E83BC3EB031330
:4005C0001B0193FBF2F3A381B4F90C3013F1F00F02DA4FF61073A381B4F90C30F02B01DDF023A381A5602378012B01D100F0D4FE2378022B01D100F0F5FD2378032B01D104
:4006000001F02EF82378042B01D100F077FF70BD2C81FF1F6081FF1F08B501F0C7F801F0A3FC002001F072FC01F038F901F05EFD002001F02DFD01F0A9F908BD01708280BA
:4006400000224280C3800281009BC360019B0361002343618361C36103624362029B8362704700BF10B5044681EAE170A0EBE170A3881AB2904207DD002901DA5A4262806B
:40068000002902DD638000E061802378EBB900290BDAB4F902000028B8BF4042C0B201F031F8002001F034F810BD002906DD002001F028F8A07801F02BF810BD002001F094
:4006C00021F8002001F024F810BD012B1DD100290BDAB4F902000028B8BF4042C0B201F087F8002001F08AF810BD002906DD002001F07EF8A07801F081F810BD002001F0BA
:4007000077F8002001F07AF810BD022B1CD100290BDAB4F902000028B8BF4042C0B201F0DFF8002001F0E2F810BD002906DD002001F0D6F8A07801F0D9F810BD002001F06D
:40074000CFF8002001F0D2F810BD00BF00000000D0B5044603781BB901F0D0FB208104E0012B02D101F08CFC2081B4F90800400002F0A4F90EA3D3E9002302F005FA0022AC
:400780000F4B02F001FA06460F46E08802F096F902460B463046394602F020FB06A3D3E9002302F0F1F902F0B1FC6061D0BD00BF182D4454FB210940F8C1631ADCA54C4038
:4007C00000001040AFF300800278012A30D17BBBF8B50D460446836A186802F0BBFF07462046FFF7B5FF666928464FF0804102F0E3FC0146304602F0A3FF28B17942204692
:4008000009B2FFF72FFFF8BD28464FF0804102F0D1FC0146304602F075FF20B1204639B2FFF720FFF8BD20460021FFF71BFFF8BD704700BF6822014B1A7070477E81FF1FF2
:4008400000B583B0054B1B78009018461A210222032300F0D1F803B05DF804FB7E81FF1F00B583B0054B1B78009018461B210422022300F0C1F803B05DF804FB7E81FF1F50
:4008800000B583B0054B1B78009018461C210422022300F0B1F803B05DF804FB7E81FF1F2DE9F04180460F4616461D46154C164B18783B210E22234600F052F82278637823
:4008C00043EA0223A8F80030A278E37843EA02233B802279637943EA02233380227A637A43EA02232B80A27AE37A43EA0223069A1380227B637B43EA0223079A1380BDE8BE
:40090000F08100BF6881FF1F7E81FF1F08B50346034A10786B21062200F094F808BD00BF7E81FF1F00B583B0054B1B78009018466B210222032300F05FF803B05DF804FBDA
:400940007E81FF1F08B50120FFF7ECFF0020FFF787FF0020FFF794FF0020FFF7D7FF08BDF8B504460F4615461E46002101F0DCF9384601F06BFA2046012101F015FA002433
:4009800007E0012001F08EFA30550134E4B2013DEDB2012DF5D1002001F084FA305501F039FAF8BD70B50D4614461E46002101F0BBF9284601F04AFA002506E0705D01F040
:4009C00045FA0135EDB2013CE4B2002CF6D101F021FA70BD08B513460122FFF7C1FF08BD00B583B002AB03F8012D0122FFF7DAFF03B05DF804FB00BF2DE9F04182B00746F4
:400A00000E4601249C40013CD21A551CAC405FFA84F80DF10702FFF7DDFF9DF82020AA4002EA08089DF8072022EA040448EA04028DF8072038463146FFF7D2FF02B0BDE8AB
:400A4000F08100BFF0B583B005460C4616461F460DF10702FFF7BEFF37B10122B2409DF807301A43D2B205E00122B2409DF8073023EA02028DF8072028462146FFF7B0FFAF
:400A800003B0F0BD08B500F0D5FFFFF7D3FEFFF759FF0620FFF7D4FE08BD00BF00230AE0002240F82320191D40F8212003F1080140F821200133032BF2DD014B83667047E2
:400AC0006666663F000000002DE9F04786B004460DF10E03009303AB019305A80DF116010DF1120204ABFFF7DBFE0025A946AA4603231FE05E1E54F8261044F82310DA1CF6
:400B000054F822801A1D44F82280DA1D54F82270083344F82370504602F04EFB82464846414602F049FB81462846394602F044FB05463346002BDDDCBDF9160002F0F0FBB9
:400B4000334902F0F5FC514602F036FB4FF07A5102F03AFC2060BDF9140002F0E1FB2C4902F0E6FC494602F027FB4FF07A5102F02BFC06462061BDF9120002F0D1FB244943
:400B800002F0D6FC294602F017FB4FF07A5102F01BFC206201F0A4FF80468946304601F09FFF02460B464046494601F0B7FB16A3D3E9002301F0E8FF0022164B01F032FED6
:400BC00002F0A4FA60662568206A01F089FF06460F46284601F084FF02460B463046394601F09CFB08A3D3E9002301F0CDFF0022084B01F017FE02F089FA206606B0BDE85E
:400C0000F08700BFAFF30080F8C1631ADCA54C400000C84400805640704700BF0160426083600023C360036143618361C361036243628362704700BF2DE9F0410446984671
:400C4000069EC161026246620846114602F0B2FA0546E060A7693046294602F0B5FB0146384602F0A9FA0746A0612846216902F0A1FA314602F05CFC06466061256125F0A7
:400C80000040414602F05CFDC0B12846216802F09BFB05463846616802F096FB0146284602F08AFA05463046A16802F08DFB0146284602F081FAA062BDE8F0810023A3624C
:400CC000BDE8F08108B501F011FB08BD08B541700378EBB9084601F0F1FE00220D4B02F07DF800220C4B01F04FFF00220B4B01F04BFF00220A4B01F095FD02F0DFF9A0F202
:400D0000D17240F2CE739A4202D880B201F09AFA08BD00BF008066400040AF400000E03F00409F4008B501701146FFF7CFFF08BDFEE700BF08B5104E104D16E029686B68F5
:400D4000AC68002204E051F8040B43F8040B0432A242F8D1E868002203E0002143F8041B04328242F9D11035013E002EE6D102F017FDFFF787F9FEE701000000FC38000041
:400D800008B5124A124B1A60124A136843F40073136000230AE0032B03D80F4A52F8231000E00E490E4A42F8231001332F2BF2D90C4B1A780C4B1A70094A0C4B1A6000F030
:400DC000BFF800220A4B1A6008BD00BF0004FA050CED00E014ED00E000000000310D00000080FF1FBC7600400481FF1F08ED00E00081FF1FFEE700BFF0B40022174611E0ED
:400E000050F82760F3B226F0FF0608E001EB420511F812406D78A5550132013BDBB2002BF4D10137282FEBD9F0BC7047064B1B78DBB203F00701054A11701B090132137016
:400E40004422034B1A707047CF0100496E5800407658004008B50A46002102F0D2FC08BD38B50122294B1A801823294A13700B21023211800232137045F6BF510232118096
:400E8000023213700622234B1A705222A3F580731A70214B1B78DBB2204A13704FF4E1621F4B1A8041F25122023B1A80002419250CE01C4B1B7803F0010343EA440404F0AA
:400EC00003044FF4F07000F0DBF8013D0DB1032CEFD115B90320FFF78DFF134A4FF48073138007231370002310490B7048200231087013700532137002220D4B1A700D4AB0
:400F0000137843F00703137038BD00BF8040004082400040004300400F010049A14600402242004025420040044000400640004001400040A243004008B502F057FC08BDEB
:400F400038B572B63A4A137843F00403137000240CE0384963001A1952000A4423445B00C8589188FFF776FF0134E4B2072CF0D900240FE02F49A3001A1952000A4452F851
:400F8000300F23445B000B4451681A8FFFF7D4FF0134E4B2022CEDD94FF090402649FFF72BFF264A137843F0020313701032137843F002031370224C237843F04003237009
:400FC000A2F58632513A137843F0100313701D481D490822FFF7B0FF1C481D490A22FFF7ABFF1C481C490A22FFF7A6FF1B481C490822FFF7A1FF1B481B490822FFF79CFFF9
:4010000084221A4B1A701A4A137843F008031370184D61232B70FFF723FF81232B70FFF705FF154821460E22FFF786FF38BD00BFE846004044380000A40000480350014009
:40104000A04300400251004034110048C05100403C110048F0510040481100481251004054110048225100405C1100485B0801402243004000480040B04300400000000069
:401080000230800803D000BF01380046FCD17047EFF3108072B6704780F31088704700BF01BE704770B504460E46074B1D681F2802D90020FFF7F4FF04F01F04103455F82C
:4010C000240045F8246070BD08ED00E038B504460D46072902D90020FFF7E2FF1F2C02D90020FFF7DDFF04F01F0000F1604000F564406D01EDB2057038BD00BF024A13781B
:4011000043F080031370704773640040024A137803F07F031370704773640040014B1870704700BF85640040014B1878704700BF6564004008B50146014801F0E5F808BD5D
:4011400024640040024B186820F07F40704700BF4464004008B50146014801F0D5F808BD04640040024A137843F01003137070477364004000F00300044B1A7802F0FC0203
:401180001A701A7810431870704700BF7364004008B501E0FFF7D6FFFFF7C6FF10F0080FF8D108BD10B50D4C2046FFF7C3FF2046FFF7D0FFFFF76CFF094A137843F01003F6
:4011C0001370FFF769FFFFF7CDFF0020FFF7D2FFFFF7DEFF0320FFF7A1FF10BD1FA107009564004008B5054B1B7823B9FFF7DAFF0122024B1A70FFF781FF08BD4C81FF1FA1
:40120000014B1B689864704708ED00E04001C0B2014B1870704700BF02E400E00422014B1A60704700E100E00422014B1A60704780E100E010B50446FFF7F6FF2046FFF7F6
:40124000DFFF0720FFF7E2FFFFF7E8FF10BD00BF014B1B681864704708ED00E04001C0B2014B1870704700BF00E400E00122014B1A60704700E100E00122014B1A60704790
:4012800080E100E010B50446FFF7F6FF2046FFF7DFFF0720FFF7E2FFFFF7E8FF10BD00BF024B187800F00100704700BF01510040024A137843F0800313707047756500409B
:4012C000024A137803F07F031370704775650040014B1870704700BF85650040014B1878704700BF6565004008B50146014801F00BF808BD24650040024B186820F07F4013
:40130000704700BF4465004008B50146014800F0FBFF08BD04650040024A137843F01003137070477565004000F00300044B1A7802F0FC021A701A7810431870704700BF07
:401340007565004008B501E0FFF7D6FFFFF7C6FF10F0080FF8D108BD10B50D4C2046FFF7C3FF2046FFF7D0FFFFF792FE094A137843F010031370FFF78FFEFFF7CDFF002091
:40138000FFF7D2FFFFF7DEFF0320FFF7A1FF10BD1FA107009565004008B5054B1B7823B9FFF7DAFF0122024B1A70FFF781FF08BD4D81FF1F024B1878C0F34000704700BF5A
:4013C00001510040014B1B685864704708ED00E04001C0B2014B1870704700BF01E400E00222014B1A60704700E100E00222014B1A60704780E100E010B50446FFF7F6FF44
:401400002046FFF7DFFF0720FFF7E2FFFFF7E8FF10BD00BF024A137843F080031370704771640040024A137803F07F031370704771640040014B1870704700BF8264004024
:40144000014B1878704700BF6264004008B50146014800F059FF08BD20640040024B186820F07F40704700BF4064004008B50146014800F049FF08BD00640040024A13783B
:4014800043F01003137070477164004000F00300044B1A7802F0FC021A701A7810431870704700BF7164004008B501E0FFF7D6FFFFF7C6FF10F0080FF8D108BD10B50D4C6A
:4014C0002046FFF7C3FF2046FFF7D0FFFFF7E0FD094A137843F010031370FFF7DDFDFFF7CDFF0020FFF7D2FFFFF7DEFF0320FFF7A1FF10BD1FA107009264004008B5054B4D
:401500001B7823B9FFF7DAFF0122024B1A70FFF781FF08BD4E81FF1F024B1878C0F3C000704700BF01510040014B1B681865704708ED00E04001C0B2014B1870704700BF1E
:4015400004E400E01022014B1A60704700E100E01022014B1A60704780E100E010B50446FFF7F6FF2046FFF7DFFF0720FFF7E2FFFFF7E8FF10BD00BF024A137843F080031B
:401580001370704777650040024A137803F07F031370704777650040014B1870704700BF87650040014B1878704700BF6765004008B50146014800F0A7FE08BD27640040ED
:4015C000024B186820F07F40704700BF4764004008B50146014800F097FE08BD07640040024A137843F01003137070477765004000F00300044B1A7802F0FC021A701A7859
:4016000010431870704700BF7765004008B501E0FFF7D6FFFFF7C6FF10F0080FF8D108BD10B50D4C2046FFF7C3FF2046FFF7D0FFFFF72EFD094A137843F010031370FFF74F
:401640002BFDFFF7CDFF0020FFF7D2FFFFF7DEFF0320FFF7A1FF10BD1FA107009765004008B5054B1B7823B9FFF7DAFF0122024B1A70FFF781FF08BD4F81FF1F024B1878F2
:40168000C0F38000704700BF01510040014B1B68D864704708ED00E04001C0B2014B1870704700BF03E400E00822014B1A60704700E100E00822014B1A60704780E100E044
:4016C00010B50446FFF7F6FF2046FFF7DFFF0720FFF7E2FFFFF7E8FF10BD00BF024A137843F08003137070477B650040014B1870704700BF0A650040014B1870704700BF25
:401700004A650040014B1870704700BF2A650040014B1870704700BF3A650040014B1870704700BF8A650040014B1878704700BF6A650040014B1878704700BF5A6500404D
:4017400008B501E0FFF7F6FFFFF7EEFF10F0100FF8D108BD10B5134A137803F0C00343F009031370104C237843F001032370FF20FFF7BCFFFF20FFF7BFFF0020FFF7C2FFF0
:401780000020FFF7C5FF0020FFF7C8FFFFF780FC237843F010032370FFF77EFCFFF7D0FF10BD00BF7B6500409A65004008B5054B1B7823B9FFF7CEFF0122024B1A70FFF73D
:4017C0008DFF08BD5081FF1F024A137843F080031370704777640040014B1870704700BF07650040014B1870704700BF47650040014B1870704700BF27650040014B1870B1
:40180000704700BF37650040014B1870704700BF86640040014B1878704700BF66640040014B1878704700BF5765004008B501E0FFF7F6FFFFF7EEFF10F0100FF8D108BD1F
:4018400008B5144A137803F0C00343F00903137002F59072137843F001031370FF20FFF7BBFFFF20FFF7BEFF0020FFF7C1FF0020FFF7C4FF0020FFF7C7FFFFF709FC064A95
:40188000137843F010031370FFF706FCFFF7CEFF08BD00BF776400409664004008B5054B1B7823B9FFF7CCFF0122024B1A70FFF78BFF08BD5181FF1F024A137843F0800347
:4018C0001370704778640040014B1870704700BF0B650040014B1870704700BF4B650040014B1870704700BF2B650040014B1870704700BF3B650040014B1870704700BFD0
:4019000087640040014B1878704700BF67640040014B1878704700BF5B65004008B501E0FFF7F6FFFFF7EEFF10F0100FF8D108BD08B5144A137803F0C00343F00903137096
:4019400002F22312137843F001031370FF20FFF7BBFFFF20FFF7BEFF0020FFF7C1FF0020FFF7C4FF0020FFF7C7FFFFF791FB064A137843F010031370FFF78EFBFFF7CEFF65
:4019800008BD00BF786400409764004008B5054B1B7823B9FFF7CCFF0122024B1A70FFF78BFF08BD5281FF1F38B50222114B1A7081220E3B1A70082202331A700F25113311
:4019C0001D70002401331C704FF400420A4B1A6028460721FFF77AFB28460849FFF762FB1022074B1A70074B1C70074B1C70074B1C7038BDD649004080E100E05D1A00005B
:401A00007F81FF1F8681FF1F8C81FF1F8581FF1F08B5FFF73DFB064A137843F0040313701032137843F004031370FFF735FB08BDA543004008B5074B1B7823B9FFF7B4FFCD
:401A40000122044B1A70FFF7E3FF4FF40042024B1A6008BD5381FF1F00E100E038B5A44B1C78E4B2A34B1B7813F0400F00F0378114F0010F00F01B819E4B1B78453B052B81
:401A800000F21281DFE813F006008200100110010600DE0004F0DF0504F00A04082C42D1944B1B78DBB2452B35D1934B1B7813F0FF0F10D0914B1B681B78DBB2904A137075
:401AC00004228B4B1A7001228E4B1A704622894B1A702C46EBE08C4B1B7813F0020F0DD08A4A137843F00A0313706022814B1A704FF40042864B1A602C46D8E0854A13782E
:401B000043F0100313701022834B1A700422023B1A702C46CBE00022754B1A704A22754B1A702C46C3E00A2C2BD1784A137843F0A0031370744B1B7813F0020F14D06D4B37
:401B40001B7813F0080F01D0092300E00A236F4A11780B4313706022664B1A704FF400426B4B1A602C46A2E06A4A137843F0100313701022684B1A700422023B1A702C465F
:401B800095E00020FFF78CFA2C4690E014F0020F35D15C4B1B78584A1278DBB2934210D2584A1378DBB255490968CB5CDBB254490B7004214E4B197013780133DBB21370C2
:401BC00075E0514B1B7813F0020F0CD04F4A137843F00A0313706022464B1A704FF400424B4B1A6063E04B4A137843F0100313701022494B1A700422023B1A7057E0424B2B
:401C00001B7813F0020F0CD0404A137843F09A0313706022374B1A704FF400423C4B1A6045E03C4A137843F01003137010223A4B1A700422023B1A70344A137843F09003A9
:401C4000137034E0354A1378DBB2354908682C490978C9B2C15413780133DBB213701378304A1278DBB2934203D21022204B1A701DE0254B1B7813F0020F0CD0234A13781E
:401C800043F00903137060221A4B1A704FF400421F4B1A600BE01F4A137843F0100313700022134B1A7002E00020FFF7F9F914F0200F1CD00F4B1B7813F0080F01D00123D1
:401CC00000E00223114A11780B431370114A137803F0EF0313701022064B1A7038BD054B1B7813F0100F02D11022024B1A7038BDD74900407F81FF1F8D81FF1F8081FF1F3B
:401D0000D84900408581FF1F8E81FF1F8681FF1F80E100E0D6490040D94900408C81FF1F8881FF1F8481FF1F1A4B1B78DBB2102B29D1194B1B7813F0080F26D14FF400420E
:401D4000164B1A604000C0B229B140F001004922104B1A7002E045220E4B1A70104B1870012201331A700F4B1B7813F0010FFAD00C4B1B7803F00A030A2B08D11022054B47
:401D80001A700320704702207047012070470020704700BF7F81FF1FD949004080E100E0D8490040D7490040164B1B7813F0040F23D04000C0B229B140F001004922124B74
:401DC0001A7002E04522104B1A70104B1870122201331A700422023B1A700D4B1B7813F0010FFAD00A4B1B7803F00A030A2B06D11022054B1A7003207047022070470020CE
:401E0000704700BFD94900407F81FF1FD8490040D74900400A4B1B7813F0040F0ED01023074A13700421023A1170064A1370064B1B7813F0210FFAD00020704702207047C2
:401E4000D94900407F81FF1FD7490040114B1B7813F0040F1BD0104B18700422013B1A7046220E4B1A700E4B1B7813F0010FFAD00B4B1B7813F0020F04D16022074B1A707F
:401E8000002070476022054B1A70032070470220704700BFD9490040D84900407F81FF1FD7490040114B1B7813F0040F1BD0104B1B78DBB2492B05D100220E4B1A704A2216
:401EC0000B4B1A700B4B1B7813F0010FFAD00A4B1B78DBB218B11021064A117004E06021034A117000E0002318467047D94900407F81FF1FD7490040D849004008B500F0C3
:401F00005FF8A0F5004000B208BD00BF08B5002803DB80B280F4004002E0A0F5004080B200F048F808BD00BF024B187800F00F00704700BF6C640040014B1870704700BF4D
:401F40008C64004008B50F20FFF7F6FFFFF7ECFFFFF79EF8034A137843F010031370FFF79BF808BD9C64004008B500F07BF84FF4004000F01FF8044B1B7813B90122024BF6
:401F80001A70FFF7DFFF08BD5481FF1F024A137843F08003137070477F640040014B1870704700BF8B640040014B1878704700BF6B640040014B1880704700BF1C68004029
:401FC000024B1B78024B188880B270470E6400409C680040014B188880B270479C680040014B1880704700BF5C680040014B1880704700BF7C68004008B501E0FFF7EAFFC3
:40200000FFF7D2FF10F0400FF8D108BD08B5134B1A7802F0F8021A701A7802F0FC021A70FFF7EAFF4FF40040FFF7DAFF4FF40040FFF7C0FF0020FFF7B1FFFFF7B5FF4FF4B1
:402040000040FFF7D3FFFFF723F8054A137843F010031370FFF720F808BD00BF7F6400409B64004008B5054B1B7823B9FFF7CEFF0122024B1A70FFF789FF08BD5581FF1F40
:4020800008B500F05FF8A0F5004000B208BD00BF08B5002803DB80B280F4004002E0A0F5004080B200F048F808BD00BF024B187800F00F00704700BF68650040014B187098
:4020C000704700BF8865004008B50F20FFF7F6FFFFF7ECFFFEF7DCFF034A137843F010031370FEF7D9FF08BD9865004008B500F07BF84FF4004000F01FF8044B1B7813B9ED
:402100000122024B1A70FFF7DFFF08BD5681FF1F024A137843F080031370704774640040014B1870704700BF88640040014B1878704700BF68640040014B1880704700BF0A
:4021400014680040024B1B78024B188880B270470A64004094680040014B188880B2704794680040014B1880704700BF54680040014B1880704700BF7468004008B501E088
:40218000FFF7EAFFFFF7D2FF10F0400FF8D108BD08B5134B1A7802F0F8021A701A7802F0FC021A70FFF7EAFF4FF40040FFF7DAFF4FF40040FFF7C0FF0020FFF7B1FFFFF748
:4021C000B5FF4FF40040FFF7D3FFFEF761FF054A137843F010031370FEF75EFF08BD00BF746400409864004008B5054B1B7823B9FFF7CEFF0122024B1A70FFF789FF08BD42
:402200005781FF1F044A137803F0FD03400000F0020018431070704720510040024A137843F08003137070477E640040014B1880704700BF18680040014B1880704700BF0A
:4022400098680040014B1880704700BF58680040014B1870704700BF8E640040014B1878704700BF6E640040014B188880B27047B868004008B501E0FFF7F6FFFFF7EEFF43
:4022800010F0100FF8D108BD08B5164A137803F0C00343F0090313701E32137843F0010313700132137843F00103137049F64040FFF7BCFF49F64040FFF7BEFF40F6B83044
:4022C000FFF7C0FF0020FFF7C3FFFEF7E1FE064A137843F010031370FEF7DEFEFFF7CAFF08BD00BF7E6400409E64004008B5054B1B7823B9FFF7C8FF0122024B1A70FFF738
:402300008DFF08BD5881FF1FCBB20370C1F307234370C1F307418170704700BF00F000B82DE9F84F5442144323F00049DFF878C149EAD474644517469E4606460D4641D8F6
:402340004442044321F0004B4BEAD47464458A4638D803F1404404F58014144349D09C1704F0020444EAD1745BEA000132D059EA070138D04C49894548D04B498B4532D01D
:40238000C9EB0B094FEA2959B9F13C0F3ADCBEF1000F64DB3046294600F020FD00F038FA00F09AF8012C57D0022C48D084B138A3D3E9002300F034FA37A3D3E9002300F0AC
:4023C0002FFA05E01046194632462B4600F02AFABDE8F88F032CCAD8DFE804F01212020F32483349F4E7BAF1000F304825DB3149EEE7BDE8F84F00F06FB82C482E49E7E722
:402400002946E5E726A1D1E90001CBE7CB452CD0032CB2D801A151F824F000BF2D24000033240000E1230000FB23000000200146CEE700204FF00041CAE72049C8E714A3A4
:40244000D3E9002300F0ECF902460B4612A1D1E9000100F0E5F9BBE701F10041B8E719F13C0F97DA002000219CE7032CBBD8DFE804F0020B08050D481149A9E7114812494B
:40248000A6E710481149A3E708481149A0E700BF075C143326A6A13C182D4454FB210940182D4454FB21F93F0000F07F182D4454FB210940FB21F93FFB2109C0FB21F9BFDF
:4024C000FB21E93FD221337F7CD902C07CD90240FB21E9BFAFF300802DE9F84FBE4B21F000469E420D468A4604460FDDBB4B9E4200F3B08000F0AB80B94BBA49BA4CBAF18D
:40250000000FC8BF19462046BDE8F88FB74B9E4200F3BA80A3F1DE739E4240F3A5804FF0FF3B22462B462046294600F02DFB02460B468046894600F027FB8FA3D3E9002358
:4025400006460F4600F020FB8DA3D3E9002300F069F932463B4600F017FB8BA3D3E9002300F060F932463B4600F00EFB88A3D3E9002300F057F932463B4600F005FB86A3AF
:40258000D3E9002300F04EF932463B4600F0FCFA83A3D3E9002300F045F942464B4600F0F3FA81A3D3E90023804689463046394600F0EAFA7EA3D3E9002300F031F932460A
:4025C0003B4600F0E1FA7CA3D3E9002300F028F932463B4600F0D8FA79A3D3E9002300F01FF932463B4600F0CFFA77A3D3E9002300F016F932463B4600F0C6FABBF1FF3F85
:4026000002460B4667D04046494600F00BF922462B4600F0B9FA764E764B4FEACB0B5E449B44DBE9002300F0FBF822462B4600F0F7F802460B46D6E9000100F0F1F8BAF1D1
:40264000000F0446BFF65FAF01F100415BE700283FF452AF2246204629462B4600F0E2F804462046BDE8F88F59A3D3E9002300F0D9F80022604B00F017FD00283FF44FAF53
:4026800029462046BDE8F88F00F0C2F85B4B04469E420D462FDCA3F550239E4254DC02460B4600F0BFF80022534B00F0B9F8002206460F46204629464FF0804300F0B2F851
:4026C00002460B463046394600F088FB4FF0000B04460D4625E74046494600F0A3F822462B4600F051FA02460B462046294600F097F8044607E7424B9E421ADC0022414BFC
:4027000000F08EF8002206460F46204629463D4B00F03AFA0022384B00F084F802460B463046394600F05AFB4FF0020B04460D46F7E602460B460020334900F04FFB4FF087
:40274000030B04460D46ECE600222B4B00F068F8002206460F4620462946274B00F062F802460B463046394600F038FB4FF0010B04460D46D5E600BF11DA22E33AAD903FE7
:40278000EB0D76244B7BA93F513DD0A0660DB13F6E204CC5CD45B73FFF8300922449C23F0D5555555555D53F2F6C6A2C44B4A2BF9AFDDE522DDEAD3F6D9A74AFF2B0B33F7F
:4027C000711623FEC671BC3FC4EB98999999C93F9C7500883CE4377EFFFF0F440000F07FFB21F93FFB21F9BF182D4454FFFFDB3FB8380000983800000000F03FFFFFF23F7C
:40280000FF7F03400000F83F0000F0BFAFF3008021F00041704700BF81F0004102E000BF83F0004330B54FEA41044FEA430594EA050F08BF90EA020F1FBF54EA000C55EACF
:40284000020C7FEA645C7FEA655C00F0E2804FEA5454D4EB5555B8BF6D420CDD2C4480EA020281EA030382EA000083EA010180EA020281EA0303362D88BF30BD11F0004F5C
:402880004FEA01314FF4801C4CEA113102D0404261EB410113F0004F4FEA03334CEA133302D0524263EB430394EA050F00F0A780A4F10104D5F1200E0DDB02FA0EFC22FAFC
:4028C00005F2801841F1000103FA0EF2801843FA05F359410EE0A5F120050EF1200E012A03FA0EFC28BF4CF0020C43FA05F3C01851EBE37101F0004507D54FF0000EDCF1B0
:40290000000C7EEB00006EEB0101B1F5801F1BD3B1F5001F0CD349085FEA30004FEA3C0C04F101044FEA445212F5800F80F09A80BCF1004F08BF5FEA500C50F1000041EBE7
:40294000045141EA050130BD5FEA4C0C404141EB010111F4801FA4F10104E9D191F0000F04BF01460020B1FA81F308BF2033A3F10B03B3F120020CDA0C3208DD02F1140C25
:40298000C2F10C0201FA0CF021FA02F10CE002F11402D8BFC2F1200C01FA02F120FA0CFCDCBF41EA0C019040E41AA2BF01EB0451294330BD6FEA04041F3C1CDA0C340EDC5E
:4029C00004F11404C4F1200220FA04F001FA02F340EA030021FA04F345EA030130BDC4F10C04C4F1200220FA02F001FA04F340EA0300294630BD21FA04F0294630BD94F084
:402A0000000F83F4801306BF81F480110134013D4EE77FEA645C18BF7FEA655C29D094EA050F08BF90EA020F05D054EA000C04BF1946104630BD91EA030F1EBF00210020D4
:402A400030BD5FEA545C05D14000494128BF41F0004130BD14F580043CBF01F5801130BD01F0004545F0FE4141F470014FF0000030BD7FEA645C1ABF194610467FEA655C31
:402A80001CBF0B46024650EA013406BF52EA033591EA030F41F4002130BD00BF90F0000F04BF0021704730B54FF4806404F132044FF000054FF0000150E700BF90F0000F01
:402AC00004BF0021704730B54FF4806404F1320410F0004548BF40424FF000013EE700BF42004FEAE2014FEA31014FEA02701FBF12F07F4393F07F4F81F06051704792F050
:402B0000000F14BF93F07F4F704730B54FF4607401F0004521F0004120E700BF50EA010208BF704730B54FF000050AE050EA010208BF704730B511F0004502D5404261EB08
:402B400041014FF4806404F132045FEA915C3FF4DCAE4FF003025FEADC0C18BF03325FEADC0C18BF033202EBDC02C2F1200300FA03FC20FA02F001FA03FE40EA0E0021FA1B
:402B800002F11444C1E600BF70B54FF0FF0C4CF4E06C1CEA11541DBF1CEA135594EA0C0F95EA0C0F00F0DEF82C4481EA030621EA4C5123EA4C5350EA013518BF52EA0335C8
:402BC00041F4801143F4801338D0A0FB02CE4FF00005E1FB02E506F00042E0FB03E54FF00006E1FB03569CF0000F18BF4EF0010EA4F1FF04B6F5007F64F5407404D25FEAA9
:402C00004E0E6D4146EB060642EAC62141EA55514FEAC52040EA5E504FEACE2EB4F1FD0C88BFBCF5E06F1ED8BEF1004F08BF5FEA500E50F1000041EB045170BD06F00046BC
:402C400046EA010140EA020081EA0301B4EB5C04C2BFD4EB0C0541EA045170BD41F480114FF0000E013C00F3AB8014F1360FDEBF002001F0004170BDC4F10004203C35DA92
:402C80000C341BDC04F11404C4F1200500FA05F320FA04F001FA05F240EA020001F0004221F0004110EBD37021FA04F642EB06015EEA430E08BF20EAD37070BDC4F10C042D
:402CC000C4F1200500FA04F320FA05F001FA04F240EA020001F0004110EBD37041F100015EEA430E08BF20EAD37070BDC4F1200500FA05F24EEA020E20FA04F301FA05F24A
:402D000043EA020321FA04F001F0004121FA04F220EA020000EBD3705EEA430E08BF20EAD37070BD94F0000F0FD101F00046400041EB010111F4801F08BF013CF7D041EA49
:402D4000060195F0000F18BF704703F00046520043EB030313F4801F08BF013DF7D043EA0603704794EA0C0F0CEA135518BF95EA0C0F0CD050EA410618BF52EA4306D1D149
:402D800081EA030101F000414FF0000070BD50EA410606BF1046194652EA430619D094EA0C0F02D150EA013613D195EA0C0F05D152EA03361CBF104619460AD181EA03011D
:402DC00001F0004141F0FE4141F470014FF0000070BD41F0FE4141F4780170BD70B54FF0FF0C4CF4E06C1CEA11541DBF1CEA135594EA0C0F95EA0C0F00F0A7F8A4EB0504CA
:402E000081EA030E52EA03354FEA013100F088804FEA03334FF0805545EA131343EA12634FEA022245EA111545EA10654FEA00260EF000419D4208BF964244F1FD0404F524
:402E4000407402D25B084FEA3202B61A65EB03055B084FEA32024FF480104FF4002CB6EB020E75EB030E22BFB61A754640EA0C005B084FEA3202B6EB020E75EB030E22BF29
:402E8000B61A754640EA5C005B084FEA3202B6EB020E75EB030E22BFB61A754640EA9C005B084FEA3202B6EB020E75EB030E22BFB61A754640EADC0055EA060E18D04FEA05
:402EC000051545EA16754FEA06164FEAC30343EA52734FEAC2025FEA1C1CC0D111F4801F0BD141EA00014FF000004FF0004CB6E711F4801F04BF01430020B4F1FD0C88BFD6
:402F0000BCF5E06F3FF6AFAEB5EB030C04BFB6EB020C5FEA500C50F1000041EB045170BD0EF0004E4EEA113114EB5C04C2BFD4EB0C0541EA045170BD41F480114FF0000E14
:402F4000013C90E645EA060E8DE60CEA135594EA0C0F08BF95EA0C0F3FF43BAF94EA0C0F0AD150EA01347FF434AF95EA0C0F7FF425AF104619462CE795EA0C0F06D152EAE4
:402F800003353FF4FDAE1046194622E750EA410618BF52EA43067FF4C5AE50EA41047FF40DAF52EA43057FF4EBAE12E74FF0FF3C06E000BF4FF0010C02E000BF4FF0010CEB
:402FC0004DF804CD4FEA410C7FEA6C5C4FEA430C18BF7FEA6C5C1BD001B050EA410C0CBF52EA430C91EA030F02BF90EA020F0020704710F1000F91EA030F58BF994208BFF5
:4030000090422CBFD8176FEAE37040F0010070474FEA410C7FEA6C5C02D150EA013C07D14FEA430C7FEA6C5CD6D152EA033CD3D05DF8040B704700BF8446104662468C4685
:403040001946634600E000BF01B5FFF7B7FF002848BF10F1000F01BD4DF808EDFFF7F4FF0CBF012000205DF808FB00BF4DF808EDFFF7EAFF34BF012000205DF808FB00BFA0
:403080004DF808EDFFF7E0FF94BF012000205DF808FB00BF4DF808EDFFF7CEFF94BF012000205DF808FB00BF4DF808EDFFF7C4FF34BF012000205DF808FB00BF4FEA4102F4
:4030C00012F5001215D211D56FF47873B3EB625212D94FEAC12343F0004343EA505311F0004F23FA02F018BF404270474FF00000704750EA013005D111F0004008BF6FF0EF
:40310000004070474FF00000704700BF4FEA4102B2F1E04324BFB3F5001CDCF1FE5C0DD901F0004C4FEAC0024CEA5070B2F1004F40EB830008BF20F00100704711F0804FC0
:4031400021D113F13872BCBF01F00040704741F480114FEA5252C2F11802C2F1200C10FA0CF320FA02F018BF40F001004FEAC1234FEAD32303FA0CFC40EA0C0023FA02F347
:403180004FEA4303CCE77FEA625307D150EA01331EBF4FF0FE4040F44000704701F0004040F0FE4040F40000704700BF80F0004002E000BF81F0004142001FBF5FEA4103FB
:4031C00092EA030F7FEA226C7FEA236C6AD04FEA1262D2EB1363C1BFD218414048404140B8BF5B42192B88BF704710F0004F40F4000020F07F4018BF404211F0004F41F4BE
:40320000000121F07F4118BF494292EA030F3FD0A2F1010241FA03FC10EB0C00C3F1200301FA03F100F0004302D5494260EB4000B0F5000F13D3B0F1807F06D340084FEA6C
:40324000310102F10102FE2A51D2B1F1004F40EBC25008BF20F0010040EA03007047490040EB000010F4000FA2F10102EDD1B0FA80FCACF1080CB2EB0C0200FA0CF0AABF35
:4032800000EBC25052421843BCBFD0401843704792F0000F81F4000106BF80F400000132013BB5E74FEA41037FEA226C18BF7FEA236C21D092EA030F04D092F0000F08BF4C
:4032C0000846704790EA010F1CBF0020704712F07F4F04D1400028BF40F00040704712F100723CBF00F50000704700F0004343F0FE4040F4000070477FEA226216BF0846DF
:403300007FEA23630146420206BF5FEA412390EA010F40F4800070474FF0000304E000BF10F0004348BF40425FEA000C08BF704743F0964301464FF000001CE050EA01025D
:4033400008BF70474FF000030AE000BF50EA010208BF704711F0004302D5404261EB41015FEA010C02BF84460146002043F0B64308BFA3F18053A3F50003BCFA8CF2083A4B
:40338000A3EBC25310DB01FA02FC634400FA02FCC2F12002BCF1004F20FA02F243EB020008BF20F00100704702F1200201FA02FCC2F1200250EA4C0021FA02F243EB0200A1
:4033C00008BF20EADC7070474FF0FF0C1CEAD0521EBF1CEAD15392EA0C0F93EA0C0F6FD01A4480EA010C400218BF5FEA41211ED04FF0006343EA501043EA5111A0FB013100
:403400000CF00040B1F5000F3EBF490041EAD3715B0040EA010062F17F02FD2A1DD8B3F1004F40EBC25008BF20F00100704790F0000F0CF0004C08BF49024CEA502040EAF8
:4034400051207F3AC2BFD2F1FF0340EAC250704740F400004FF00003013A5DDC12F1190FDCBF00F000407047C2F10002410021FA02F1C2F1200200FA02FC5FEA310040F1D6
:40348000000053EA4C0308BF20EADC70704792F0000F00F0004C02BF400010F4000F013AF9D040EA0C0093F0000F01F0004C02BF490011F4000F013BF9D041EA0C018FE7F1
:4034C0000CEAD15392EA0C0F18BF93EA0C0F0AD030F0004C18BF31F0004CD8D180EA010000F00040704790F0000F17BF90F0004F084691F0000F91F0004F14D092EA0C0FCA
:4035000001D142020FD193EA0C0F03D14B0218BF084608D180EA010000F0004040F0FE4040F40000704740F0FE4040F4400070474FF0FF0C1CEAD0521EBF1CEAD15392EA5C
:403540000C0F93EA0C0F69D0A2EB030280EA010C49024FEA402037D04FF0805343EA111143EA10130CF000408B4238BF5B0042F17D024FF4000C8B4224BF5B1A40EA0C0003
:40358000B3EB510F24BFA3EB510340EA5C00B3EB910F24BFA3EB910340EA9C00B3EBD10F24BFA3EBD10340EADC001B0118BF5FEA1C1CE0D1FD2A3FF650AF8B4240EBC25066
:4035C00008BF20F0010070470CF0004C4CEA50207F32C2BFD2F1FF0340EAC250704740F400004FF00003013A37E792F0000F00F0004C02BF400010F4000F013AF9D040EA86
:403600000C0093F0000F01F0004C02BF490011F4000F013BF9D041EA0C0195E70CEAD15392EA0C0F08D142027FF47DAF93EA0C0F7FF470AF084676E793EA0C0F04D14B02DC
:403640003FF44CAF08466EE730F0004C18BF31F0004CCAD130F000427FF45CAF31F000437FF43CAF5FE700BF4FF0FF3C06E000BF4FF0010C02E000BF4FF0010C4DF804CD19
:403680004FEA40024FEA41037FEA226C18BF7FEA236C11D001B052EA530C18BF90EA010F58BFB2EB030088BFC81738BF6FEAE17018BF40F0010070477FEA226C02D15FEA6E
:4036C000402C05D17FEA236CE4D15FEA412CE1D05DF8040B704700BF844608466146FFE70FB5FFF7C9FF002848BF10F1000F0FBD4DF808EDFFF7F4FF0CBF012000205DF8E4
:4037000008FB00BF4DF808EDFFF7EAFF34BF012000205DF808FB00BF4DF808EDFFF7E0FF94BF012000205DF808FB00BF4DF808EDFFF7D2FF94BF012000205DF808FB00BFFD
:403740004DF808EDFFF7C8FF34BF012000205DF808FB00BF4FEA4002B2F1FE4F0FD34FF09E03B3EB12620DD94FEA002343F0004310F0004F23FA02F018BF404270474FF063
:403780000000704712F1610F01D1420205D110F0004008BF6FF0004070474FF0000070470E4B70B51E460E4C0025E41AA410A54204D056F8253098470135F8E700F08CF8C7
:4037C000084B094C1E46E41AA4100025A54204D056F8253098470135F8E770BDE4380000E4380000E4380000EC38000010B5431E0A44914204D011F8014B03F8014FF8E755
:4038000010BD03460244934202D003F8011BFAE770470000000000001900000000000000F00000003200000058020000C05D0000E8800000C8AF00001FA107000000C0407E
:403840000000C844C8490040190030510040400000000140001000140140800200170140000500400140000A004C01400002105001401000605200409C10004806008016FF
:403880000140A4100048800000500140241100481000000000000000E2652F227F2B7A3C075C143326A6813CBDCBF07A8807703C075C143326A6913C4FBB610567ACDD3FF3
:4038C000182D4454FB21E93F9BF681D20B73EF3F182D4454FB21F93FF8B500BFF8BC08BC9E4670474D000000810D0000F8B500BFF8BC08BC9E46704729000000103900009B
:403900000881FF1F08000000800000000000000000000000000000000000000000000000000000000000000000000000000000000000000000000000000000000000000058
:403940000000000000000000000000000000000000000000000000000000000000000000000000000000000000000000000000000000000000000000000000000000000047
:403980000000000000000000000000000000000000000000000000000000000000000000000000000000000000000000000000000000000000000000000000000000000007
:4039C00000000000000000000000000000000000000000000000000000000000000000000000000000000000000000000000000000000000000000000000000000000000C7
:403A00000000000000000000000000000000000000000000000000000000000000000000000000000000000000000000000000000000000000000000000000000000000086
:020000040003F7
:0200000480007A
:40000000014500400552004008640040046500406600014032010140530201403A0301406504014046050140570601405007014060080140560901405F0A01405A0B01401A
:40004000640C01404B0D0140630E01402F0F0140601401404C1501401C160140471701403F1801404B1901405D1A0140451B0140074001400F4101400E4201400A430140CE
:400080000A45014007460140084701400D4801400E490140174C0140054D014006500140035101407E0208900930100811087C40820F850F860F870F886F8B6F8C0F8E0D4C
:4000C000850F870F880F8A0F0006010602680506070108020A1C0B010D020F041507180119051A781B02280229032A342C563007347835073A234031420249FF4AFF4BFF7A
:400100004F015018580459045A045C095D095F016040624064406540668068806A806C806E80820883608404860289038B0C8D058E0F8F0A936097209B0F9E0D9F40A105BC
:40014000A20FA30AA402A520A604A710A903AB0CB008B201B30FB404B510B603B760BE15C034C202C9FFCAFFCBFFCD83CE03CF01D018D293D804D904DA04DB04DC99DD99F3
:40018000DF01E040E240E440E540E680E880EA80EC80EE80012205080640070209280B100E02100A1680170819221D381E8220042110268027282A202D2A3020320835102E
:4001C0003680370A388139243C023D203E4041284380452846406C0A6D206E4074017680770285048D08C0BAC282C433CAE4CCF6CEBFD0EEE040E6020C040E0213011A0D34
:400200001E0F220F2302240226042A083008320133013403360437023E454064420245EC4602480749FF4AFF4BFF4D834E034F01501854035604580459045A045B045C09FD
:400240005D995F016040624064406540668068806A806C806E808130843086C3870189108B208F029101930499309D089EFFA303A450A510A6ADA720A830AAC6AC5AAEA0C7
:40028000AF03B20FB304B4F0B538B703BA08BB30D293D804D904DB04DC99DD90DF010108070109800E09100A12211508168819281D881E481F0821442220271229492C8033
:4002C000318032203301370239983A01452046404F15564057805E805F256780680A69107141728187409004931094019B209E60A120A240A420A608A780A840C084C2C1B6
:40030000C477CA8BCC8DCE0FD0A0D220D6F0D880EA0101010208030605800606071009700DB00F401002130815C0172019021B011D011F02220123082501270229C02B10DA
:400340002E022FF030043108320133F034023503360837043B203E104032420149FF4AFF4BFF4F0150185280580459045A045B045D095F016040624064406540668068802C
:400380006A806C806E80840186028C028E0194049A049C019E02A001A202A703AF02B204B501B603B702BA80C032C201C9FFCAFFCBFFCD83CE03CF01D018D403D604D804AE
:4003C000D904DA04DB04DD99DF01E040E240E440E540E680E880EA80EC80EE8000040102054307100A800C800E2410021280170219941A801C031D401E10212022892610F2
:40040000270129442A102B802D402E042F20312132883A263B40418042084308458846085D215E405F04678070028420861087408B408E0290049240940199209B1A9E2899
:40044000A080A188A308A420A608A880B309C0ACC2E8C419CA5FCC0FCE0FD07ED6F0D880E202E682EA0CECA007021A011D02250126022B01300131013302340240324201E4
:4004800045EC4702481349FF4AFF4BFF4D834E034F0150185407580459045A045B045D095F016040624064406540668068806A806C806E808504860187088C048F029508A2
:4004C00097049A089B019E02A104A204A308A608AB01AD04AF08B004B101B208B30CB402B502B601BB08C015C203C9FFCAFFCBFFCF01D018D280D407D804D904DA04DB04B5
:40050000DD09DF01E040E240E440E540E680E880EA80EC80EE8000040180084009600C200F0810A01620182419401A401E801F1020202120220527A0284029402A202B0880
:400540002F1831203204364038043B403F0840114588460848024D014F04560858045A505B025D025E045FA0734080028144838086018A018B0192109541970499809B08F7
:400580009D019E08A1C8A7A0AA04AC01AE20AF01B160B201B510B608C005C243C42CCA6DCC16CE4AD07AD208D6FFE080E20CE604EA29EC08EE02031009030B0C0C020D07BC
:4005C0001402150C1703190F1C021D0A1F052105230A2E01300133103402350F38203E104041420649FF4AFF4BFF4D834E034F0150185280540F580459045A045B045D0975
:400600005F056040624064406540668068806A806C806E808106820F88088A018E108F019007940C950C9601990A9C0C9E02A101A80BAA04AD0CB010B10EB501B60FB9020D
:40064000BF10C045C206C60EC72CC834C9FFCAFFCBFFCD83CE03CF01D018D804D904DA04DD09DF01E040E240E440E540E680E880EA80EC80EE8000200141060208040A016C
:400680000B400CC00F101120174019811A011E041F01210123482530262829812D0130043120340435803620388039423C203E023F4042804681480249204D20500A5241D1
:4006C00053025C015E686604670477407C08830386408A129080930495039604971098049A069B049D809F08A0F4A104A280A401A510A940AB04AD02AE80AF10B010B114FD
:40070000B430B504C08BC2ADC482CA89CC76CEB9D091D22CD6F0D860DE40E020E840ECC0EE2208940A600C9E0E6014CF16301A0F1C73203022C9230128FD2A0234FF350189
:400740003E104032410549FF4AFF4BFF4DA04F015018580459045A045F016040628064406540668068406A806C406D206E80802082048303842C861088308A048C4290304C
:4007800091049208941C99029C42A040A601AB04AE3CB03CB240B302B401B501B602B704B888BE04BF44C032C105C53CC640C72EC83BC9FFCAFFCBFFCDAFCE07CF01D01830
:4007C000D40FD804D904DA04DB04DF05E040E280E440E540E680E840EA80EC40ED20EE8000280180021004A005020610084409200A100E400F121121124014C015861920AC
:400800001C801D081E492110241026502B802E203612380439083F024020420443104420471048014B404C804F44542056065C025D105E805F08660867087C808444878047
:4008400089108B018C128E04908091049210930894249501964197109A289B049C409DA09E40A004A120A202A301A518A680AB08AC80B048B104C0F3C2B7C4BACA21CCA000
:40088000CE80D066D218D6F0D860DE10E240E608EA08EE020108031005180B200C010D021304151C1A011B011D0C1E0122022302250229182B042D142F0830013120330296
:4008C00034023501371C3E013F044060410249FF4AFF4BFF4DA04F045018540F580459045A045B045D015F01604062C06440654066C068C06AC06CC06EC08501860F870239
:4009000089078C0C8D048E01940C960297049B079C07A008A107A201A80BAA04AB08AD01AF02B20FB50FC020C106C5D0C601C702C816C9FFCAFFCBFFCDAFCE0FCF04D01853
:40094000D804D904DA04DD01DF01E040E2C0E440E540E6C0E8C0EAC0ECC0EEC000040180044008400A100D200E0511301240148019041A101E801F102120244025C026026D
:400980002729284029A02D902E053124345035043701380439103A403C443D013E2043204604480849014F20508852045C085E805F2179027A8084108D108F0190809308DA
:4009C00094209502964097309A289B049D019E04A004A331A480A5E8AB04B384B401C085C2C5C41ACAFDCCF6CEFED024D224D6F0E6020602070212011B021F012101220668
:400A0000300433023401360237013F044043410249FF4AFF4BFF4DA04F01501852805405580459045A045B045C115D105F016040628064406540668068406A806C406D20C8
:400A40006E80810182108302840F880C8A038F04900A91019205931294079502970198109E10A003A20CA405A501A60AA70AB010B110B304B40FB503B708BB20BE01C04310
:400A8000C102C530C64CC72EC83EC9FFCAFFCBFFCDAFCE07CF01D018D280D804D904DA04DB04DF01E040E280E440E540E680E840EA80EC40ED20EE800320042406800B40DF
:400AC0000D800E480F10108015021704180219021B301C0C1F02224425012604270529022F103080332037053A043D82408041284302448045284C405628578159015A8824
:400B0000734076808404C074C2F8C438CA41CCCCCE92D0E7D60B0309056008300AC30B030F0E1105170F18501AAD1D101EFF25202740283029202AC62B402C5A2D602EA020
:400B4000320F34F03570370F3A083BB04031420549FF4AFF4BFF4F015018580459045A045C995D095F016040624064406540668068806A806C806E808101820F8A0D8E0F77
:400B800093039402960497029B019C049E02A208AF03B008B201B403B503B604BE45C035C201C9FFCAFFCBFFCD83CE03CF01D018D293D403D604D804D904DA04DB04DC991A
:400BC000DD99DF01E040E240E440E540E680E880EA80EC80EE8000100510074209A00E200F02100811801640181019281C021D981E40200421202301270829082B0A2E8047
:400C0000318433013610370A380439103B413F0241084380458848014F805D215E405F0466016C086D806F0A768077428201830188048B6091119304974199049A409B0100
:400C40009C04A210A3C1A588A720AC40AE04AF02B401C0D2C2A3C413CA1ECCEBCE8FD05AD218D6F0D880E001E640EA01EE021E0132014035420145EC4602480749FF4AFF85
:400C80004BFF4D834E034F01501858045A045C095D095F016040624064406540668068806A806C806E80000409040A080F02108211041308181519041A401E202080225421
:400CC00029452A1031303244330139143B4141104588482049124D014F84511052105308564057C05A615B04608069106B0170827141801085108B019201941196049B0CFE
:400D00009C849D029F02A124A301A420A728A880A901AB04B010B490C004C286C40DCA0FCC0FCE0FD054D214D60FD801E008E201E419EA17021C030206100701080109017F
:400D40000C040E0812201301141C15021A011C041E081F04220224102708281C2C0230013104330834023501363C37023E113F50540F580459045B045F01820F84FD860238
:400D8000883089068AC98C9E8D0C8E609473990A9F11A094A260A4CFA630A701A90CAF10B110B30EB501B6FFB908BE40D804D904DF01008A01420220030504100502061086
:400DC000070108080B100C200F91110812901301144417441B401C021E4A212123102419274029042A502C20318032203440360939403B103C103E065C8A5E1078047A2011
:400E000081208501870488028A208B04930294019640971098409A029B049C089D209EA0A064A104A288A401A604A808AA20B101C0FFC2F4C4FCCA4ECCDCCEECD6F0E00839
:400E4000E201E432EA02ECC007040F02120117011C021F0420012602300231013304340137023F044010410645D146054702481749FF4AFF4BFF4DA04F04501854075804EA
:400E800059045A045B045F01604062C06440654066C068C06AC06CC06EC08201850688048C0291069502970499089A049C049F01A002A902AB04AF01B204B402B501B601E6
:400EC000B70EB820BBC0BE04BF10C040C105C52DC610C750C82BC9FFCAFFCBFFCDA0CF04D018D280D804D904DA04DB04DC90DF01E040E2C0E440E540E6C0E8C0EAC0ECC06B
:400F0000EEC00410060207400A020B800E0610201301144019101A401D801E1422052301270A2E802F05318435A03680370638883F0441804680482849054D844E80504CAD
:400F4000524053405401562059115A487740830488018B0A9010930E95049614984099209A029D049E60A201A580AD24B484B680C0D0C2C9C41CCA30CCFACE4AD088D214B1
:400F8000D60FE2A0E6C0E808EA01EC103288360137103B108C40CCF0CE1000020302044007803010330135808710944097109F10A689C0F0CC70E2103E10531056108A08F2
:400FC0008E849C109F11A001A689AD80B382CE20D460EA10880196109F11A001A605AC10AE10B310EA40EE4008800B200F425C4087109040B440C20FD604E80287019C04BD
:40100000A301AC04AF40B080EA040B240C048A2097209C04AF10C20EE0042604828087088F0496109F10A604AF01B601C880E010E280EA40130817047220768083108E2025
:401040009A809F1CAA10C430DC80DE20E220EA801080132017045A025E016220660179017D208304850186018D109A01A220AF04B601C40ED603D803DE03E408EC028C8049
:40108000A080AB20AE01E602100111011A011B011C011D0100FF01AB03C00000060C0000030000000018006000010D04001800600028005000280050000008010200048015
:4010C0000000000200000F03040002780000008000000F03088004040378010300000000000045016002000000D520011BFFFFFF00A00004180093000300040004040404A1
:40110000999000014000C0004040C000C000C000C000C00000000000000000000000000000000000030100000000000001010101010103000F0F0000000000000300000C0B
:401140000F000F00000000004000000000000000C000000000F0F000F0000000F0FA0A00080000000000000000000000000000000000000000000000000000000000000085
:40118000000000000000000000000000000000000000000000000000000000000000000000000000000000000000000000000000000000000000000000000000000000002F
:4011C00000000000000000000000000000000000000000000000000000000000000000000000000000000000000000000000000000000000000000000000000000000000EF
:4012000000000000000000000000000000000000000000000000000000000000000000000000000000000000000000000000000000000000000000000000000000000000AE
:40124000000000000000000000000000000000000000000000000000000000000000000000000000000000000000000000000000000000000000000000000000000000006E
:0200000490006A
:0400000000004005B7
:0200000490105A
:04000000BC90ACAF55
:0200000490303A
:0200000091610C
:0200000490402A
:4000000000000000000000000000000000000000000000000000000000000000000000000000000000000000000000000000000000000000000000000000000000000000C0
:400040000000000000000000000000000000000000000000000000000000000000000000000000000000000000000000000000000000000000000000000000000000000080
:400080000000000000000000000000000000000000000000000000000000000000000000000000000000000000000000000000000000000000000000000000000000000040
:4000C0000000000000000000000000000000000000000000000000000000000000000000000000000000000000000000000000000000000000000000000000000000000000
:0200000490501A
:0C00000000012E16106900012E32A1CA6A
:00000001FF