:400000000080002011000000AD0C0000AD0C000008B5044B1A6803F53F5302331A6000F047FE00BFFA46004010B5054C237833B9044B13B10448AFF300800123237010BDC0
:400040001081FF1F000000004C360000084B10B51BB108480849AFF300800848036803B910BD074B002BFBD0BDE81040184700BF000000004C3600001481FF1F0881FF1F2D
:40008000000000002DE9F043ADF5097D62B600F049F97B4B1E68002002F06CF800F0B0FD0DF5FA790024484676492246764B00F0A9FD0DF5E478404674492246234600F01F
:4000C000A1FD67AD4FF07E5328461946224600F099FD5CA86E4922466E4B00F093FD51A86D4922464FF07F5300F08CFD00F068FA6A4F00976FF400040194CDF8089046A89D
:400100000021F02242F2D00300F06CFA644B0093644B0193CDF808803BA8012146224FF4486300F05FFA00970194029530A80221F0224FF4966300F055FA00F083F92CA82E
:40014000012100F09DF928A8022100F099F924A8032100F095F920A8042100F091F900F085FC05A800F08EFC454C2068801B02F0EFFF0546266805A800F09AFC2CA800F091
:4001800087F928A800F084F924A800F081F920A800F07EF99DF8A1303BB1BDF8AC1021B146A809B200F032FA0EE01D9A3E4B1B6800955CA8002100F033FD669803F0E6F968
:4001C00001B246A800F022FA9DF8B1301BB3BDF8BC0003B2002BB8BF5B42192B1BDD00B202F0B0FB0022314B02F012FC804689462F4B186802F0A6FB02460B4640464946B0
:4002000002F030FD02F09EFE01463BA82A46002300F0AEFA05E03BA800212A46002300F0A7FA9DF881303BB1BDF88C1021B130A809B200F0EBF903E030A8002100F0E6F948
:40024000059820F000404FF07E5103F077F998B1099820F000404FF07E5103F06FF958B10D9820F000404FF07E5103F067F918B1012001F07FFF77E7002001F07BFF73E782
:400280005C81FF1F0000C8420000A041000020430000F0410000284100004040FFFF7F7F9A9919409A9919C070360000000059C054360000164A136801331360154A138882
:4002C00001339BB21380B3F57A7F20D30022114B1A80114A138801339BB213803B2B16D900220D4B1A800D4A138801339BB213803B2B0CD90022094B1A80094A1388013348
:400300009BB21380172B02D90022054B1A8070475C81FF1F5881FF1F5A81FF1F6081FF1F6281FF1F08B5024800F068FF08BD00BFB502000008B500F08DFF0D4B187010F060
:40034000020F07D000F094FFC0F5F42000F21F10074B5860064B1B7813F0010F02D00022034B5A6000F068FF024800F089FF08BD2C81FF1F1FA1070008B500F091FE0D4B27
:40038000187210F0020F07D000F098FEC0F5F42000F21F10074BD860064B1B7A13F0010F02D00022034BDA6000F06CFE024800F08DFE08BD2C81FF1F1FA1070008B501F038
:4003C000ADF80D4B187410F0020F07D001F0B4F8C0F5F42000F21F10074B5861064B1B7C13F0010F02D00022034B5A6101F088F8024801F0A9F808BD2C81FF1F1FA107005E
:4004000008B500F0D9FF0D4B187610F0020F07D000F0E0FFC0F5F42000F21F10074BD861064B1B7E13F0010F02D00022034BDA6100F0B4FF024800F0D5FF08BD2C81FF1F6A
:400440001FA1070008B50A4800F092FF00F060FF084800F0ABFE00F081FE074801F0ECF801F0BAF8054801F035F801F003F808BD3503000079030000BD0300000104000022
:40048000017000234370838143608360704700BF70B504460378012B0CD0022B07D0032B02D1454A167C07E0434A167E04E0424A167A01E0404A1678012B0CD0022B07D0D0
:4004C000032B02D13C4A556907E03B4AD56904E0394AD56801E0384A5568012B02D100F09BFE0BE0022B02D100F020FF06E0032B02D101F07FF801E000F0CAFF28B12F4B8B
:400500001B6863600123637007E02C4B1B6862689B1A322B01D9002363706378002B4AD0002E48D0A5F5BB43403B45F20822934200D9A568C5F50043E83313F5167F05DDC5
:40054000B3F5167F02DA0023A38111E048F2E8039D4202D942F6E06201E042F22832A5F50043E83BC3EB03131B0193FBF2F3A381B4F90C3013F1F00F02DA4FF61073A38137
:40058000B4F90C30F02B01DDF023A381A5602378012B01D100F0BCFE2378022B01D100F0DDFD2378032B01D101F016F82378042B01D100F05FFF70BD2C81FF1F5C81FF1FFF
:4005C00008B501F0AFF801F087FC002001F056FC01F01EF901F042FD002001F011FD01F08DF908BD0170828000224280C3800281009BC360019B0361002343618361C36192
:4006000003624362029B8362704700BF10B5044681EAE170A0EBE170A3881AB2904207DD002901DA5A426280002902DD638000E061802378EBB900290BDAB4F90200002812
:40064000B8BF4042C0B201F019F8002001F01CF810BD002906DD002001F010F8A07801F013F810BD002001F009F8002001F00CF810BD012B1DD100290BDAB4F90200002822
:40068000B8BF4042C0B201F06FF8002001F072F810BD002906DD002001F066F8A07801F069F810BD002001F05FF8002001F062F810BD022B1CD100290BDAB4F902000028DE
:4006C000B8BF4042C0B201F0C5F8002001F0C8F810BD002906DD002001F0BCF8A07801F0BFF810BD002001F0B5F8002001F0B8F810BD00BF00000000D0B5044603781BB9BC
:4007000001F0B4FB208104E0012B02D101F070FC2081B4F90800400002F014F90EA3D3E9002302F075F900220F4B02F071F906460F46E08802F006F902460B463046394653
:4007400002F090FA06A3D3E9002302F061F902F0F9FB6061D0BD00BF182D4454FB210940F8C1631ADCA54C4000001040AFF30080F0B583B00478012C4ED115460E460446A6
:4007800063BB836A186802F001FF07462046FFF7B3FF656930464FF0804102F029FC0146284602F0E9FE28B17942204609B2FFF72DFF31E030464FF0804102F017FC0146CE
:4007C000284602F0BBFE20B1204639B2FFF71EFF22E020460021FFF719FF1DE0012B1BD1FFF78AFF0095A06A314662694FF0804300F016FAA36A986A02F0C8FE014600F19E
:4008000045038A2B04D820460021FFF7FFFE03E0204609B2FFF7FAFE03B0F0BD6822014B1A7070477A81FF1F00B583B0054B1B78009018461A210222032300F0D1F803B039
:400840005DF804FB7A81FF1F00B583B0054B1B78009018461B210422022300F0C1F803B05DF804FB7A81FF1F00B583B0054B1B78009018461C210422022300F0B1F803B075
:400880005DF804FB7A81FF1F2DE9F04180460F4616461D46154C164B18783B210E22234600F052F82278637843EA0223A8F80030A278E37843EA02233B802279637943EA6C
:4008C00002233380227A637A43EA02232B80A27AE37A43EA0223069A1380227B637B43EA0223079A1380BDE8F08100BF6481FF1F7A81FF1F08B50346034A10786B2106222B
:4009000000F094F808BD00BF7A81FF1F00B583B0054B1B78009018466B210222032300F05FF803B05DF804FB7A81FF1F08B50120FFF7ECFF0020FFF787FF0020FFF794FFA4
:400940000020FFF7D7FF08BDF8B504460F4615461E46002101F0A0F9384601F02FFA2046012101F0D9F9002407E0012001F052FA30550134E4B2013DEDB2012DF5D1002083
:4009800001F048FA305501F0FDF9F8BD70B50D4614461E46002101F07FF9284601F00EFA002506E0705D01F009FA0135EDB2013CE4B2002CF6D101F0E5F970BD08B5134643
:4009C0000122FFF7C1FF08BD00B583B002AB03F8012D0122FFF7DAFF03B05DF804FB00BF2DE9F04182B007460E4601249C40013CD21A551CAC405FFA84F80DF10702FFF770
:400A0000DDFF9DF82020AA4002EA08089DF8072022EA040448EA04028DF8072038463146FFF7D2FF02B0BDE8F08100BFF0B583B005460C4616461F460DF10702FFF7BEFF38
:400A400037B10122B2409DF807301A43D2B205E00122B2409DF8073023EA02028DF8072028462146FFF7B0FF03B0F0BD08B500F099FFFFF7D3FEFFF759FF0620FFF7D4FE27
:400A800008BD00BF00230AE0002240F82320191D40F8212003F1080140F821200133032BF2DD014B836670476666663F000000002DE9F04786B004460DF10E03009303AB38
:400AC000019305A80DF116010DF1120204ABFFF7DBFE0025A946AA4603231FE05E1E54F8261044F82310DA1C54F822801A1D44F82280DA1D54F82270083344F8237050460C
:400B000002F076FA82464846414602F071FA81462846394602F06CFA05463346002BDDDCBDF9160002F018FB334902F01DFC514602F05EFA4FF07A5102F062FB2060BDF99D
:400B4000140002F009FB2C4902F00EFC494602F04FFA4FF07A5102F053FB06462061BDF9120002F0F9FA244902F0FEFB294602F03FFA4FF07A5102F043FB206201F0F4FEDB
:400B800080468946304601F0EFFE02460B464046494601F005FB16A3D3E9002301F038FF0022164B01F082FD02F0CCF960662568206A01F0D9FE06460F46284601F0D4FECC
:400BC00002460B463046394601F0EAFA08A3D3E9002301F01DFF0022084B01F067FD02F0B1F9206606B0BDE8F08700BFAFF30080F8C1631ADCA54C400000C84400805640F7
:400C0000704700BF0160426083600023C360036143618361C361036243628362704700BF2DE9F04104469846069EC161026246620846114602F0DAF90546E060A7693046E1
:400C4000294602F0DDFA0146384602F0D1F90746A0612846216902F0C9F9314602F084FB06466061256125F00040414602F084FCC0B12846216802F0C3FA0546384661684F
:400C800002F0BEFA0146284602F0B2F905463046A16802F0B5FA0146284602F0A9F9A062BDE8F0810023A362BDE8F081FEE700BF08B5104E104D16E029686B68AC68002282
:400CC00004E051F8040B43F8040B0432A242F8D1E868002203E0002143F8041B04328242F9D11035013E002EE6D102F075FCFFF7C9F9FEE7010000001C37000008B5124A21
:400D0000124B1A60124A136843F40073136000230AE0032B03D80F4A52F8231000E00E490E4A42F8231001332F2BF2D90C4B1A780C4B1A70094A0C4B1A6000F0B9F80022F6
:400D40000A4B1A6008BD00BF0004FA050CED00E014ED00E000000000AD0C00000080FF1FBC7600400481FF1F08ED00E00081FF1FFEE700BFF0B40022174611E050F82760FC
:400D8000F3B226F0FF0608E001EB420511F812406D78A5550132013BDBB2002BF4D10137282FEBD9F0BC7047064B1B78DBB203F00701054A11701B09013213704422034BB2
:400DC0001A707047CF0100496E5800407658004008B50A46002102F030FC08BD38B50122264B1A801823264A137045F6BF5102321180023213700622224B1A705222A3F539
:400E000080731A70204B1B78DBB2204A13704FF4E1621F4B1A8041F25122023B1A80002419250CE01B4B1B7803F0010343EA440404F003044FF4F07000F0DEF8013D0DB1A3
:400E4000032CEFD115B90320FFF792FF124A4FF48073138007231370002310490B7048200231087013700532137002220C4B1A700C4A137843F00303137038BD804000405B
:400E800082400040004300400F010049A14600402242004025420040044000400640004001400040A243004008B502F0BBFB08BD38B572B63C4A137843F004031370002401
:400EC0000CE03A4963001A1952000A4423445B00C8589188FFF77CFF0134E4B2062CF0D900240FE03149A3001A1952000A4452F82C0F23445B000B4451689A8EFFF7D4FFD8
:400F00000134E4B2012CEDD94FF090402849FFF731FF284A137843F0020313701032137843F002031370244C237843F040032370A2F58632513A137843F0100313701F4864
:400F40001F490822FFF7B0FF1E481F490A22FFF7ABFF1E481E490A22FFF7A6FF1D481E490822FFF7A1FF1D481D490822FFF79CFF84221C4B1A70442203F5B0631A701A4A04
:400F8000137843F008031370184D61232B70FFF725FF81232B70FFF707FF154821460E22FFF782FF38BD00BFE846004078360000A400004803500140A0430040025100409B
:400FC000A80F0048C0510040B00F0048F0510040BC0F004812510040C80F004822510040D00F0048DB0801402243004000480040B0430040000000000230800803D000BF9A
:4010000001380046FCD17047EFF3108072B6704780F31088704700BF01BE704770B504460E46074B1D681F2802D90020FFF7F4FF04F01F04103455F8240045F8246070BDE6
:4010400008ED00E038B504460D46072902D90020FFF7E2FF1F2C02D90020FFF7DDFF04F01F0000F1604000F564406D01EDB2057038BD00BF024A137843F0800313707047BD
:4010800078650040024A137803F07F031370704778650040014B1870704700BF88650040014B1878704700BF6865004008B50146014801F06BF808BD28650040024B18689A
:4010C00020F07F40704700BF4865004008B50146014801F05BF808BD08650040024A137843F01003137070477865004000F00300044B1A7802F0FC021A701A78104318708C
:40110000704700BF7865004008B501E0FFF7D6FFFFF7C6FF10F0080FF8D108BD10B50D4C2046FFF7C3FF2046FFF7D0FFFFF76CFF094A137843F010031370FFF769FFFFF790
:40114000CDFF0020FFF7D2FFFFF7DEFF0320FFF7A1FF10BD1FA107009865004008B5054B1B7823B9FFF7DAFF0122024B1A70FFF781FF08BD4C81FF1F014B1B689864704772
:4011800008ED00E04001C0B2014B1870704700BF02E400E00422014B1A60704700E100E00422014B1A60704780E100E010B50446FFF7F6FF2046FFF7DFFF0720FFF7E2FF1D
:4011C000FFF7E8FF10BD00BF014B1B681864704708ED00E04001C0B2014B1870704700BF00E400E00122014B1A60704700E100E00122014B1A60704780E100E010B504469D
:40120000FFF7F6FF2046FFF7DFFF0720FFF7E2FFFFF7E8FF10BD00BF024B187800F00100704700BF01510040024A137843F080031370704775650040024A137803F07F031F
:401240001370704775650040014B1870704700BF86650040014B1878704700BF6665004008B50146014800F091FF08BD24650040024B186820F07F40704700BF44650040F2
:4012800008B50146014800F081FF08BD04650040024A137843F01003137070477565004000F00300044B1A7802F0FC021A701A7810431870704700BF7565004008B501E0A9
:4012C000FFF7D6FFFFF7C6FF10F0080FF8D108BD10B50D4C2046FFF7C3FF2046FFF7D0FFFFF792FE094A137843F010031370FFF78FFEFFF7CDFF0020FFF7D2FFFFF7DEFF30
:401300000320FFF7A1FF10BD1FA107009665004008B5054B1B7823B9FFF7DAFF0122024B1A70FFF781FF08BD4D81FF1F024B1878C0F34000704700BF01510040014B1B6812
:401340005864704708ED00E04001C0B2014B1870704700BF01E400E00222014B1A60704700E100E00222014B1A60704780E100E010B50446FFF7F6FF2046FFF7DFFF0720C4
:40138000FFF7E2FFFFF7E8FF10BD00BF024A137843F080031370704771640040024A137803F07F031370704771640040014B1870704700BF81640040014B1878704700BFB5
:4013C0006164004008B50146014800F0DFFE08BD20640040024B186820F07F40704700BF4064004008B50146014800F0CFFE08BD00640040024A137843F010031370704785
:401400007164004000F00300044B1A7802F0FC021A701A7810431870704700BF7164004008B501E0FFF7D6FFFFF7C6FF10F0080FF8D108BD10B50D4C2046FFF7C3FF2046E6
:40144000FFF7D0FFFFF7E0FD094A137843F010031370FFF7DDFDFFF7CDFF0020FFF7D2FFFFF7DEFF0320FFF7A1FF10BD1FA107009164004008B5054B1B7823B9FFF7DAFF14
:401480000122024B1A70FFF781FF08BD4E81FF1F024B1878C0F3C000704700BF01510040014B1B681865704708ED00E04001C0B2014B1870704700BF04E400E01022014B97
:4014C0001A60704700E100E01022014B1A60704780E100E010B50446FFF7F6FF2046FFF7DFFF0720FFF7E2FFFFF7E8FF10BD00BF024A137843F08003137070477264004092
:40150000024A137803F07F031370704772640040014B1870704700BF85640040014B1878704700BF6564004008B50146014800F02DFE08BD24640040024B186820F07F40B0
:40154000704700BF4464004008B50146014800F01DFE08BD04640040024A137843F01003137070477264004000F00300044B1A7802F0FC021A701A7810431870704700BFAA
:401580007264004008B501E0FFF7D6FFFFF7C6FF10F0080FF8D108BD10B50D4C2046FFF7C3FF2046FFF7D0FFFFF72EFD094A137843F010031370FFF72BFDFFF7CDFF00201D
:4015C000FFF7D2FFFFF7DEFF0320FFF7A1FF10BD1FA107009564004008B5054B1B7823B9FFF7DAFF0122024B1A70FFF781FF08BD4F81FF1F024B1878C0F38000704700BFD7
:4016000001510040014B1B68D864704708ED00E04001C0B2014B1870704700BF03E400E00822014B1A60704700E100E00822014B1A60704780E100E010B50446FFF7F6FF73
:401640002046FFF7DFFF0720FFF7E2FFFFF7E8FF10BD00BF024A137843F080031370704777650040014B1870704700BF07650040014B1870704700BF47650040014B1870E6
:40168000704700BF27650040014B1870704700BF37650040014B1870704700BF87650040014B1878704700BF67650040014B1878704700BF5765004008B501E0FFF7F6FF17
:4016C000FFF7EEFF10F0100FF8D108BD10B5134A137803F0C00343F009031370104C237843F001032370FF20FFF7BCFFFF20FFF7BFFF0020FFF7C2FF0020FFF7C5FF002000
:40170000FFF7C8FFFFF780FC237843F010032370FFF77EFCFFF7D0FF10BD00BF776500409765004008B5054B1B7823B9FFF7CEFF0122024B1A70FFF78DFF08BD5081FF1F7E
:40174000024A137843F080031370704778640040014B1870704700BF0A640040014B1870704700BF4A640040014B1870704700BF2A640040014B1870704700BF3A64004016
:40178000014B1870704700BF8A640040014B1878704700BF6A640040014B1878704700BF5A64004008B501E0FFF7F6FFFFF7EEFF10F0100FF8D108BD10B5134A137803F048
:4017C000C00343F009031370104C237843F001032370FF20FFF7BCFFFF20FFF7BFFF0020FFF7C2FF0020FFF7C5FF0020FFF7C8FFFFF70AFC237843F010032370FFF708FC08
:40180000FFF7D0FF10BD00BF786400409A64004008B5054B1B7823B9FFF7CEFF0122024B1A70FFF78DFF08BD5181FF1F024A137843F080031370704777640040014B1870D7
:40184000704700BF07640040014B1870704700BF47640040014B1870704700BF27640040014B1870704700BF37640040014B1870704700BF87640040014B1878704700BF11
:4018800067640040014B1878704700BF5764004008B501E0FFF7F6FFFFF7EEFF10F0100FF8D108BD10B5134A137803F0C00343F009031370104C237843F001032370FF20B2
:4018C000FFF7BCFFFF20FFF7BFFF0020FFF7C2FF0020FFF7C5FF0020FFF7C8FFFFF794FB237843F010032370FFF792FBFFF7D0FF10BD00BF776400409764004008B5054BA6
:401900001B7823B9FFF7CEFF0122024B1A70FFF78DFF08BD5281FF1F38B50222114B1A7081220E3B1A70082202331A700F2511331D70002401331C704FF400420A4B1A60B0
:4019400028460721FFF77EFB28460849FFF766FB1022074B1A70074B1C70074B1C70074B1C7038BDD649004080E100E0CD1900007B81FF1F8281FF1F8881FF1F8181FF1FA7
:4019800008B5FFF741FB064A137843F0040313701032137843F004031370FFF739FB08BDA543004008B5074B1B7823B9FFF7B4FF0122044B1A70FFF7E3FF4FF40042024B32
:4019C0001A6008BD5381FF1F00E100E038B5A44B1C78E4B2A34B1B7813F0400F00F0378114F0010F00F01B819E4B1B78453B052B00F21281DFE813F00600820010011001AF
:401A00000600DE0004F0DF0504F00A04082C42D1944B1B78DBB2452B35D1934B1B7813F0FF0F10D0914B1B681B78DBB2904A137004228B4B1A7001228E4B1A704622894BA6
:401A40001A702C46EBE08C4B1B7813F0020F0DD08A4A137843F00A0313706022814B1A704FF40042864B1A602C46D8E0854A137843F0100313701022834B1A700422023B40
:401A80001A702C46CBE00022754B1A704A22754B1A702C46C3E00A2C2BD1784A137843F0A0031370744B1B7813F0020F14D06D4B1B7813F0080F01D0092300E00A236F4AFE
:401AC00011780B4313706022664B1A704FF400426B4B1A602C46A2E06A4A137843F0100313701022684B1A700422023B1A702C4695E00020FFF790FA2C4690E014F0020F44
:401B000035D15C4B1B78584A1278DBB2934210D2584A1378DBB255490968CB5CDBB254490B7004214E4B197013780133DBB2137075E0514B1B7813F0020F0CD04F4A1378B2
:401B400043F00A0313706022464B1A704FF400424B4B1A6063E04B4A137843F0100313701022494B1A700422023B1A7057E0424B1B7813F0020F0CD0404A137843F09A03DB
:401B800013706022374B1A704FF400423C4B1A6045E03C4A137843F01003137010223A4B1A700422023B1A70344A137843F09003137034E0354A1378DBB2354908682C4901
:401BC0000978C9B2C15413780133DBB213701378304A1278DBB2934203D21022204B1A701DE0254B1B7813F0020F0CD0234A137843F00903137060221A4B1A704FF4004278
:401C00001F4B1A600BE01F4A137843F0100313700022134B1A7002E00020FFF7FDF914F0200F1CD00F4B1B7813F0080F01D0012300E00223114A11780B431370114A137865
:401C400003F0EF0313701022064B1A7038BD054B1B7813F0100F02D11022024B1A7038BDD74900407B81FF1F8981FF1F7C81FF1FD84900408181FF1F8A81FF1F8281FF1F9C
:401C800080E100E0D6490040D94900408881FF1F8481FF1F8081FF1F1A4B1B78DBB2102B29D1194B1B7813F0080F26D14FF40042164B1A604000C0B229B140F0010049226F
:401CC000104B1A7002E045220E4B1A70104B1870012201331A700F4B1B7813F0010FFAD00C4B1B7803F00A030A2B08D11022054B1A70032070470220704701207047002096
:401D0000704700BF7B81FF1FD949004080E100E0D8490040D7490040164B1B7813F0040F23D04000C0B229B140F001004922124B1A7002E04522104B1A70104B187012225E
:401D400001331A700422023B1A700D4B1B7813F0010FFAD00A4B1B7803F00A030A2B06D11022054B1A7003207047022070470020704700BFD94900407B81FF1FD8490040CA
:401D8000D74900400A4B1B7813F0040F0ED01023074A13700421023A1170064A1370064B1B7813F0210FFAD00020704702207047D94900407B81FF1FD7490040114B1B78CF
:401DC00013F0040F1BD0104B18700422013B1A7046220E4B1A700E4B1B7813F0010FFAD00B4B1B7813F0020F04D16022074B1A70002070476022054B1A70032070470220A0
:401E0000704700BFD9490040D84900407B81FF1FD7490040114B1B7813F0040F1BD0104B1B78DBB2492B05D100220E4B1A704A220B4B1A700B4B1B7813F0010FFAD00A4BCE
:401E40001B78DBB218B11021064A117004E06021034A117000E0002318467047D94900407B81FF1FD7490040D849004008B500F05FF8A0F5004000B208BD00BF08B50028FB
:401E800003DB80B280F4004002E0A0F5004080B200F048F808BD00BF024B187800F00F00704700BF6F640040014B1870704700BF8F64004008B50F20FFF7F6FFFFF7ECFF27
:401EC000FFF7A2F8034A137843F010031370FFF79FF808BD9F64004008B500F07BF84FF4004000F01FF8044B1B7813B90122024B1A70FFF7DFFF08BD5481FF1F024A137867
:401F000043F08003137070477C640040014B1870704700BF8E640040014B1878704700BF6E640040014B1880704700BF1A680040024B1B78024B188880B270470D6400402E
:401F40009A680040014B188880B270479A680040014B1880704700BF5A680040014B1880704700BF7A68004008B501E0FFF7EAFFFFF7D2FF10F0400FF8D108BD08B5134BF4
:401F80001A7802F0F8021A701A7802F0FC021A70FFF7EAFF4FF40040FFF7DAFF4FF40040FFF7C0FF0020FFF7B1FFFFF7B5FF4FF40040FFF7D3FFFFF727F8054A137843F0C7
:401FC00010031370FFF724F808BD00BF7C6400409E64004008B5054B1B7823B9FFF7CEFF0122024B1A70FFF789FF08BD5581FF1F08B500F05FF8A0F5004000B208BD00BFD4
:4020000008B5002803DB80B280F4004002E0A0F5004080B200F048F808BD00BF024B187800F00F00704700BF6A650040014B1870704700BF8A65004008B50F20FFF7F6FFA9
:40204000FFF7ECFFFEF7E0FF034A137843F010031370FEF7DDFF08BD9A65004008B500F07BF84FF4004000F01FF8044B1B7813B90122024B1A70FFF7DFFF08BD5681FF1F55
:40208000024A137843F08003137070477B650040014B1870704700BF89640040014B1878704700BF69640040014B1880704700BF10680040024B1B78024B188880B270479B
:4020C0000864004090680040014B188880B2704790680040014B1880704700BF50680040014B1880704700BF7068004008B501E0FFF7EAFFFFF7D2FF10F0400FF8D108BD0A
:4021000008B5134B1A7802F0F8021A701A7802F0FC021A70FFF7EAFF4FF40040FFF7DAFF4FF40040FFF7C0FF0020FFF7B1FFFFF7B5FF4FF40040FFF7D3FFFEF765FF054AA4
:40214000137843F010031370FEF762FF08BD00BF7B6500409964004008B5054B1B7823B9FFF7CEFF0122024B1A70FFF789FF08BD5781FF1F044A137803F0FD03400000F066
:40218000020018431070704720510040CBB20370C1F307234370C1F307418170704700BF00F002B8000000002DE9F84F5442144323F00049DFF878C149EAD4746445174615
:4021C0009E4606460D4641D84442044321F0004B4BEAD47464458A4638D803F1404404F58014144349D09C1704F0020444EAD1745BEA000132D059EA070138D04C49894581
:4022000048D04B498B4532D0C9EB0B094FEA2959B9F13C0F3ADCBEF1000F64DB3046294600F020FD00F038FA00F09AF8012C57D0022C48D084B138A3D3E9002300F034FA58
:4022400037A3D3E9002300F02FFA05E01046194632462B4600F02AFABDE8F88F032CCAD8DFE804F01212020F32483349F4E7BAF1000F304825DB3149EEE7BDE8F84F00F0DA
:402280006FB82C482E49E7E72946E5E726A1D1E90001CBE7CB452CD0032CB2D801A151F824F000BFB5220000BB220000692200008322000000200146CEE700204FF00041AC
:4022C000CAE72049C8E714A3D3E9002300F0ECF902460B4612A1D1E9000100F0E5F9BBE701F10041B8E719F13C0F97DA002000219CE7032CBBD8DFE804F0020B08050D48EB
:402300001149A9E711481249A6E710481149A3E708481149A0E700BF075C143326A6A13C182D4454FB210940182D4454FB21F93F0000F07F182D4454FB210940FB21F93F7B
:40234000FB2109C0FB21F9BFFB21E93FD221337F7CD902C07CD90240FB21E9BFAFF300802DE9F84FBE4B21F000469E420D468A4604460FDDBB4B9E4200F3B08000F0AB800D
:40238000B94BBA49BA4CBAF1000FC8BF19462046BDE8F88FB74B9E4200F3BA80A3F1DE739E4240F3A5804FF0FF3B22462B462046294600F02DFB02460B468046894600F055
:4023C00027FB8FA3D3E9002306460F4600F020FB8DA3D3E9002300F069F932463B4600F017FB8BA3D3E9002300F060F932463B4600F00EFB88A3D3E9002300F057F9324698
:402400003B4600F005FB86A3D3E9002300F04EF932463B4600F0FCFA83A3D3E9002300F045F942464B4600F0F3FA81A3D3E90023804689463046394600F0EAFA7EA3D3E9A6
:40244000002300F031F932463B4600F0E1FA7CA3D3E9002300F028F932463B4600F0D8FA79A3D3E9002300F01FF932463B4600F0CFFA77A3D3E9002300F016F932463B46EB
:4024800000F0C6FABBF1FF3F02460B4667D04046494600F00BF922462B4600F0B9FA764E764B4FEACB0B5E449B44DBE9002300F0FBF822462B4600F0F7F802460B46D6E93E
:4024C000000100F0F1F8BAF1000F0446BFF65FAF01F100415BE700283FF452AF2246204629462B4600F0E2F804462046BDE8F88F59A3D3E9002300F0D9F80022604B00F0BD
:4025000017FD00283FF44FAF29462046BDE8F88F00F0C2F85B4B04469E420D462FDCA3F550239E4254DC02460B4600F0BFF80022534B00F0B9F8002206460F462046294601
:402540004FF0804300F0B2F802460B463046394600F088FB4FF0000B04460D4625E74046494600F0A3F822462B4600F051FA02460B462046294600F097F8044607E7424B65
:402580009E421ADC0022414B00F08EF8002206460F46204629463D4B00F03AFA0022384B00F084F802460B463046394600F05AFB4FF0020B04460D46F7E602460B4600207A
:4025C000334900F04FFB4FF0030B04460D46ECE600222B4B00F068F8002206460F4620462946274B00F062F802460B463046394600F038FB4FF0010B04460D46D5E600BF1A
:4026000011DA22E33AAD903FEB0D76244B7BA93F513DD0A0660DB13F6E204CC5CD45B73FFF8300922449C23F0D5555555555D53F2F6C6A2C44B4A2BF9AFDDE522DDEAD3F18
:402640006D9A74AFF2B0B33F711623FEC671BC3FC4EB98999999C93F9C7500883CE4377EFFFF0F440000F07FFB21F93FFB21F9BF182D4454FFFFDB3FD8360000B836000061
:402680000000F03FFFFFF23FFF7F03400000F83F0000F0BFAFF3008021F00041704700BF81F0004102E000BF83F0004330B54FEA41044FEA430594EA050F08BF90EA020F5A
:4026C0001FBF54EA000C55EA020C7FEA645C7FEA655C00F0E2804FEA5454D4EB5555B8BF6D420CDD2C4480EA020281EA030382EA000083EA010180EA020281EA0303362DFB
:4027000088BF30BD11F0004F4FEA01314FF4801C4CEA113102D0404261EB410113F0004F4FEA03334CEA133302D0524263EB430394EA050F00F0A780A4F10104D5F1200E03
:402740000DDB02FA0EFC22FA05F2801841F1000103FA0EF2801843FA05F359410EE0A5F120050EF1200E012A03FA0EFC28BF4CF0020C43FA05F3C01851EBE37101F000451D
:4027800007D54FF0000EDCF1000C7EEB00006EEB0101B1F5801F1BD3B1F5001F0CD349085FEA30004FEA3C0C04F101044FEA445212F5800F80F09A80BCF1004F08BF5FEA3C
:4027C000500C50F1000041EB045141EA050130BD5FEA4C0C404141EB010111F4801FA4F10104E9D191F0000F04BF01460020B1FA81F308BF2033A3F10B03B3F120020CDA14
:402800000C3208DD02F1140CC2F10C0201FA0CF021FA02F10CE002F11402D8BFC2F1200C01FA02F120FA0CFCDCBF41EA0C019040E41AA2BF01EB0451294330BD6FEA040424
:402840001F3C1CDA0C340EDC04F11404C4F1200220FA04F001FA02F340EA030021FA04F345EA030130BDC4F10C04C4F1200220FA02F001FA04F340EA0300294630BD21FA5E
:4028800004F0294630BD94F0000F83F4801306BF81F480110134013D4EE77FEA645C18BF7FEA655C29D094EA050F08BF90EA020F05D054EA000C04BF1946104630BD91EAB2
:4028C000030F1EBF0021002030BD5FEA545C05D14000494128BF41F0004130BD14F580043CBF01F5801130BD01F0004545F0FE4141F470014FF0000030BD7FEA645C1ABF62
:40290000194610467FEA655C1CBF0B46024650EA013406BF52EA033591EA030F41F4002130BD00BF90F0000F04BF0021704730B54FF4806404F132044FF000054FF0000128
:4029400050E700BF90F0000F04BF0021704730B54FF4806404F1320410F0004548BF40424FF000013EE700BF42004FEAE2014FEA31014FEA02701FBF12F07F4393F07F4FA7
:4029800081F06051704792F0000F14BF93F07F4F704730B54FF4607401F0004521F0004120E700BF50EA010208BF704730B54FF000050AE050EA010208BF704730B511F019
:4029C000004502D5404261EB41014FF4806404F132045FEA915C3FF4DCAE4FF003025FEADC0C18BF03325FEADC0C18BF033202EBDC02C2F1200300FA03FC20FA02F001FA07
:402A000003FE40EA0E0021FA02F11444C1E600BF70B54FF0FF0C4CF4E06C1CEA11541DBF1CEA135594EA0C0F95EA0C0F00F0DEF82C4481EA030621EA4C5123EA4C5350EA76
:402A4000013518BF52EA033541F4801143F4801338D0A0FB02CE4FF00005E1FB02E506F00042E0FB03E54FF00006E1FB03569CF0000F18BF4EF0010EA4F1FF04B6F5007FD5
:402A800064F5407404D25FEA4E0E6D4146EB060642EAC62141EA55514FEAC52040EA5E504FEACE2EB4F1FD0C88BFBCF5E06F1ED8BEF1004F08BF5FEA500E50F1000041EBD0
:402AC000045170BD06F0004646EA010140EA020081EA0301B4EB5C04C2BFD4EB0C0541EA045170BD41F480114FF0000E013C00F3AB8014F1360FDEBF002001F0004170BD7A
:402B0000C4F10004203C35DA0C341BDC04F11404C4F1200500FA05F320FA04F001FA05F240EA020001F0004221F0004110EBD37021FA04F642EB06015EEA430E08BF20EABF
:402B4000D37070BDC4F10C04C4F1200500FA04F320FA05F001FA04F240EA020001F0004110EBD37041F100015EEA430E08BF20EAD37070BDC4F1200500FA05F24EEA020E99
:402B800020FA04F301FA05F243EA020321FA04F001F0004121FA04F220EA020000EBD3705EEA430E08BF20EAD37070BD94F0000F0FD101F00046400041EB010111F4801FBE
:402BC00008BF013CF7D041EA060195F0000F18BF704703F00046520043EB030313F4801F08BF013DF7D043EA0603704794EA0C0F0CEA135518BF95EA0C0F0CD050EA4106D3
:402C000018BF52EA4306D1D181EA030101F000414FF0000070BD50EA410606BF1046194652EA430619D094EA0C0F02D150EA013613D195EA0C0F05D152EA03361CBF104649
:402C400019460AD181EA030101F0004141F0FE4141F470014FF0000070BD41F0FE4141F4780170BD70B54FF0FF0C4CF4E06C1CEA11541DBF1CEA135594EA0C0F95EA0C0FC9
:402C800000F0A7F8A4EB050481EA030E52EA03354FEA013100F088804FEA03334FF0805545EA131343EA12634FEA022245EA111545EA10654FEA00260EF000419D4208BF86
:402CC000964244F1FD0404F5407402D25B084FEA3202B61A65EB03055B084FEA32024FF480104FF4002CB6EB020E75EB030E22BFB61A754640EA0C005B084FEA3202B6EB06
:402D0000020E75EB030E22BFB61A754640EA5C005B084FEA3202B6EB020E75EB030E22BFB61A754640EA9C005B084FEA3202B6EB020E75EB030E22BFB61A754640EADC0098
:402D400055EA060E18D04FEA051545EA16754FEA06164FEAC30343EA52734FEAC2025FEA1C1CC0D111F4801F0BD141EA00014FF000004FF0004CB6E711F4801F04BF0143F8
:402D80000020B4F1FD0C88BFBCF5E06F3FF6AFAEB5EB030C04BFB6EB020C5FEA500C50F1000041EB045170BD0EF0004E4EEA113114EB5C04C2BFD4EB0C0541EA045170BD94
:402DC00041F480114FF0000E013C90E645EA060E8DE60CEA135594EA0C0F08BF95EA0C0F3FF43BAF94EA0C0F0AD150EA01347FF434AF95EA0C0F7FF425AF104619462CE700
:402E000095EA0C0F06D152EA03353FF4FDAE1046194622E750EA410618BF52EA43067FF4C5AE50EA41047FF40DAF52EA43057FF4EBAE12E74FF0FF3C06E000BF4FF0010CAC
:402E400002E000BF4FF0010C4DF804CD4FEA410C7FEA6C5C4FEA430C18BF7FEA6C5C1BD001B050EA410C0CBF52EA430C91EA030F02BF90EA020F0020704710F1000F91EA54
:402E8000030F58BF994208BF90422CBFD8176FEAE37040F0010070474FEA410C7FEA6C5C02D150EA013C07D14FEA430C7FEA6C5CD6D152EA033CD3D05DF8040B704700BFD6
:402EC0008446104662468C461946634600E000BF01B5FFF7B7FF002848BF10F1000F01BD4DF808EDFFF7F4FF0CBF012000205DF808FB00BF4DF808EDFFF7EAFF34BF0120BF
:402F000000205DF808FB00BF4DF808EDFFF7E0FF94BF012000205DF808FB00BF4DF808EDFFF7CEFF94BF012000205DF808FB00BF4DF808EDFFF7C4FF34BF012000205DF87C
:402F400008FB00BF4FEA4102B2F1E04324BFB3F5001CDCF1FE5C0DD901F0004C4FEAC0024CEA5070B2F1004F40EB830008BF20F00100704711F0804F21D113F13872BCBF51
:402F800001F00040704741F480114FEA5252C2F11802C2F1200C10FA0CF320FA02F018BF40F001004FEAC1234FEAD32303FA0CFC40EA0C0023FA02F34FEA4303CCE77FEA89
:402FC000625307D150EA01331EBF4FF0FE4040F44000704701F0004040F0FE4040F40000704700BF80F0004002E000BF81F0004142001FBF5FEA410392EA030F7FEA226CD3
:403000007FEA236C6AD04FEA1262D2EB1363C1BFD218414048404140B8BF5B42192B88BF704710F0004F40F4000020F07F4018BF404211F0004F41F4000121F07F4118BF5B
:40304000494292EA030F3FD0A2F1010241FA03FC10EB0C00C3F1200301FA03F100F0004302D5494260EB4000B0F5000F13D3B0F1807F06D340084FEA310102F10102FE2A87
:4030800051D2B1F1004F40EBC25008BF20F0010040EA03007047490040EB000010F4000FA2F10102EDD1B0FA80FCACF1080CB2EB0C0200FA0CF0AABF00EBC250524218435B
:4030C000BCBFD0401843704792F0000F81F4000106BF80F400000132013BB5E74FEA41037FEA226C18BF7FEA236C21D092EA030F04D092F0000F08BF0846704790EA010F6B
:403100001CBF0020704712F07F4F04D1400028BF40F00040704712F100723CBF00F50000704700F0004343F0FE4040F4000070477FEA226216BF08467FEA236301464202B5
:4031400006BF5FEA412390EA010F40F4800070474FF0000304E000BF10F0004348BF40425FEA000C08BF704743F0964301464FF000001CE050EA010208BF70474FF00003D9
:403180000AE000BF50EA010208BF704711F0004302D5404261EB41015FEA010C02BF84460146002043F0B64308BFA3F18053A3F50003BCFA8CF2083AA3EBC25310DB01FA44
:4031C00002FC634400FA02FCC2F12002BCF1004F20FA02F243EB020008BF20F00100704702F1200201FA02FCC2F1200250EA4C0021FA02F243EB020008BF20EADC70704718
:403200004FF0FF0C1CEAD0521EBF1CEAD15392EA0C0F93EA0C0F6FD01A4480EA010C400218BF5FEA41211ED04FF0006343EA501043EA5111A0FB01310CF00040B1F5000FA4
:403240003EBF490041EAD3715B0040EA010062F17F02FD2A1DD8B3F1004F40EBC25008BF20F00100704790F0000F0CF0004C08BF49024CEA502040EA51207F3AC2BFD2F13D
:40328000FF0340EAC250704740F400004FF00003013A5DDC12F1190FDCBF00F000407047C2F10002410021FA02F1C2F1200200FA02FC5FEA310040F1000053EA4C0308BFB3
:4032C00020EADC70704792F0000F00F0004C02BF400010F4000F013AF9D040EA0C0093F0000F01F0004C02BF490011F4000F013BF9D041EA0C018FE70CEAD15392EA0C0F55
:4033000018BF93EA0C0F0AD030F0004C18BF31F0004CD8D180EA010000F00040704790F0000F17BF90F0004F084691F0000F91F0004F14D092EA0C0F01D142020FD193EAC9
:403340000C0F03D14B0218BF084608D180EA010000F0004040F0FE4040F40000704740F0FE4040F4400070474FF0FF0C1CEAD0521EBF1CEAD15392EA0C0F93EA0C0F69D0A5
:40338000A2EB030280EA010C49024FEA402037D04FF0805343EA111143EA10130CF000408B4238BF5B0042F17D024FF4000C8B4224BF5B1A40EA0C00B3EB510F24BFA3EB42
:4033C000510340EA5C00B3EB910F24BFA3EB910340EA9C00B3EBD10F24BFA3EBD10340EADC001B0118BF5FEA1C1CE0D1FD2A3FF650AF8B4240EBC25008BF20F00100704708
:403400000CF0004C4CEA50207F32C2BFD2F1FF0340EAC250704740F400004FF00003013A37E792F0000F00F0004C02BF400010F4000F013AF9D040EA0C0093F0000F01F047
:40344000004C02BF490011F4000F013BF9D041EA0C0195E70CEAD15392EA0C0F08D142027FF47DAF93EA0C0F7FF470AF084676E793EA0C0F04D14B023FF44CAF08466EE75C
:4034800030F0004C18BF31F0004CCAD130F000427FF45CAF31F000437FF43CAF5FE700BF4FF0FF3C06E000BF4FF0010C02E000BF4FF0010C4DF804CD4FEA40024FEA4103B4
:4034C0007FEA226C18BF7FEA236C11D001B052EA530C18BF90EA010F58BFB2EB030088BFC81738BF6FEAE17018BF40F0010070477FEA226C02D15FEA402C05D17FEA236CEE
:40350000E4D15FEA412CE1D05DF8040B704700BF844608466146FFE70FB5FFF7C9FF002848BF10F1000F0FBD4DF808EDFFF7F4FF0CBF012000205DF808FB00BF4DF808EDE3
:40354000FFF7EAFF34BF012000205DF808FB00BF4DF808EDFFF7E0FF94BF012000205DF808FB00BF4DF808EDFFF7D2FF94BF012000205DF808FB00BF4DF808EDFFF7C8FFC4
:4035800034BF012000205DF808FB00BF4FEA4002B2F1FE4F0FD34FF09E03B3EB12620DD94FEA002343F0004310F0004F23FA02F018BF404270474FF00000704712F1610FF2
:4035C00001D1420205D110F0004008BF6FF0004070474FF0000070470E4B70B51E460E4C0025E41AA410A54204D056F8253098470135F8E700F080F8084B094C1E46E41AB5
:40360000A4100025A54204D056F8253098470135F8E770BD0437000004370000043700000C37000010B5431E0A44914204D011F8014B03F8014FF8E710BD03460244934273
:4036400002D003F8011BFAE7704700000000000000000000F00000003200000058020000C05D0000E8800000C8AF00001FA107000000C0400000C844C84900401900305193
:403680000040400000000140001000140140000800400140000A004C01400002105001401000000060520040900F0048060000500140980F00481000E2652F227F2B7A3CAA
:4036C000075C143326A6813CBDCBF07A8807703C075C143326A6913C4FBB610567ACDD3F182D4454FB21E93F9BF681D20B73EF3F182D4454FB21F93FF8B500BFF8BC08BCC2
:403700009E4670474D000000FD0C0000F8B500BFF8BC08BC9E46704729000000303700000881FF1F080000008000000000000000000000000000000000000000000000005A
:403740000000000000000000000000000000000000000000000000000000000000000000000000000000000000000000000000000000000000000000000000000000000049
:403780000000000000000000000000000000000000000000000000000000000000000000000000000000000000000000000000000000000000000000000000000000000009
:4037C00000000000000000000000000000000000000000000000000000000000000000000000000000000000000000000000000000000000000000000000000000000000C9
:403800000000000000000000000000000000000000000000000000000000000000000000000000000000000000000000000000000000000000000000000000000000000088
:020000040003F7
:0200000480007A
:40000000014500400352004007640040046500405A00014030010140550201403403014065040140470501405106014037070140610801403E090140540A0140480B014081
:40004000590C0140430D0140450E0140310F01406014014038150140491601402D1701405E18014040190140541A0140421B0140094001400E4101401242014009430140F2
:400080000A45014006460140074701400E48014014490140114C01400B4D014006500140035101407E0208A009307C40810F850F870F896F8A0F8E6F8F0F860F870F880F37
:4000C0008A0F010C03030503070C0D050F0A190F1D0A1F052D07350F4032420149FF4AFF4BFF4F01501859045A045D095F016040624064406540668068806A806C806E803D
:40010000837884048528860287508A088D288E0F8F509303970199189A0D9B609F02A20FA402A501A604A704A918AB60AF03B008B201B378B403B504B604B703BE45C0320C
:40014000C201C9FFCAFFCBFFCD83CE03CF01D018D293D403D604D804D904DA04DB04DC99DD99DF01E040E240E440E540E680E880EA80EC80EE800508060807020E081680C4
:4001800017081C501DC81E092004211022102680272828022D082E802F0432503690370A390A3B803E45401041804208458846085C405F2567406C016E6076807702874034
:4001C0008D08C0E0C240C430CA78CCFCCEDBD07ED6F0D880E0400006040206040A180C0112701402160418061E4820282A78340736783AB04032420145EC4702481349FF8B
:400200004AFF4BFF4D834E034F015018529358045A045B045C095D995F016040624064406540668068806A806C806E808160830884018542860287098B048C028E018F78F9
:400240009210938095019604970299589B209D609E089F10A101A302A401A501A602A702AC01AD38AE02B008B104B210B303B404B580B603B778BA80BB08D804D904DF018D
:400280000004018004020544070409400A500D020E2A1212171119891A581E0E202421042242280229093256390A3A103B80458846084F0556086F0574828490894090024A
:4002C00091209220950A9684978D980299409E08A188A210B002B404C0F5C2FDC455CA0BCC0FCE0FD070E008070F090B0A0D0B040D080F01110C13021A081C041D0C1E02EC
:400300001F01220F240226042D072E0F3008310F3203340436013E514012420649FF4AFF4BFF4F015018580459045A045C095D095F016040624064406540668068806A804E
:400340006C806E80800A81068318860388408E0F9030910A93149506960697189A0D9C109E209F01A030A410A620A71EAD0AAF14B070B20FB31EB501B701BA0BC052C20628
:40038000C9FFCAFFCBFFCD83CE03CF01D018D403D604D804D904DA04DB04DC99DD99DF01E040E240E440E540E680E880EA80EC80EE80001004020564088009600D020E2AC3
:4003C0000F02108312201705181119201A4A1B201D061F06210122022620272228022F22324233303480370539283B803F0240014120452049204E055D015E405F24644068
:4004000080408440900291289280938095029708988299409B059D049F10A082A215A502AE10B180B340B640C0F2C2F3C43DCA58CCD9CE8ED02CD234D6F0D880EA06EE04CA
:400440000A010D01130116011F0223032F03300131034052420645EC4620480B49FF4AFF4BFF4D834E034F015018580459045A045C905D095F0160406240644065406680A8
:4004800068806A806C806E808A068F01910897029E049F0CA602AA01AD02B004B104B301B402B508B601B702BE10C030C106C5D2C605C701C817C9FFCAFFCBFFCDA0CF04C6
:4004C000D018D280D407D804D904DA04DB04DF01E040E2C0E440E540E6C0E8C0EAC0ECC0EEC00010041009800C08102819401A041B021C40201021022250278029402C81C9
:400500003028319237823B403D8040104520482049114D014E054F0450085180552059015AA473408B02920A94409501970498019B02A080A140A520AD01C042C221C40614
:40054000CA98CC9BCE18D022D234D60FE680EC02001001020202031C09060B68101612081418160218181A041E1E21012378280E29022B342D562E0131783201341E35073C
:400580003B324036410249FF4AFF4BFF4DA04F0150185280580459045A045B045C905F016040628064406540668068406A806C406D206E8084018501900896029A029B0322
:4005C000A001A20CA401B004B208B302B401B602B701B820BE14BF40C036C102C532C6C4C70EC81FC9FFCAFFCBFFCDAFCE07CF01D018D40FD804D904DA04DB04DF05E0405F
:40060000E280E440E540E680E840EA80EC40ED20EE80031005020A500B080C010E240F0210A01404175019241A411B101D101E142104230225112F8A303039083D224008C7
:4006400043044408472448A049204F20504051085210581059845B0261086210774078049308961098039B209D129F10A301A610AD04AE20B280B320C014C2FEC4CCCAB050
:40068000CC04CEA2D066D224D60FD806DE02013807060B010C010F3811041602172019381F012108220523102508260227102B402D203004310233783402350436013701F9
:4006C0003E104030410245D246014705481749FF4AFF4BFF4DA04F0450185407580459045A045B045F01604062C06440654066C068C06AC06CC06EC0809481948260836071
:400700008573860F889E89308A608BC990FD919E9202936094CF95FD9630970299CF9B309C309EC99F0FA873B2FFB7FFBE04BF40D804D904DF0100400512060407200A10E6
:400740000B200C010D090E200F0210A01710184019801A041F08218022112320270129022A042B092C202E08308031083201331036A1370839023A803B283C083D013F10F3
:400780004218482049015080530459815A24898091039310950498029B089D129F11A004A281A301A508AE04B310B621B740C071C2B4C44CCA0FCCFFCEEFD006D60FE81013
:4007C000EA04EC80EE040301050E060909080A100D0113101402150E1604180719021B041C051E021F0E210223042403270828062B012C062E013008320734103501371E76
:400800003F105280580459045B045F01810F84028E019010920893109408950C96109703980899079A149C089E10A002A103A30CA402A90AAB05AD05AF0AB018B10FB20439
:40084000B402B510B601B820BA02BE10C032C101C9FFCAFFCBFFCDA0CF01D018D804D904DA04DF01E040E280E440E540E680E840EA80EC40ED20EE800008021003020504A7
:40088000060409200A920C100E020F1010A01404161118041A921B011D041E441F08212125802680270429122B012C102D052F0831083201331036A0370939023C0A3E4019
:4008C0003F1040044180430474018302840685018E04940495049A019B089F44A0A4A580A680B004B621B708C065C2EFC4ECCAEDCCF7CEF1D00EE204E622EA20EC400203D0
:400900001B011C021F0222082501260428083002310132043302340836013E113F0140324101453246C4470E481F49FF4AFF4BFF4DAF4E074F015018540F580459045A0492
:400940005B045F056040628064406540668068406A806C406D206E80810182028414880C8C02930198019C029F01A001A418AC18B001B101B202B41CB822BE04BF01D40FD8
:40098000D804D904DB04DF010240051106220A010C200E0110A0120814401504174019081A451C081D111E2822092780290A2A0130E03210350136803E014004418042025D
:4009C000430448A0510852505A665D025E285F80610862107A04C0F8C2C1C4BECA02CC9CCE80D00ED6FFD806DE04010602030502070411061A0D1D011E0F210223042A061D
:400A00002C0A300F310735073A023B334032420149FF4AFF4BFF4F015018580459045A045C995D095F016040624064406540668068806A806C806E808101820F834087038C
:400A4000890C8A0D8B308E0F8F03911493289608970199149B289C049E029F02A33CA402A604AD0CAF30B008B201B33CB403B540B604B703BE45C036C201C9FFCAFFCBFF21
:400A8000CD83CE03CF01D018D293D804D904DA04DB04DC99DD99DF01E040E240E440E540E680E880EA80EC80EE8001020510074209A00F22100A170819031B021D981E405A
:400AC0001F40212222202680272829012F42318236A03709380A3E983F024188432045884F206C0F6E106F0176807742860887028B0196409F20A330A588AD40C0D8C2A3BE
:400B0000C423CA91CCF9CEF3D05ED220E088E204E401E620E804EA01EC084036420145EC4620480B49FF4AFF4BFF4D834E034F015018540356045A045B045D995F0160400E
:400B4000624064406540668068806A806C806E80820889018E0D910892029705A30AA604AA01B002B102B201B304B404B508B608B701BE10C040C102C5D2C605C701C8172A
:400B8000C9FFCAFFCBFFCDA0CF04D018D280D407D804D904DA04DB04DF01E040E2C0E440E540E6C0E8C0EAC0ECC0EEC00040038009021028186019401A04201022512B808F
:400BC0003028312032013810404041204588482049014D044F2150085380573059015AA45D045E405F216740710287408C10C009C208C406CA01CC03CE04D055D220D6FFF5
:400C0000D880E208EA020118020F0360040405010602070409280A080B500E0F0F03130317011A0D1F0223782402260429182B602D282F503008320133783403350436044A
:400C400037033E454032420449FF4AFF4BFF4F015018529354035604580459045A045B045C995D995F016040624064406540668068806A806C806E8086018F0390019102BB
:400C80009401A002A402B101B202B302B401B808BE10BF04C036C205C9FFCAFFCBFFCD83CE03CF01D018D804D904DA04DD09DF01E040E240E440E540E680E880EA80EC80B9
:400CC000EE800108040406040741080809020E0810A01708182019181C021D081E481F8021062340268027282C402F8A31023680370938803C043D223E8041084440450876
:400D0000460448095E405F2567806F0A76807741874090809204980B9D829F14A0A0A111A301A610A78AAE01C0F4C24CC42CCAB0CCD1CEF8D0E2D20CD6F0D880E440E80889
:400D4000EA0200020201070408010A020B080D081302240126022B082C012E022F01300331043301350237083A023F404036420545EC4702481349FF4AFF4BFF4D834E03BD
:400D80004F015018540F580459045A045B045D095F016040624064406540668068806A806C806E808120821E8340840E855C87208E01931194189604981899369A029C1061
:400DC0009E029F01A160A501A97CAC16AD6AAE08AF10B21EB30EB401B501B770B908BF10D280D804D904DB04DF0100200102050607110E240F021222140119021E201F24AE
:400E00002020210422622715280A2C012D022F2432023751382039083B403E043F02410848094B0550085204580159145A8077409020920493409705980B99109D029E0428
:400E40009F14A001A108A301A408A610A804B184C0BAC2E0C485CAFCCCB1CECED002D20CD60FE008E204E401E620EA01EC083002322035283B2087108C40CCF0CE10E640BE
:400E8000000203080444321033013580870894409D28A402A620C0F0CC70E4403E10534057048304850890049D289F01A001A402A620A980AA10CE20D460E630EA20EE2085
:400EC0008B409004961097809D209F01A001A402A62009400B200C200F808340871089408C20C20FE60C8B1096409C08A808AA40E00408080B040E40932096409C08C20EAE
:400F0000220184028520900496109D20A001A402A620AF01C840E210E640EA401220164074087B028220830286408809A001A804AA10AE21C430DC80DE20E010E220E480EC
:400F4000E820EA801108132016105F086140631067207B107F408F089330AF14C40ED603D803DE03E4028104831087408A1097809A10A104A710AB20AD40E604100111017C
:400F80001A011B011C011D0100FF01AB03C000000A0C000003000000010100000000000001010101010101000F0F0000000000000300000C0F000F000000000040000000A4
:400FC00000000000C000000000F0F000F0000000F0F2020000000000000000000000000000000000000000000000000000000000000000000000000000000000000000007D
:4010000000000000000000000000000000000000000000000000000000000000000000000000000000000000000000000000000000000000000000000000000000000000B0
:401040000000000000000000000000000000000000000000000000000000000000000000000000000000000000000000000000000000000000000000000000000000000070
:401080000000000000000000000000000000000000000000000000000000000000000000000000000000000000000000000000000000000000000000000000000000000030
:4010C00000000000000000000000000000000000000000000000000000000000000000000000000000000000000000000000000000000000000000000000000000000000F0
:0200000490006A
:0400000000004005B7
:0200000490105A
:04000000BC90ACAF55
:0200000490303A
:020000003C269C
:0200000490402A
:4000000000000000000000000000000000000000000000000000000000000000000000000000000000000000000000000000000000000000000000000000000000000000C0
:400040000000000000000000000000000000000000000000000000000000000000000000000000000000000000000000000000000000000000000000000000000000000080
:400080000000000000000000000000000000000000000000000000000000000000000000000000000000000000000000000000000000000000000000000000000000000040
:4000C0000000000000000000000000000000000000000000000000000000000000000000000000000000000000000000000000000000000000000000000000000000000000
:0200000490501A
:0C00000000012E16106900012E314C8FFB
:00000001FF