:400000000080002011000000DD080000DD08000008B5044B1A6803F53F5302331A6000F077FC00BFFA46004010B5054C237833B9044B13B10448AFF300800123237010BD3A
:40004000A081FF1F000000007C3C0000084B10B51BB108480849AFF300800848036803B910BD074B002BFBD0BDE81040184700BF000000007C3C0000A481FF1F0881FF1FA1
:40008000000000002DE9F04FB7B062B60020012100F046FF00F07CFF0028FBD0524801F03BF800F0E1F800F02DFA35A8002100F031FA34A8012100F02DFA00F065F930A8A5
:4000C000012100F07FF92CA8022100F07BF928A8032100F077F924A8042100F073F900F0A5FB1EA800F0AEFB30A800F073F92CA800F070F928A800F06DF924A800F06AF9E5
:400100009DF8B1303BB1BDF8BC1021B135A809B200F004FA03E035A8002100F0FFF99DF8C1303BB1BDF8CC1021B134A809B200F0F5F903E034A8002100F0F0F91EA800F002
:4001400089FBBDF8CC6036B9BDF8BC301BB9BDF9AC30002BC8D000210E910FA83C2203F07AF9224B1B680B93BDF8BC50BDF8AC40BDF89C100C91DDF878B0DDF87CA0209892
:400180001B4902F0BBFF0D90DDF88490DDF88880239F36B22DB2009524B20194BDF930300293584603F0FAF80390504603F0F6F804900D9803F0F2F80590484603F0EEF8F9
:4001C0000690404603F0EAF80790384603F0E6F808900EA807490B9A334603F045F90EA800F09AFF80E700BF803C0000F881FF1F0000C842883C0000164A13680133136033
:40020000154A138801339BB21380B3F57A7F20D30022114B1A80114A138801339BB213803B2B16D900220D4B1A800D4A138801339BB213803B2B0CD90022094B1A80094ADD
:40024000138801339BB21380172B02D90022054B1A807047F881FF1FF481FF1FF681FF1FFC81FF1FFE81FF1F08B5024801F0CAFF08BD00BFF901000008B501F0EFFF0D4BC5
:40028000187010F0020F07D001F0F6FFC0F5F42000F21F10074B5860064B1B7813F0010F02D00022034B5A6001F0CAFF024801F0EBFF08BDBC81FF1F1FA1070008B501F08D
:4002C000F3FE0D4B187210F0020F07D001F0FAFEC0F5F42000F21F10074BD860064B1B7A13F0010F02D00022034BDA6001F0CEFE024801F0EFFE08BDBC81FF1F1FA10700A5
:4003000008B502F00FF90D4B187410F0020F07D002F016F9C0F5F42000F21F10074B5861064B1B7C13F0010F02D00022034B5A6102F0EAF8024802F00BF908BDBC81FF1F18
:400340001FA1070008B502F03BF80D4B187610F0020F07D002F042F8C0F5F42000F21F10074BD861064B1B7E13F0010F02D00022034BDA6102F016F8024802F037F808BDBB
:40038000BC81FF1F1FA1070008B50A4801F0F4FF01F0C2FF084801F00DFF01F0E3FE074802F04EF902F01CF9054802F097F802F065F808BD79020000BD02000001030000A8
:4003C00045030000017000234370838143608360704700BF70B504460378012B0CD0022B07D0032B02D1454A167C07E0434A167E04E0424A167A01E0404A1678012B0CD04D
:40040000022B07D0032B02D13C4A556907E03B4AD56904E0394AD56801E0384A5568012B02D101F0FDFE0BE0022B02D101F082FF06E0032B02D102F0E1F801E002F02CF814
:4004400028B12F4B1B6863600123637007E02C4B1B6862689B1A322B01D9002363706378002B4AD0002E48D0A5F5BB43403B45F20822934200D9A568C5F50043E83313F5AA
:40048000167F05DDB3F5167F02DA0023A38111E048F2E8039D4202D942F6E06201E042F22832A5F50043E83BC3EB03131B0193FBF2F3A381B4F90C3013F1F00F02DA4FF628
:4004C0001073A381B4F90C30F02B01DDF023A381A5602378012B01D101F01EFF2378022B01D101F03FFE2378032B01D102F078F82378042B01D101F0C1FF70BDBC81FF1FF6
:40050000F881FF1F08B502F011F902F085F902F0F9F908BD017000234380704710B50C460378E3B900290ADA81EAE170A0EBE170C0B202F0A7F8002002F0AAF810BD0029C4
:4005400006DD002002F09EF8E0B202F0A1F810BD002002F097F8002002F09AF810BD012B1CD100290ADA81EAE170A0EBE170C0B202F0FEF8002002F001F910BD002906DDF7
:40058000002002F0F5F8E0B202F0F8F810BD002002F0EEF8002002F0F1F810BD022B1BD100290ADA81EAE170A0EBE170C0B202F055F9002002F058F910BD002906DD00206F
:4005C00002F04CF9E0B202F04FF910BD002002F045F9002002F048F910BD00BF6822014B1A7070471682FF1F00B583B0054B1B78009018461A210222032300F0D1F803B085
:400600005DF804FB1682FF1F00B583B0054B1B78009018461B210422022300F0C1F803B05DF804FB1682FF1F00B583B0054B1B78009018461C210422022300F0B1F803B07D
:400640005DF804FB1682FF1F2DE9F04180460F4616461D46154C164B18783B210E22234600F052F82278637843EA0223A8F80030A278E37843EA02233B802279637943EA11
:4006800002233380227A637A43EA02232B80A27AE37A43EA0223069A1380227B637B43EA0223079A1380BDE8F08100BF0082FF1F1682FF1F08B50346034A10786B21062233
:4006C00000F094F808BD00BF1682FF1F00B583B0054B1B78009018466B210222032300F05FF803B05DF804FB1682FF1F08B50120FFF7ECFF0020FFF787FF0020FFF794FFAD
:400700000020FFF7D7FF08BDF8B504460F4615461E46002102F0C4FA384602F053FB2046012102F0FDFA002407E0012002F076FB30550134E4B2013DEDB2012DF5D100202D
:4007400002F06CFB305502F021FBF8BD70B50D4614461E46002102F0A3FA284602F032FB002506E0705D02F02DFB0135EDB2013CE4B2002CF6D102F009FB70BD08B513469F
:400780000122FFF7C1FF08BD00B583B002AB03F8012D0122FFF7DAFF03B05DF804FB00BF2DE9F04182B007460E4601249C40013CD21A551CAC405FFA84F80DF10702FFF7B2
:4007C000DDFF9DF82020AA4002EA08089DF8072022EA040448EA04028DF8072038463146FFF7D2FF02B0BDE8F08100BFF0B583B005460C4616461F460DF10702FFF7BEFF7B
:4008000037B10122B2409DF807301A43D2B205E00122B2409DF8073023EA02028DF8072028462146FFF7B0FF03B0F0BD08B502F0BDF8FFF7D3FEFFF759FF0620FFF7D4FE4A
:4008400008BD00BF0023036043608360C36003614361704710B586B004460DF10E03009303AB019305A80DF116010DF1120204ABFFF7EAFEBDF9160002F0ECFB164902F086
:40088000F1FC2060BDF9140002F0E4FB124902F0E9FC6060BDF9120002F0DCFB0E4902F0E1FCA060BDF9100002F0D4FB0A4902F0D9FCE060BDF90E0002F0CCFB064902F0E8
:4008C000D1FC2061BDF90C0002F0C4FB024902F0C9FC606106B010BD0000C844FEE700BF08B5094B1A681044084BC31A802B02DC054B186005E002F077FD0C2303604FF0BD
:40090000FF32104608BD00BF0C81FF1F0883FF1F08B5104E104D16E029686B68AC68002204E051F8040B43F8040B0432A242F8D1E868002203E0002143F8041B043282421D
:40094000F9D11035013E002EE6D102F053FDFFF799FBFEE701000000BC3E000008B5124A124B1A60124A136843F40073136000230AE0032B03D80F4A52F8231000E00E4991
:400980000E4A42F8231001332F2BF2D90C4B1A780C4B1A70094A0C4B1A6000F0B9F800220A4B1A6008BD00BF0004FA050CED00E014ED00E000000000DD0800000080FF1FD5
:4009C000BC7600400481FF1F08ED00E00081FF1FFEE700BFF0B40022174611E050F82760F3B226F0FF0608E001EB420511F812406D78A5550132013BDBB2002BF4D10137AE
:400A0000242FEBD9F0BC7047064B1B78DBB203F00701054A11701B09013213704422034B1A707047CF0100496E5800407658004008B50A46002102F00EFD08BD38B5012204
:400A4000264B1A801823264A137045F6BF5102321180023213700622224B1A705222A3F580731A70204B1B78DBB2204A13704FF4E1621F4B1A8041F25122023B1A8000242B
:400A800019250CE01B4B1B7803F0010343EA440404F003044FF4F07000F0C6F8013D0DB1032CEFD115B90320FFF792FF124A4FF48073138007231370002310490B704820C7
:400AC0000231087013700532137002220C4B1A700C4A137843F00303137038BD8040004082400040004300400F010049A1460040224200402542004004400040064000401D
:400B000001400040A243004008B502F099FC08BD38B572B6344A137843F00403137000240CE0324963001A1952000A4423445B00C8589188FFF77CFF0134E4B2062CF0D938
:400B400000240BE02949A3001A1952000A44D06A116B0622FFF7D8FF0134E4B2002CF1D04FF090402249FFF735FF224A137843F0020313701032137843F0020313701E4CD3
:400B8000237843F040032370A2F58632513A137843F010031370194819490822FFF7B4FF184819490A22FFF7AFFF184818490A22FFF7AAFF174818490822FFF7A5FF174ACA
:400BC000137843F008031370154D61232B70FFF735FF81232B70FFF717FF124821460E22FFF792FF38BD00BFE8460040B43C00009400004803500140A04300400251004003
:400C0000D0090048C0510040D8090048F0510040E409004812510040F00900482243004000480040B04300400230800803D000BF01380046FCD17047EFF3108072B670477F
:400C400080F31088704700BF01BE704708B5034B1B7A03FB00F0FFF7E7FF08BD1081FF1F70B504460E46074B1D681F2802D90020FFF7EAFF04F01F04103455F8240045F8DB
:400C8000246070BD08ED00E038B504460D46072902D90020FFF7D8FF1F2C02D90020FFF7D3FF04F01F0000F1604000F564406D01EDB2057038BD00BF134B1B78DBB20360CA
:400CC000124A127843EA02230360114A127843EA024303600F4A127843EA026303600E4B1B78DBB243600D4A127843EA022343600B4A127843EA024343600A4A127843EAD6
:400D000002634360704700BF0301004904010049EC4600400201004901010049000100490501004906010049F8B5FFF785FF0546404A137843F0010313701032137843F067
:400D40000103137001273C4B1F700226943B1E7002F5E2521B32137803F07F0313700020FFF774FF354C237803F0F9032370344A137803F0DF03137023783B43237038467C
:400D8000FFF764FF2820FFF761FF2E4B1A7802F07F021A701A7802F0BF021A702378334323703046FFF752FF237843F0040323700023254A1370013213702846FFF740FF2E
:400DC00017200721FFF760FF17202049FFF748FF18200721FFF758FF18201D49FFF740FF15200721FFF750FF15201A49FFF738FF05200721FFF748FF05201749FFF730FF47
:400E000006200721FFF740FF06201449FFF728FF07200146FFF738FF07201149FFF720FF0C200721FFF730FF0C200E49FFF718FFF8BD00BFA54300409D6000409443004065
:400E400012600040F85100408460004029170000F9140000251700006D160000A5160000E11600003117000008B5214B18700023204A1370204A1370204A1370204A137085
:400E8000204A1370204A1370204A1370204B4FF400021A604FF080721A604FF400121A6020221A6040221A6080221A6011B1012906D00BE0174A137803F0FE0313700AE019
:400EC000144A137843F00103137004E0114A137843F00103137003220F4B1A708022203B1A700120FFF7A0FE04220C4B1A7008BD3182FF1F3482FF1F5082FF1F5382FF1F32
:400F00004882FF1F5282FF1F5582FF1F3082FF1F00E100E009600040286000401260004038B505460C46064B1B7823B9FFF7FCFE0122034B1A7028462146FFF795FF38BDA5
:400F4000DC81FF1F00230A4A13700A4A13700A4A13700A4A13700A4A13700A4A13700A4A13700322094B1A708022203B1A7070473482FF1F5082FF1F5382FF1F4882FF1F12
:400F80005282FF1F5582FF1F3082FF1F28600040014B1878704700BF5382FF1F431EDBB2072B3BD8F0B4074600EB40039B001C4C2344DB889BB2C3F500739A4207D900EB2F
:400FC00040039B002344DA88C2F5007292B200EB40039B00124C2344DB7843EA1223114D04012E192B55D3B2737039B909E0CE5C3D010D4C665501339BB200E00023934258
:40100000F5D3430003449B00054A134400225A705A79D2B20001054B1A54F0BC704700BF5882FF1FFC5F004078600040FE5F00400246002001E0013080B2135C002BFAD1A0
:40104000704700BF10B4FF2400220EE00A4B9B5C03EB43039B0009490B449B78DBB2834201D1144602220132D2B2012AEED920465DF8044B704700BF2082FF1F6082FF1FA9
:4010800010B5204C2079FFF7DDFF237813F0800F0ED06378DBB2212B2FD11B4B07221A80C0EBC000194A1044586000F093FA10BD144B5B78DBB2202B02D0222B10D01EE081
:4010C000114A07231380C0EBC00310490B4453600F4A135C43F00103135400F0A3FA10BD084B9B780B4A22F81030094A135C43F00203135400F02EF910BD002010BD0020E8
:4011000010BD00BF006000403C82FF1F2081FF1F1882FF1F2C82FF1F2DE9F8438046224B1B78224AD65CF6B2FFF782FF05460027344606EB46039B001D4A13441B899BB220
:40114000AB4208D206EB46039B001344B3F808901FFA89F900E0A946304608EB07014A46FFF71CFFC9EB0505ADB245B906EB46039B000F4A13441B899BB2994510D14F44DA
:40118000BFB204EB44039B00094A13445B7813F0FF0FF6D025B9304600210A46FFF7FEFE002DC5D1BDE8F883DD81FF1F1C82FF1F5882FF1FC37803F0030390F902000028E8
:4011C0000FDA032B06D002F001030B48C15442F001020EE0C2F380030848C15442F0040207E0032B05D0C2F340030548C15442F002021046704700BF1C82FF1F2082FF1FEA
:401200002482FF1F1C4B19781C4A13880B449BB2138000230EE01A4A51680978C9B21948C1545168013151600133DBB21188013989B21180124A128892B20AB1072BEAD93C
:401240000D4A1278D2B2082A00D05BB10E490A7882F080020A700F210C4A117002210C4A117004E0022209490A7009490A70094A1370014A137070473082FF1F3282FF1F16
:401280003C82FF1F00600040C682FF1F5182FF1F3482FF1F5482FF1F0222074B1A708022064B1A700F22064B1A700023054A1370054A1370012070473482FF1FC682FF1F31
:4012C0005182FF1F3082FF1F5482FF1F08B5FFF799FF08BD10B4184B197801F00F010239C9B2164A13880B449BB21380002010E0134B5C68134A125CD2B222705A68013288
:401300005A600130C0B20139C9B21A88013A92B21A800B4B1B889BB20BB10029E8D10A4B19700A4A137883F0800313700B22084B1A705DF8044B7047296000403282FF1FC6
:401340003C82FF1F006000405482FF1FC682FF1F5182FF1F0623064A1370064A13708022054B1A700022054B1A700120704700BF3482FF1F5182FF1FC682FF1F5482FF1FA9
:40138000064B9B6843B1054B9A6810709A6804490988518000229A60704700BF3C82FF1F3282FF1F08B5134B1A78D2B21A701B78DBB213F0800F02D00F4A137008BD022020
:4013C000FFF7DEFF0D4B1B7803F06003202B05D0402B06D043B900F095FC06E001F054FD03E000F037FE00E0002010B90322024B1A7008BD286000405182FF1F00600040E8
:4014000008B5084B1978084A13880B449BB213800022064B1A700120FFF7B2FF0322044B1A7008BD3082FF1F3282FF1F3482FF1F5182FF1F08B50B4B1B78DBB2042B06D0C8
:40144000062B07D0022B0BD1FFF7DAFF08BDFFF741FF08BD0320FFF793FF0322024B1A7008BD00BF3482FF1F5182FF1F08B50022044B1A700120FFF783FF0322024B1A708F
:4014800008BD00BF3482FF1F5182FF1F08B50B4B1B7813F0FF0F07D0084A137843F0800307490B70002313700022064B1A700120FFF766FF0322044B1A7008BD5282FF1F23
:4014C000086000403482FF1F5182FF1F08B5094B1B78DBB2042B06D0062B07D0022B07D1FFF7F4FE08BDFFF7C1FF08BDFFF7CEFF08BD00BF3482FF1F08B5284B1B78DBB2A9
:4015000013F0100F48D013F0800F0CD003F00F03012B16D1FFF746FF214B1B7813F0800F11D1012312E013F0400F03D0FFF7CEFF01230BE013F0200F07D0FFF77BFF012393
:4015400004E0002302E0002300E0002323B3134B1B7813F0800F1FD1124B1B78124A12781343124A13701278D2B29A4214D10C4B1B78DBB2094A127812F0800F07D1084B29
:401580001B78DBB2054A1370137803F00F03044A1278D2B29342EAD108BD00BF286000405182FF1FC682FF1F5482FF1F296000400022064B1A80064B9B682BB1044A9168D9
:4015C00000230B7092685380704700BF3282FF1F3C82FF1F08B50F4B1B889BB213B9FFF75BFE15E002220C4B1A7000220B4B1A70FFF7DEFF0A4AD179937943EA0123054A21
:40160000128892B29A4201D9024A1380FFF7FAFD012008BD3C82FF1F3482FF1FC682FF1F0060004008B504220B4B1A7080220B4B1A70FFF7BDFF0A4AD179937943EA0123BC
:40164000084A128892B29A4201D9064A13800B22054B1A70012008BD3482FF1FC682FF1F006000403C82FF1F5182FF1F0A4A137803F0FE031370094B9B7C094B1B7B03F06F
:401680000303012B04D0064AD37B83F08003D3730122034B5A7370470B600040FC5F00405882FF1F0B4A137803F0FD0313700A4B93F82230094B1B7E03F00303012B04D0A9
:4016C000064AD37E83F08003D3760122034B5A76704700BF0B600040FC5F00405882FF1F0D4A137803F0FB0313700C4B93F832300B4B93F8243003F00303012B06D0084AF9
:4017000092F8273083F0800382F827300122044B83F82520704700BF0B600040FC5F00405882FF1F704700BF08B5FFF70BFC08BD08B500F09BFC08BD70B588B0054603ACC6
:40174000174E0FCE0FC43368237035B322232B7003236B7001A8FFF7AFFA002402231AE008AA224412F81C2C08A901EB121111F8141CE954581C00212954981C02F00F0269
:4017800008AE324412F8142C2A54DA1CA9540134E4B20433DBB2212BE2D908B070BD00BFEC3C000010B401223DE0114613010C242148C45402EB42039B00204803445B7970
:4017C00013F0FF0F12D002EB42039B0003441B7913F0800F04D01001194B03449C700AE01001174B03440820987004E01001144B0344802098704B000B449B000F48034436
:40180000DC88E4B208010C4901448C71D888C0F30720C871D888C0B20871DB88C3F307234B710132D2B2082ABFD9FF22054B1A705DF8044B704700BF706000405882FF1FB3
:40184000FC5F00400A600040074B1B78074A02EBC30253681A7C824203D903EBC003586970470020704700BF3182FF1F003D0000F8B5404B1B7813F0FF0F79D03D4B187840
:401880000138C0B2FFF7E0FF047AC2683A4B1878C0B200236AE01178814264D13749095CC9B25578A9425ED1917801F07F01D67806F00306DFF8C8E04D000D44AD000EEBBA
:4018C00005074FF0000C87F803C092F802C087F804C092F803C00EF805C095883D8192F90250002D0DDA012E01D1072700E00D274D000D44AD00224E35446F7101266E7080
:401900000CE0012E01D1052700E009274D000D44AD001B4E35446F7100266E70DFF868E00F010EEB07060125B57001FA05F529448900134D29440D89C5F307250EF807505E
:401940000D89EDB27570CE88F6B20E4D3D44AE71CE88C6F30726EE71CE88F6B22E71C988C1F30721697108320133DBB2A34292D3F8BD00BF5382FF1F4882FF1FC482FF1F1D
:401980005882FF1F70600040FC5F0040034B1A78034B03EBC2035868704700BF3182FF1F003D000008B5074B18780138C0B2FFF74BFF28B14268127900EBC203586908BD91
:4019C000002008BD5382FF1F2DE9F84300220EE06F4E53009D18AD00741900217155A170E1702181A172617061710132D2B2082AEED940B90AE000226649CA546649CA54BF
:401A00000133DBB200E00023012BF4D9634B1B7813F0FF0F00F0B980604B18780138C0B2FFF712FF80464368DB7913F0400F05D05B4A137843F00103137004E0584A13789A
:401A400003F0FE03137098F808704FF0000901266CE0D8F80C50002464E0AB7803F07F039E425CD1314606EB46039B00484803441B899BB2A888834205D206EB46039B003E
:401A8000434A134418812B784248C35CDBB26878834244D195F802C03D484B000B449B0000EB030E8EF804C095F803E000F803E0EB7803F0030395F90200002811DA012B51
:401AC00002D14FF0070C01E04FF00D0CDFF8C0E04B0058188000704480F805C00123437012E0012B02D14FF0050C01E04FF0090C27484FEA410E0EEB01039B00034483F847
:401B000005C0194600234B70AB790A2B01D0022B05D1284631464A46FFF74CFB814608350134E4B2BC4298D30136F6B2082E90D9D8F80C0000220CE0837803F07F0310F8AC
:401B4000084B03EB43039B0016490B449C700132D2B2BA42F0D3FFF725FF134B1860002301210EE00A4C4A00501880002044C380028913449BB203F0010213449BB20131C6
:401B8000C9B20829EED9FFF70DFEBDE8F88300BF5882FF1FC482FF1F3882FF1F5382FF1F5582FF1F6082FF1F4C82FF1F08B5154B1A7902F07F02531EDBB2072B20D853002C
:401BC00013449B0010490B44997841F0010199700021D970597841F0020159701B7913F0800F05D01201094B13448D229A7004E01201064B134489229A70FFF7ABFB08BD9F
:401C0000002008BD006000405882FF1FFC5F0040264B1B7903F07F035A1ED2B2072A43D810B55A001A44920021490A44917801F0FE0191700021D17019017F241D484454ED
:401C4000517801F0FD015170127912F0800F14D003EB4302920016490A445278D2B2012A05D11B0102461A440C23937019E01B01104A1A440D23937013E003EB430292007E
:401C80000B490A445278D2B2012A05D11B01094A1A440823937004E01B01064A1A4409239370FFF757FB10BD00207047006000405882FF1FFC5F004010B50E4B1C79E4B2F3
:401CC0000D4B18780138C0B2FFF7BEFD43681B799C4201D9022C0AD8084A135DDBB208490B55044B9B78DBB21355012010BD002010BD00BF006000405382FF1FC482FF1FB1
:401D00003882FF1F10B59B4B1B78DBB200219A4A118013F0800F00F0AD80964A5278D2B20A2A00F27281DFE812F06900700170017001700170010B007001920070019A00F4
:401D40008C4BDB78DBB2012B09D1FFF71FFE4268894B5A6012221A80FFF73CFC10BD854BDB78DBB2022B13D1824B9878FFF76CFD002800F04C8142687F4B5A605A68D17877
:401D80005A68927842EA01221A80FFF723FC10BD784BDB78DBB2032B05D02CE00A7811440133DBB201E000237449724A9278D2B29A4203D90A7812F0FF0FEFD16D4B9B7862
:401DC00013F0FF0F0BD06B4B9B78DBB26C4A127C934204D16B4C2046FFF7AEFC21460B7813F0FF0F00F015810B78634A13805160FFF7F0FB10BD01F047F810BD13F003034D
:401E000017D0022B40F007815B490B80594B1B7903F07F0303EB43039B005B4A13449A78D2B25A4B1A7000225A704B60FFF7D2FB10BD514902230B80554B1A78D2B2534BA5
:401E40001A7000225A704B60FFF7C4FB10BD4A4B01221A804F4A5A60FFF7BCFB10BD464A01231380434B1B794B490B445360FFF7B1FB10BD3F4A5278013A0A2A00F2CD8031
:401E8000DFE812F04B00CB009600CB000B00CB00CB00CB001300CB003000364B9B78DBB23E4A1370FFF756FA10BD324B9B7803F0FF041BB1601EC0B2FFF7C6FC04B110B9B1
:401EC000002C40F0AC80334B1B78DBB29C4206D0304B1C700120324B1870FFF775FDFFF739FA10BDFFF7E8FE002800F09A80214A1379DBB21279D2B22A490A702A4AD25C4D
:401F00002549C95CD3B28B4204D00122244B1A70FFF7AEFCFFF71EFA10BD03F00303012B17D04BB1022B7ED1124B9B7813F0FF0F7BD1FFF76DFE10BD0E4B9B78DBB2012BAD
:401F400075D1134A137803F0FD031370FFF702FA10BD084B1B79DBB2012B6AD8054B98781B79DBB21149CA5C22EA0002CA54FFF7F1F910BD006000403C82FF1F683D000021
:401F80004C3E0000DC82FF1F5882FF1FE081FF1F5582FF1F5382FF1FC482FF1F5282FF1F5082FF1F4882FF1F3882FF1FC882FF1F03F00303012B17D04BB1022B3BD1224BA0
:401FC0009B7813F0FF0F38D1FFF7F0FD10BD1E4B9B78DBB2012B32D11C4A137843F002031370FFF7B7F910BD174B1B79DBB2012B27D8154B98781B79DBB21549CA5C22EADE
:402000000002CA54FFF7A6F910BD002010BD002010BD002010BD002010BD002010BD002010BD002010BD002010BD002010BD002010BD002010BD002010BD002010BD0020F5
:4020400010BD002010BD00BF006000405582FF1FC882FF1F044B1B7813F0800F01D0024B5B780020704700BF00600040024B1878C0F38010704700BF8F450040024A1378CE
:4020800043F080031370704778650040024A137803F07F031370704778650040014B1870704700BF89650040014B1878704700BF6965004008B50146014800F0DBFE08BDBD
:4020C00028650040024B186820F07F40704700BF4865004008B50146014800F0CBFE08BD08650040024A137843F01003137070477865004000F00300044B1A7802F0FC0264
:402100001A701A7810431870704700BF7865004008B501E0FFF7D6FFFFF7C6FF10F0080FF8D108BD10B50D4C2046FFF7C3FF2046FFF7D0FFFEF780FD094A137843F010034F
:402140001370FEF77DFDFFF7CDFF0020FFF7D2FFFFF7DEFF0320FFF7A1FF10BD1FA107009965004008B5054B1B7823B9FFF7DAFF0122024B1A70FFF781FF08BDE481FF1F63
:40218000014B1B689864704708ED00E04001C0B2014B1870704700BF02E400E00422014B1A60704700E100E00422014B1A60704780E100E010B50446FFF7F6FF2046FFF767
:4021C000DFFF0720FFF7E2FFFFF7E8FF10BD00BF014B1B681864704708ED00E04001C0B2014B1870704700BF00E400E00122014B1A60704700E100E00122014B1A60704701
:4022000080E100E010B50446FFF7F6FF2046FFF7DFFF0720FFF7E2FFFFF7E8FF10BD00BF024B187800F00100704700BF01510040024A137843F0800313707047746500400C
:40224000024A137803F07F031370704774650040014B1870704700BF86650040014B1878704700BF6665004008B50146014800F001FE08BD24650040024B186820F07F4087
:40228000704700BF4465004008B50146014800F0F1FD08BD04650040024A137843F01003137070477465004000F00300044B1A7802F0FC021A701A7810431870704700BF85
:4022C0007465004008B501E0FFF7D6FFFFF7C6FF10F0080FF8D108BD10B50D4C2046FFF7C3FF2046FFF7D0FFFEF7A6FC094A137843F010031370FEF7A3FCFFF7CDFF0020E1
:40230000FFF7D2FFFFF7DEFF0320FFF7A1FF10BD1FA107009665004008B5054B1B7823B9FFF7DAFF0122024B1A70FFF781FF08BDE581FF1F024B1878C0F34000704700BF31
:4023400001510040014B1B685864704708ED00E04001C0B2014B1870704700BF01E400E00222014B1A60704700E100E00222014B1A60704780E100E010B50446FFF7F6FFB4
:402380002046FFF7DFFF0720FFF7E2FFFFF7E8FF10BD00BF024A137843F080031370704771640040024A137803F07F031370704771640040014B1870704700BF8264004095
:4023C000014B1878704700BF6264004008B50146014800F04FFD08BD20640040024B186820F07F40704700BF4064004008B50146014800F03FFD08BD00640040024A1378C4
:4024000043F01003137070477164004000F00300044B1A7802F0FC021A701A7810431870704700BF7164004008B501E0FFF7D6FFFFF7C6FF10F0080FF8D108BD10B50D4CDA
:402440002046FFF7C3FF2046FFF7D0FFFEF7F4FB094A137843F010031370FEF7F1FBFFF7CDFF0020FFF7D2FFFFF7DEFF0320FFF7A1FF10BD1FA107009264004008B5054B9B
:402480001B7823B9FFF7DAFF0122024B1A70FFF781FF08BDE681FF1F024B1878C0F3C000704700BF01510040014B1B681865704708ED00E04001C0B2014B1870704700BFF7
:4024C00004E400E01022014B1A60704700E100E01022014B1A60704780E100E010B50446FFF7F6FF2046FFF7DFFF0720FFF7E2FFFFF7E8FF10BD00BF024A137843F080038C
:402500001370704775640040024A137803F07F031370704775640040014B1870704700BF86640040014B1878704700BF6664004008B50146014800F09DFC08BD2464004076
:40254000024B186820F07F40704700BF4464004008B50146014800F08DFC08BD04640040024A137843F01003137070477564004000F00300044B1A7802F0FC021A701A78DE
:4025800010431870704700BF7564004008B501E0FFF7D6FFFFF7C6FF10F0080FF8D108BD10B50D4C2046FFF7C3FF2046FFF7D0FFFEF742FB094A137843F010031370FEF7B3
:4025C0003FFBFFF7CDFF0020FFF7D2FFFFF7DEFF0320FFF7A1FF10BD1FA107009664004008B5054B1B7823B9FFF7DAFF0122024B1A70FFF781FF08BDE781FF1F024B1878BB
:40260000C0F38000704700BF01510040014B1B68D864704708ED00E04001C0B2014B1870704700BF03E400E00822014B1A60704700E100E00822014B1A60704780E100E0B4
:4026400010B50446FFF7F6FF2046FFF7DFFF0720FFF7E2FFFFF7E8FF10BD00BF024A137843F08003137070477A650040014B1870704700BF0B650040014B1870704700BF95
:402680004B650040014B1870704700BF2B650040014B1870704700BF3B650040014B1870704700BF8B650040014B1878704700BF6B650040014B1878704700BF5B650040B8
:4026C00008B501E0FFF7F6FFFFF7EEFF10F0100FF8D108BD10B5134A137803F0C00343F009031370104C237843F001032370FF20FFF7BCFFFF20FFF7BFFF0020FFF7C2FF61
:402700000020FFF7C5FF0020FFF7C8FFFEF794FA237843F010032370FEF792FAFFF7D0FF10BD00BF7A6500409B65004008B5054B1B7823B9FFF7CEFF0122024B1A70FFF78B
:402740008DFF08BDE881FF1F024A137843F080031370704779640040014B1870704700BF09640040014B1870704700BF49640040014B1870704700BF29640040014B187084
:40278000704700BF39640040014B1870704700BF89640040014B1878704700BF69640040014B1878704700BF5964004008B501E0FFF7F6FFFFF7EEFF10F0100FF8D108BD88
:4027C00010B5134A137803F0C00343F009031370104C237843F001032370FF20FFF7BCFFFF20FFF7BFFF0020FFF7C2FF0020FFF7C5FF0020FFF7C8FFFEF71EFA237843F0E7
:4028000010032370FEF71CFAFFF7D0FF10BD00BF796400409964004008B5054B1B7823B9FFF7CEFF0122024B1A70FFF78DFF08BDE981FF1F024A137843F08003137070476D
:4028400077640040014B1870704700BF07640040014B1870704700BF47640040014B1870704700BF27640040014B1870704700BF37640040014B1870704700BF8764004064
:40288000014B1878704700BF67640040014B1878704700BF5764004008B501E0FFF7F6FFFFF7EEFF10F0100FF8D108BD10B5134A137803F0C00343F009031370104C237839
:4028C00043F001032370FF20FFF7BCFFFF20FFF7BFFF0020FFF7C2FF0020FFF7C5FF0020FFF7C8FFFEF7A8F9237843F010032370FEF7A6F9FFF7D0FF10BD00BF77640040D3
:402900009764004008B5054B1B7823B9FFF7CEFF0122024B1A70FFF78DFF08BDEA81FF1F38B50222114B1A7081220E3B1A70082202331A700F2511331D70002401331C7014
:402940004FF400420A4B1A6028460721FEF79CF928460849FEF784F91022074B1A70074B1C70074B1C70074B1C7038BDD649004080E100E0D5290000CA82FF1FD282FF1F9B
:40298000D882FF1FD182FF1F08B5FEF755F9064A137843F0040313701032137843F004031370FEF74DF908BDA543004008B5074B1B7823B9FFF7B4FF0122044B1A70FFF7CB
:4029C000E3FF4FF40042024B1A6008BDEB81FF1F00E100E038B5A44B1C78E4B2A34B1B7813F0400F00F0378114F0010F00F01B819E4B1B78453B052B00F21281DFE813F0FD
:402A000006008200100110010600DE0004F0DF0504F00A04082C42D1944B1B78DBB2452B35D1934B1B7813F0FF0F10D0914B1B681B78DBB2904A137004228B4B1A7001228B
:402A40008E4B1A704622894B1A702C46EBE08C4B1B7813F0020F0DD08A4A137843F00A0313706022814B1A704FF40042864B1A602C46D8E0854A137843F01003137010224C
:402A8000834B1A700422023B1A702C46CBE00022754B1A704A22754B1A702C46C3E00A2C2BD1784A137843F0A0031370744B1B7813F0020F14D06D4B1B7813F0080F01D025
:402AC000092300E00A236F4A11780B4313706022664B1A704FF400426B4B1A602C46A2E06A4A137843F0100313701022684B1A700422023B1A702C4695E00020FEF7A4F828
:402B00002C4690E014F0020F35D15C4B1B78584A1278DBB2934210D2584A1378DBB255490968CB5CDBB254490B7004214E4B197013780133DBB2137075E0514B1B7813F0BC
:402B4000020F0CD04F4A137843F00A0313706022464B1A704FF400424B4B1A6063E04B4A137843F0100313701022494B1A700422023B1A7057E0424B1B7813F0020F0CD09F
:402B8000404A137843F09A0313706022374B1A704FF400423C4B1A6045E03C4A137843F01003137010223A4B1A700422023B1A70344A137843F09003137034E0354A1378FC
:402BC000DBB2354908682C490978C9B2C15413780133DBB213701378304A1278DBB2934203D21022204B1A701DE0254B1B7813F0020F0CD0234A137843F0090313706022EC
:402C00001A4B1A704FF400421F4B1A600BE01F4A137843F0100313700022134B1A7002E00020FEF711F814F0200F1CD00F4B1B7813F0080F01D0012300E00223114A117886
:402C40000B431370114A137803F0EF0313701022064B1A7038BD054B1B7813F0100F02D11022024B1A7038BDD7490040CA82FF1FD982FF1FCC82FF1FD8490040D182FF1FDC
:402C8000DA82FF1FD282FF1F80E100E0D6490040D9490040D882FF1FD482FF1FD082FF1F1A4B1B78DBB2102B29D1194B1B7813F0080F26D14FF40042164B1A604000C0B2F6
:402CC00029B140F001004922104B1A7002E045220E4B1A70104B1870012201331A700F4B1B7813F0010FFAD00C4B1B7803F00A030A2B08D11022054B1A70032070470220BF
:402D00007047012070470020704700BFCA82FF1FD949004080E100E0D8490040D7490040164B1B7813F0040F23D04000C0B229B140F001004922124B1A7002E04522104BF0
:402D40001A70104B1870122201331A700422023B1A700D4B1B7813F0010FFAD00A4B1B7803F00A030A2B06D11022054B1A7003207047022070470020704700BFD949004094
:402D8000CA82FF1FD8490040D74900400A4B1B7813F0040F0ED01023074A13700421023A1170064A1370064B1B7813F0210FFAD00020704702207047D9490040CA82FF1FF3
:402DC000D7490040114B1B7813F0040F1BD0104B18700422013B1A7046220E4B1A700E4B1B7813F0010FFAD00B4B1B7813F0020F04D16022074B1A70002070476022054BC7
:402E00001A70032070470220704700BFD9490040D8490040CA82FF1FD7490040114B1B7813F0040F1BD0104B1B78DBB2492B05D100220E4B1A704A220B4B1A700B4B1B781A
:402E400013F0010FFAD00A4B1B78DBB218B11021064A117004E06021034A117000E0002318467047D9490040CA82FF1FD7490040D8490040CBB20370C1F307234370C1F328
:402E800007418170704700BF08B5124B1B7803F00303012B02D0022B04D00FE00D4B1B79DBB20CE00B4B1B7903F07F0303EB43039B00094A13449B78DBB200E00023074A9E
:402EC0001268D35C022B02D1FEF7DAF808BD002008BD00BF006000406082FF1F4C82FF1F80F0004002E000BF81F0004142001FBF5FEA410392EA030F7FEA226C7FEA236C40
:402F00006AD04FEA1262D2EB1363C1BFD218414048404140B8BF5B42192B88BF704710F0004F40F4000020F07F4018BF404211F0004F41F4000121F07F4118BF494292EA4D
:402F4000030F3FD0A2F1010241FA03FC10EB0C00C3F1200301FA03F100F0004302D5494260EB4000B0F5000F13D3B0F1807F06D340084FEA310102F10102FE2A51D2B1F1CA
:402F8000004F40EBC25008BF20F0010040EA03007047490040EB000010F4000FA2F10102EDD1B0FA80FCACF1080CB2EB0C0200FA0CF0AABF00EBC25052421843BCBFD04096
:402FC0001843704792F0000F81F4000106BF80F400000132013BB5E74FEA41037FEA226C18BF7FEA236C21D092EA030F04D092F0000F08BF0846704790EA010F1CBF0020FC
:40300000704712F07F4F04D1400028BF40F00040704712F100723CBF00F50000704700F0004343F0FE4040F4000070477FEA226216BF08467FEA23630146420206BF5FEAA3
:40304000412390EA010F40F4800070474FF0000304E000BF10F0004348BF40425FEA000C08BF704743F0964301464FF000001CE050EA010208BF70474FF000030AE000BF3F
:4030800050EA010208BF704711F0004302D5404261EB41015FEA010C02BF84460146002043F0B64308BFA3F18053A3F50003BCFA8CF2083AA3EBC25310DB01FA02FC634449
:4030C00000FA02FCC2F12002BCF1004F20FA02F243EB020008BF20F00100704702F1200201FA02FCC2F1200250EA4C0021FA02F243EB020008BF20EADC7070474FF0FF0C74
:403100001CEAD0521EBF1CEAD15392EA0C0F93EA0C0F6FD01A4480EA010C400218BF5FEA41211ED04FF0006343EA501043EA5111A0FB01310CF00040B1F5000F3EBF4900A9
:4031400041EAD3715B0040EA010062F17F02FD2A1DD8B3F1004F40EBC25008BF20F00100704790F0000F0CF0004C08BF49024CEA502040EA51207F3AC2BFD2F1FF0340EA58
:40318000C250704740F400004FF00003013A5DDC12F1190FDCBF00F000407047C2F10002410021FA02F1C2F1200200FA02FC5FEA310040F1000053EA4C0308BF20EADC708A
:4031C000704792F0000F00F0004C02BF400010F4000F013AF9D040EA0C0093F0000F01F0004C02BF490011F4000F013BF9D041EA0C018FE70CEAD15392EA0C0F18BF93EA58
:403200000C0F0AD030F0004C18BF31F0004CD8D180EA010000F00040704790F0000F17BF90F0004F084691F0000F91F0004F14D092EA0C0F01D142020FD193EA0C0F03D12F
:403240004B0218BF084608D180EA010000F0004040F0FE4040F40000704740F0FE4040F4400070474FF0FF0C1CEAD0521EBF1CEAD15392EA0C0F93EA0C0F69D0A2EB030203
:4032800080EA010C49024FEA402037D04FF0805343EA111143EA10130CF000408B4238BF5B0042F17D024FF4000C8B4224BF5B1A40EA0C00B3EB510F24BFA3EB510340EA57
:4032C0005C00B3EB910F24BFA3EB910340EA9C00B3EBD10F24BFA3EBD10340EADC001B0118BF5FEA1C1CE0D1FD2A3FF650AF8B4240EBC25008BF20F0010070470CF0004C3F
:403300004CEA50207F32C2BFD2F1FF0340EAC250704740F400004FF00003013A37E792F0000F00F0004C02BF400010F4000F013AF9D040EA0C0093F0000F01F0004C02BF83
:40334000490011F4000F013BF9D041EA0C0195E70CEAD15392EA0C0F08D142027FF47DAF93EA0C0F7FF470AF084676E793EA0C0F04D14B023FF44CAF08466EE730F0004CFE
:4033800018BF31F0004CCAD130F000427FF45CAF31F000437FF43CAF5FE700BF4FEA4002B2F1FE4F0FD34FF09E03B3EB12620DD94FEA002343F0004310F0004F23FA02F032
:4033C00018BF404270474FF00000704712F1610F01D1420205D110F0004008BF6FF0004070474FF000007047014B1868704700BF9C81FF1F0E4B70B51E460E4C0025E41A39
:40340000A410A54204D056F8253098470135F8E700F042FD084B094C1E46E41AA4100025A54204D056F8253098470135F8E770BDA43E0000A43E0000A43E0000AC3E000065
:4034400010B5431E0A44914204D011F8014B03F8014FF8E710BD03460244934202D003F8011BFAE7704700000EB400B54FF402719CB0ADF814106FF00041049107914FF6AC
:40348000FF711DABADF81610084953F8042B02900690086802A9019300F064F8029B00221A701CB05DF804EB03B070479C81FF1F2DE9F0478E688246B3420C469046994616
:4034C00040D38A8912F4906F3AD02568096902236F1A656905EB450595FBF3F57B1C4B449D4238BF1D4653050FD5294600F030FB064698B121693A46FFF7A2FFA38923F4CC
:40350000906343F08003A38113E02A4600F076FB064670B95046216900F0D6FA0C23CAF80030A3894FF0FF3043F04003A381BDE8F08726613E4426604E466561ED1BA5603E
:40354000B14500D24E4632462068414600F0A0FAA36800209B1BA36023681E442660BDE8F08700002DE9F0439DB003938B8906461C060D4690460CD50B6953B9402100F0E2
:40358000E7FA2860286110B90C233360CCE040236B610023099320238DF8293030238DF82A3043461C4613F8012B1AB9B4EB08090FD002E0252AF5D1F8E7304629464246DA
:4035C0004B46FFF775FF013000F0A980099B4B4409932378002B00F0A28000234FF0FF3204930793059206938DF853301A9304F101084446DFF8489121784846052200F0C0
:4036000039FA08F10108049B30B1C9EB00000122824013430493ECE7D80644BF20228DF85320190744BF2B228DF8532022782A2A02D0079923460EE0039A0134111D1268C8
:403640000391002ABBBF524243F0020307920792B8BF04930AE01C4622780133303A092A03D80A2000FB0121F5E7079123782E2B1AD163782A2B0AD1039B02341A1D1B6841
:403680000392002BB8BF4FF0FF3305930CE0611C00220C4623780131303B092B03D80A2000FB0232F5E70592DFF8988021784046032200F0DFF938B1049AC8EB0000402342
:4036C000834013430493013421781A48062204F101088DF8281000F0CDF988B1164B33B9039B073323F007030833039313E003AB0093304604A92A46104BAFF3008007E0DA
:4037000003AB0093304604A92A460C4B00F092F8421C074603D0099B3B44099341E7AB895B0601D4099801E04FF0FF301DB0BDE8F08300BF6C3E000000000000B1340000F2
:40374000623E0000683E00002DE9F84391461F468A680B6906469342B8BF1346C9F8003091F843200C46DDF8208012B10133C9F800302368990642BFD9F800300233C9F871
:403780000030256815F006051CD094F843302268003318BF012392061FD5E118302081F843005A1C94F845102244023382F8431013E03046394604F119020123C0470130F5
:4037C00007D00135E368D9F800209B1A9D42F0DBDBE74FF0FF30BDE8F8833046394604F14302C0470130F4D02268D9F80050E36802F00602042A08BF5D1B2269A3680CBFE8
:4038000025EAE57500259342C4BF9B1AED184FF00009A9450ADA3046394604F11A020123C0470130D5D009F10109F2E70020BDE8F88300002DE9FF410C461746227E984627
:403840006E2A06460A9B01F1430100F0B08012D8632A23D00AD8002A00F0BD80582A40F0CC8084F84520DFF804E257E0642A1ED0692A1CD0C1E0732A00F0B18009D86F2A1F
:403880002ED0702A40F0B980226842F0200222603FE0752A24D0782A3BD0AEE01A6804F14205111D1960136884F84230A9E020681A6810F0800F02D0101D186008E010F06B
:4038C000400F02F10400186002D0B2F9003000E01368002B3EDA2D225B4284F8432039E020681A6810F0800F02D0101D186007E010F0400F02F10400186001D0138800E0DA
:403900001368227EDFF864E16F2A0CBF08220A221CE07822DFF858E184F845202268186812F0800F00F104051D6003D1550601D5038800E00368D00744BF42F02002226072
:403940001BB9226822F0200222601022002084F8430002E0DFF814E10A226568002DA8BF2068A560A4BF20F00400206003B965B10D46B3FBF2F002FB10331EF8033005F828
:40398000013D03460028F4D100E00D46082A0BD12368DA0708D5236962689A42DEBF302305F8013C05F1FF35491B21612EE025681A6815F0800F606903D0151D1D60136826
:4039C00008E015F0400F02F104051D60136801D0188000E01860002323610D4616E01A68111D1960156800212846626800F042F808B1401B6060636804E004F1420584F882
:403A0000422001232361002384F84330CDF800803046214603AA3B46FFF796FE013002D14FF0FF301FE0304639462A462369C0470130F5D023689B0705D4E068039B98426B
:403A4000B8BF18460FE00025E368039A9B1A9D42F3DA3046394604F119020123C0470130DED00135F0E704B0BDE8F081733E0000843E000010B5C9B202449042034605D045
:403A80001C7801308C42F8D1184610BD002010BD814210B501EB020301D3421E0BE09842FBD28118D21AD34204D013F8014D01F8014DF8E710BD994204D011F8014B02F89B
:403AC000014FF8E710BD000030B500293CD051F8042C0B1F1D49002AB8BF9B180A680C4612B95A600B6030BD93420DD219685818904201BF5A5852181A60426823605A60FE
:403B000030BD994203D80A4651680029F9D1146815199D420AD11B682344D0188842136012D10868034413604B680CE002D90C23036030BD1C681819884201BF086849680D
:403B4000001918605960536030BD00BFF081FF1F70B5CC1C24F0030408340C2C38BF0C24002C064603DA0C233360002070BD8C42F9D3204A136810461946A1B10A68121BC1
:403B80000ED40B2A03D90A608B188C501FE08B420BBF5A684A6802605A6018BF0B4616E00B464968E9E7144D2B681BB9304600F04BF828603046214600F046F8421C034668
:403BC000D1D0C51C25F0030585420AD11C6003F10B001A1D20F00700821A0AD05142995070BD3046E91A00F02FF80130BBD02B46ECE770BDF081FF1FEC81FF1FF8B50746CB
:403C000015460E4621B91146BDE8F840FFF7A0BF1AB9FFF759FF2846F8BD00F025F8A8420ED238462946FFF793FF044650B131462A46FFF705FC38463146FFF745FF01E0A9
:403C40003046F8BD2046F8BD38B5064C0023054608462360FCF744FE431C02D1236803B12B6038BD0083FF1F51F8040C0028BEBF091851F8043CC018043870470000000046
:403C8000496E69742E2E2E005B256C645D202564202564202564202564202D202564202564202564202564202564202564200D0A00000000C84900401900205100405000B0
:403CC00000000140001000140140000800400140000A004C01400002005001402000000060520040C809004806000000303132333435363738394142434445460000000098
:403D000001000000083D0000010000004C3E0000000000000000000001000000203D000001000000083E0000030000004C3D00000000000000000000000000000000000081
:403D400000000000483D0000020A000000008103080002000100820240000A000100030240000A0002030000040309042C0343007900700072006500730073002000530061
:403D800065006D00690063006F006E0064007500630074006F007200100355005300420055004100520054003803430044004300200043006F006D006D0075006E006900C1
:403DC00063006100740069006F006E00200049006E007400650072006600610063006500260343004400430020004400610074006100200049006E0074006500720066007F
:403E00006100630065000000090243000201018032090400000102020103052400100104240202052406000105240100010705810308000A09040100020A00000407058230
:403E40000240000007050302400000001201000202000008B40432F201000102800100004300232D302B2000686C4C0065666745464700303132333435363738394142432A
:403E8000444546003031323334353637383961626364656600000000F8B500BFF8BC08BC9E4670474D0000005D090000F8B500BFF8BC08BC9E46704729000000D03E0000E9
:403EC0000881FF1F980000006801000000000000000000000883FF1F0000E02EC05D00001800000000366E0100C2010000000800C201000000080000A12000000000020030
:403F0000000000000000000000000000000000000000000000000000000000000000000000000000603E0000000000000000000000000000000000000000000000000000E3
:403F40000000000000000000000000000000000000000000000000000000000000000000000000003C81FF1F00000000000000000000000000000000000000000000000066
:403F80000000000000000000000000000000000000000000000000000000000000000000000000000000000000000000000000000000000000000000000000000000000001
:403FC00000000000000000000000000000000000000000000000000000000000000000000000000000000000000000000000000000000000000000000000000000000000C1
:404000000000000000000000000000000000000000000000000000000000000000000000000000000000000000000000000000000000000000000000000000000000000080
:404040000000000000000000000000000000000000000000000000000000000000000000000000000000000000000000000000000000000000000000000000000000000040
:020000040003F7
:0200000480007A
:40000000014500400352004004640040036500404B000140210101402F0201402A0301404B0401402A0501404A0601402C0701404308014033090140050B0140010D0140D8
:400040005A140140311501402F1601402A1701404F1801402C1901404B1A0140301B0140074001401241014011420140094301400145014005460140084701400A4801406F
:40008000144901400E4C01400D4D01400C500140035101407E0208A009907C40820F860F870F890F860F890F8B0F4042420149FF4AFF4BFF4F0150185A045D095F01604086
:4000C000624064406540668068806A806C806E808130870289108B208D308E0F9303960D970199109A089B20A108A20FA402A604A804A901AA02AB04AF03B001B203B303AB
:40010000B408B504B604B738BBC0BE51C042C201C9FFCAFFCBFFCD83CE03CF01D018D293D804D904DA04DB04DC99DD99DF01E040E240E440E540E680E880EA80EC80EE80DB
:4001400007020D200E201404168017081C481D821E221F402401250427092C042E802F40371A3C013DA8404041A045A26DA06F0676807702C080C260C470CAB0CCE0CEF0BB
:40018000D0BD0403060C0B060C050E0A130F1B031E0F1F0D2403260C2C052D0A2E0A320F330F3B084042420145EC4620480B49FF4AFF4BFF4D834E034F01501854035604F3
:4001C000580459045A045B045C995D995F016040624064406540668068806A806C806E80058007110E02154017041E2027102D402F023580360137103D2045A24F055520B1
:400200005C805E205F0567808740880498809B059C049F10A192A201A302A520AC84C0A0C280C4A0CA10CCB0CE20D0B0D6F0D880E480E6024023420149FF4AFF4BFF4F014A
:4002400050185A045D095F016040624064406540668068806A806C806E808303860889188C048D188E02910193049508960D97109B019E0F9F02A120A20FA508A710A802E1
:40028000AA04AF03B008B203B304B401B538B604B703BB30BE51C023C201C9FFCAFFCBFFCD83CE03CF01D018D293D804D904DA04DB04DC99DD99DF01E040E240E440E5409F
:4002C000E680E880EA80EC80EE80062007020C800E200F01168017201C041DA01E621F402510268027282E802F50368037263DA03F0140044180422045A046206D806F04D1
:40030000748076809B02B302C0A0C2A0C450CAD0CCF0CEB0D07EE240E620E821EC044023420145EC4620480B49FF4AFF4BFF4D834E034F015018540356045A045B045D99C0
:400340005F016040624064406540668068806A806C806E8087019108920894019B0C9E049F02A203A604AF03B004B104B202B301B401B508B608B702BF04C050C106C5D1DB
:40038000C605C702C817C9FFCAFFCBFFCDA0CF04D018D280D407D804D904DA04DB04DF01E040E2C0E440E540E6C0E8C0EAC0ECC0EEC00A220B4010A019501A221B0221025B
:4003C0002264294030A03102380845A04620482849414F05508C562059115A085B405E405F256780734087408F02924097209B0C9E20A1E0A201C20DC40CCA08CC0DCE0239
:40040000D070D20CD6FFD880E64006061101150619021A031B041E0F200A2502260D27042D06340F35073A203B30580459045C995F018B018E0491089208940197029B0C34
:40044000A303A604AA03B008B104B202B301B401B508B604B702BF04C040C102C5D1C620C705C81BC9FFCAFFCBFFCDA0CF04D018D280D407D804D904DA04DB04DF01E040EE
:40048000E2C0E440E540E6C0E8C0EAC0ECC0EEC00040040807100A500E0A1020120816801709184019921A101E081F202102220423052620270829022E802F203020310207
:4004C0003208360137183820404041104820490150105110520859115A085B80724089808F019B20A304C021C2CCC436CA51CCE7CE04D005D60F9B20A304AB24E240E620D6
:40050000E602083009020AC30B040D061050110612AD1D011EFF2502270428302AC62C5A2EA03107320F34F03A083B034032420149FF4AFF4BFF4F0150185293580459043F
:400540005A045B045C995D995F016040624064406540668068806A806C806E80820F8A0D8E0F9303960897019B029D019F04A004A202A303A402A604B008B201B303B403D1
:40058000B504B604BE45C036C201C9FFCAFFCBFFCD83CE03CF01D018D804D904DA04DC99DD09DF01E040E240E440E540E680E880EA80EC80EE8000100511070209820F2080
:4005C000100A14801708181019281D981E402102272829082E02318234803501372839504188432045884F20680A6950710172027302848096409D20A330A588B502C0D28C
:40060000C229C433CA82CCF9CE0CD05ED220E008E204E401E610EA4100050A0E0D050F0A130F1503170C19051A091B0A1E0F25032603270C330F340F3A204036420145EC74
:400640004620480B49FF4AFF4BFF4D834E034F01501854035604580459045A045B045C995D995F016040624064406540668068806A806C806E800510068007080E0A1704A1
:400680001E081F1027202F103510360137043D803E8045884D044F2157305D245E405F01650297209B0C9F20A140A201AA20AB40B640C050C2C0C420CA40CCE0CE10D050BC
:4006C000D220D6F0D880E204EA10050107040A0D0F03112813501608170119281B501E0F1F02220F23782402251826042760280429182A022B602F03300832033378340181
:400700003504360437033E514023420149FF4AFF4BFF4F0150185293580459045A045B045C995D995F016040624064406540668068806A806C806E80C023C201C9FFCAFF4A
:40074000CBFFCD83CE03CF01D018D403D604DA04DB04DD99DF01E040E240E440E540E680E880EA80EC80EE8004100C800D08168017281C101DA01E421F40268027182E80B0
:400780002F6836A037093C803F0841A845A859055A405B1063806C046F0974C07680834094089B209F01A220A324A601B384C040C2A0C470CAF0CCF0CE50D07ED60FD80104
:4007C000120216011B0127012A013202340135014023420545EC4702481349FF4AFF4BFF4D834E034F0150185280580459045A045B045D095F01604062406440654066800E
:4008000068806A806C806E808A0696019C049D02A703AE01B004B101B302B401B602BE10C060C101C5D0C650C721C83AC9FFCAFFCBFFCDA0CF04D018D407D804D904DA048B
:40084000DB04DF01E040E2C0E440E540E6C0E8C0EAC0ECC0EEC0060809020A100E110F201008160219201A101E49211027A02B102F20332037804128460249054A014D01BD
:400880004F2051085408560A57205D015E485F20710289309D05A120A201A508C040C2ACC482CA42CC14D016D228D6F0E008E204E401E610EA0130023220342036083B10A0
:4008C000CCF0CE100104030805080728310832803410841087108B0897109C20A402A628C0F0CC70E210E6403E105308574089088E8091049C20A402A508A6A8A908AB20FD
:40090000B308CE20D460E880EC2086088F40910496109C20A402A628A748E21085018A048E109502E202E6040A240D018A408D0895029624C20EE40922018002910496101D
:400940009C20A402A620B708C840E2201220164074087B0282208302850486408C089104AA10AE21B420C430DC80DE20E010E220E4C0EA8013281704580161086640674056
:400980007B107F409A40A108C40ED603D803DE038318874088018B408F0497C09B0C9C01A710AB20E004E404E6080001010109010A010B010C010D01100111011B011C0148
:4009C0001D0100FF01AB03C00A0C0000030000000F0F0000000000000300000C0F000F00000000004000000000000000C000000000F0F000F0000000000000000000000037
:400A000000000000000000000000000000000000000000000000000000000000000000000000000000000000000000000000000000000000000000000000000000000000B6
:400A40000000000000000000000000000000000000000000000000000000000000000000000000000000000000000000000000000000000000000000000000000000000076
:400A80000000000000000000000000000000000000000000000000000000000000000000000000000000000000000000000000000000000000000000000000000000000036
:400AC00000000000000000000000000000000000000000000000000000000000000000000000000000000000000000000000000000000000000000000000000000000000F6
:0200000490006A
:0400000000004005B7
:0200000490105A
:04000000BC90ACAF55
:0200000490303A
:0200000025B029
:0200000490402A
:4000000000000000000000000000000000000000000000000000000000000000000000000000000000000000000000000000000000000000000000000000000000000000C0
:400040000000000000000000000000000000000000000000000000000000000000000000000000000000000000000000000000000000000000000000000000000000000080
:400080000000000000000000000000000000000000000000000000000000000000000000000000000000000000000000000000000000000000000000000000000000000040
:4000C0000000000000000000000000000000000000000000000000000000000000000000000000000000000000000000000000000000000000000000000000000000000000
:0200000490501A
:0C00000000012E16106900012E31361987
:00000001FF