:400000000080002011000000C10B0000C10B000008B5044B1A6803F53F5302331A6000F0E9FD00BFFA46004010B5054C237833B9044B13B10448AFF300800123237010BDF9
:40004000A081FF1F00000000B44B0000084B10B51BB108480849AFF300800848036803B910BD074B002BFBD0BDE81040184700BF00000000B44B0000A481FF1F0881FF1F13
:40008000000000002DE9F04FF5B062B60020012101F0CEF801F004F90028FBD0864801F0C3F900F055F9854BD3F8008000F03EFD0DF5D2790024484681492246814B00F068
:4000C00037FD5EAF384680492246234600F030FD53AD4FF07E5328461946224600F028FD00F084FA794E00966FF400040194CDF8089048A80021F02242F2D00300F088FA70
:40010000734B0093734B019302973DA8012146224FF4486300F07CFA00960194029532A80221F0224FF4966300F072FA00F0A0F92EA8012100F0BAF92AA8022100F0B6F99F
:4001400026A8032100F0B2F922A8042100F0AEF900F094FC1CA800F09DFC584C2068C8EB000003F099FE0546D4F800802EA800F0A5F92AA800F0A2F926A800F09FF922A8BE
:4001800000F09CF99DF8A9303BB1BDF8B41021B148A809B200F050FA03E048A8002100F04BFA9DF8B930BBB1BDF9C40080EAE073A3EBE073282B0FDD404203F0EFFA002246
:4001C000454B03F07BFC03F061FD01463DA82A46002300F0D9FA05E03DA800212A46002300F0D2FA9DF889303BB1BDF8941021B132A809B200F020FA03E032A8002100F026
:400200001BFA1CA800F04EFCBDF8C44034B9BDF8B4301BB9BDF9A430002B9ED000210C910DA83C2204F0B3F8244BD3F80090BDF8B470BDF8A460BDF894501C98204903F000
:4002400083FE83461D981E4903F07EFE82461E981B4903F079FE09904D98194903F074FE0A904298164903F06FFE0B9024B23FB2009736B201962DB20295584604F02AF843
:400280000390504604F026F80490099804F022F805900A9804F01EF806900B9804F01AF807900CA80D494A46234604F079F80CA801F0BAF851E700BFB84B0000FC81FF1F55
:4002C0000000C8420000A04100005C43FFFF7F7F9A9919409A9919C000005940C04B0000164A136801331360154A138801339BB21380B3F57A7F20D30022114B1A80114AA5
:40030000138801339BB213803B2B16D900220D4B1A800D4A138801339BB213803B2B0CD90022094B1A80094A138801339BB21380172B02D90022054B1A807047FC81FF1FC7
:40034000F881FF1FFA81FF1F0082FF1F0282FF1F08B5024802F0DEF808BD00BFE102000008B502F003F90D4B187010F0020F07D002F00AF9C0F5F42000F21F10074B586079
:40038000064B1B7813F0010F02D00022034B5A6002F0DEF8024802F0FFF808BDBC81FF1F1FA1070008B502F007F80D4B187210F0020F07D002F00EF8C0F5F42000F21F100E
:4003C000074BD860064B1B7A13F0010F02D00022034BDA6001F0E2FF024802F003F808BDBC81FF1F1FA1070008B502F023FA0D4B187410F0020F07D002F02AFAC0F5F42097
:4004000000F21F10074B5861064B1B7C13F0010F02D00022034B5A6102F0FEF9024802F01FFA08BDBC81FF1F1FA1070008B502F04FF90D4B187610F0020F07D002F056F96D
:40044000C0F5F42000F21F10074BD861064B1B7E13F0010F02D00022034BDA6102F02AF9024802F04BF908BDBC81FF1F1FA1070008B50A4802F008F902F0D6F8084802F00D
:4004800021F801F0F7FF074802F062FA02F030FA054802F0ABF902F079F908BD61030000A5030000E90300002D040000017000234370838143608360704700BF70B5044698
:4004C0000378012B0CD0022B07D0032B02D1454A167C07E0434A167E04E0424A167A01E0404A1678012B0CD0022B07D0032B02D13C4A556907E03B4AD56904E0394AD568B3
:4005000001E0384A5568012B02D102F011F80BE0022B02D102F096F806E0032B02D102F0F5F901E002F040F928B12F4B1B6863600123637007E02C4B1B6862689B1A322B16
:4005400001D9002363706378002B4AD0002E48D0A5F5BB43403B45F20822934200D9A568C5F50043E83313F5167F05DDB3F5167F02DA0023A38111E048F2E8039D4202D94F
:4005800042F6E06201E042F22832A5F50043E83BC3EB03131B0193FBF2F3A381B4F90C3013F1F00F02DA4FF61073A381B4F90C30F02B01DDF023A381A5602378012B01D170
:4005C00002F032F82378022B01D101F053FF2378032B01D102F08CF92378042B01D102F0D5F870BDBC81FF1FFC81FF1F08B502F025FA02F0FDFD002002F0CCFD02F094FA5D
:4006000002F0B8FE002002F087FE02F003FB08BD0170828000224280C3800281009BC360019B0361002343618361C36103624362029B8362704700BF10B5044681EAE1704F
:40064000A0EBE170A3881AB2904207DD002901DA5A426280002902DD638000E061802378EBB900290BDAB4F902000028B8BF4042C0B202F08FF9002002F092F910BD002927
:4006800006DD002002F086F9A07802F089F910BD002002F07FF9002002F082F910BD012B1DD100290BDAB4F902000028B8BF4042C0B202F0E5F9002002F0E8F910BD002966
:4006C00006DD002002F0DCF9A07802F0DFF910BD002002F0D5F9002002F0D8F910BD022B1CD100290BDAB4F902000028B8BF4042C0B202F03BFA002002F03EFA10BD002920
:4007000006DD002002F032FAA07802F035FA10BD002002F02BFA002002F02EFA10BD00BFD0B5044603781BB902F02CFD208104E0012B02D102F0E8FD2081B4F9080040006B
:4007400003F02CF80CA3D3E9002303F08DF800220B4B03F089F806460F46E08803F01EF802460B463046394603F0A8F903F08EFA6061D0BDAFF30080182D4454FB2109400F
:4007800000001040AFF30080F8B50478012C4AD115460E46044653BB836A186803F09AFD07462046FFF7BCFF656930461E4903F0C3FA0146284603F083FD28B17942204677
:4007C00009B2FFF739FFF8BD3046174903F0B2FA0146284603F056FD20B1204639B2FFF72BFFF8BD20460021FFF726FFF8BD012B19D1FFF795FFA06A314662692B4600F050
:40080000A5F9A36A986A03F065FD014600F145038A2B04D820460021FFF70EFFF8BD204609B2FFF709FFF8BDCDCCCC3D6822014B1A7070471A82FF1F00B583B0054B1B7854
:40084000009018461A210222032300F0D1F803B05DF804FB1A82FF1F00B583B0054B1B78009018461B210422022300F0C1F803B05DF804FB1A82FF1F00B583B0054B1B7816
:40088000009018461C210422022300F0B1F803B05DF804FB1A82FF1F2DE9F04180460F4616461D46154C164B18783B210E22234600F052F82278637843EA0223A8F800302F
:4008C000A278E37843EA02233B802279637943EA02233380227A637A43EA02232B80A27AE37A43EA0223069A1380227B637B43EA0223079A1380BDE8F08100BF0482FF1F0C
:400900001A82FF1F08B50346034A10786B21062200F094F808BD00BF1A82FF1F00B583B0054B1B78009018466B210222032300F05FF803B05DF804FB1A82FF1F08B501203F
:40094000FFF7ECFF0020FFF787FF0020FFF794FF0020FFF7D7FF08BDF8B504460F4615461E46002102F024FB384602F0B3FB2046012102F05DFB002407E0012002F0D6FB84
:4009800030550134E4B2013DEDB2012DF5D1002002F0CCFB305502F081FBF8BD70B50D4614461E46002102F003FB284602F092FB002506E0705D02F08DFB0135EDB2013CFD
:4009C000E4B2002CF6D102F069FB70BD08B513460122FFF7C1FF08BD00B583B002AB03F8012D0122FFF7DAFF03B05DF804FB00BF2DE9F04182B007460E4601249C40013C69
:400A0000D21A551CAC405FFA84F80DF10702FFF7DDFF9DF82020AA4002EA08089DF8072022EA040448EA04028DF8072038463146FFF7D2FF02B0BDE8F08100BFF0B583B035
:400A400005460C4616461F460DF10702FFF7BEFF37B10122B2409DF807301A43D2B205E00122B2409DF8073023EA02028DF8072028462146FFF7B0FF03B0F0BD08B502F0A8
:400A80001DF9FFF7D3FEFFF759FF0620FFF7D4FE08BD00BF0023036043608360C36003614361704710B586B004460DF10E03009303AB019305A80DF116010DF1120204ABFF
:400AC000FFF7EAFEBDF9160003F0EAF9164903F0EFFA2060BDF9140003F0E2F9124903F0E7FA6060BDF9120003F0DAF90E4903F0DFFAA060BDF9100003F0D2F90A4903F0B9
:400B0000D7FAE060BDF90E0003F0CAF9064903F0CFFA2061BDF90C0003F0C2F9024903F0C7FA606106B010BD0000C844704700BF0160426083600023C36003614361836151
:400B4000C361036243628362704700BFF8B504461E46C161026263620846114603F0EAF80546E060A7693046294603F0EDF90146384603F0E1F80746A0612846216903F0A9
:400B8000D9F8314603F094FA0646606125612846216803F0D9F905463846616803F0D4F90146284603F0C8F805463046A16803F0CBF90146284603F0BFF8A062F8BD00BF0D
:400BC000FEE700BF08B5094B1A681044084BC31A802B02DC054B186005E003F0A1FB0C2303604FF0FF32104608BD00BF0C81FF1F0883FF1F08B5104E104D16E029686B6873
:400C0000AC68002204E051F8040B43F8040B0432A242F8D1E868002203E0002143F8041B04328242F9D11035013E002EE6D103F07DFBFFF727FAFEE701000000F84D00006B
:400C400008B5124A124B1A60124A136843F40073136000230AE0032B03D80F4A52F8231000E00E490E4A42F8231001332F2BF2D90C4B1A780C4B1A70094A0C4B1A6000F071
:400C8000B9F800220A4B1A6008BD00BF0004FA050CED00E014ED00E000000000C10B00000080FF1FBC7600400481FF1F08ED00E00081FF1FFEE700BFF0B40022174611E0A6
:400CC00050F82760F3B226F0FF0608E001EB420511F812406D78A5550132013BDBB2002BF4D10137282FEBD9F0BC7047064B1B78DBB203F00701054A11701B090132137058
:400D00004422034B1A707047CF0100496E5800407658004008B50A46002103F038FB08BD38B50122264B1A801823264A137045F6BF5102321180023213700622224B1A7049
:400D40005222A3F580731A70204B1B78DBB2204A13704FF4E1621F4B1A8041F25122023B1A80002419250CE01B4B1B7803F0010343EA440404F003044FF4F07000F0DCF856
:400D8000013D0DB1032CEFD115B90320FFF792FF124A4FF48073138007231370002310490B7048200231087013700532137002220C4B1A700C4A137843F00303137038BD20
:400DC0008040004082400040004300400F010049A14600402242004025420040044000400640004001400040A243004008B503F0C3FA08BD38B572B63C4A137843F0040361
:400E0000137000240CE03A4963001A1952000A4423445B00C8589188FFF77CFF0134E4B2062CF0D900240FE03149A3001A1952000A4452F82C0F23445B000B4451689A8EBA
:400E4000FFF7D4FF0134E4B2012CEDD94FF090402849FFF731FF284A137843F0020313701032137843F002031370244C237843F040032370A2F58632513A137843F0100346
:400E800013701F481F490822FFF7B0FF1E481F490A22FFF7ABFF1E481E490A22FFF7A6FF1D481E490822FFF7A1FF1D481D490822FFF79CFF84221C4B1A70442203F5B063C9
:400EC0001A701A4A137843F008031370184D61232B70FFF725FF81232B70FFF707FF154821460E22FFF782FF38BD00BFE8460040E84B0000A400004803500140A04300407C
:400F000002510040A80F0048C0510040B00F0048F0510040BC0F004812510040C80F004822510040D00F0048DB0801402243004000480040B04300400230800803D000BFC7
:400F400001380046FCD17047EFF3108072B6704780F31088704700BF01BE704708B5034B1B7A03FB00F0FFF7E7FF08BD1081FF1F70B504460E46074B1D681F2802D900206C
:400F8000FFF7EAFF04F01F04103455F8240045F8246070BD08ED00E038B504460D46072902D90020FFF7D8FF1F2C02D90020FFF7D3FF04F01F0000F1604000F564406D0188
:400FC000EDB2057038BD00BF134B1B78DBB20360124A127843EA02230360114A127843EA024303600F4A127843EA026303600E4B1B78DBB243600D4A127843EA0223436029
:401000000B4A127843EA024343600A4A127843EA02634360704700BF0301004904010049EC4600400201004901010049000100490501004906010049F8B5FFF785FF054634
:40104000404A137843F0010313701032137843F00103137001273C4B1F700226943B1E7002F5E2521B32137803F07F0313700020FFF774FF354C237803F0F9032370344AB7
:40108000137803F0DF03137023783B4323703846FFF764FF2820FFF761FF2E4B1A7802F07F021A701A7802F0BF021A702378334323703046FFF752FF237843F0040323708C
:4010C0000023254A1370013213702846FFF740FF17200721FFF760FF17202049FFF748FF18200721FFF758FF18201D49FFF740FF15200721FFF750FF15201A49FFF738FF0A
:4011000005200721FFF748FF05201749FFF730FF06200721FFF740FF06201449FFF728FF07200146FFF738FF07201149FFF720FF0C200721FFF730FF0C200E49FFF718FF1E
:40114000F8BD00BFA54300409D6000409443004012600040F851004084600040391A000009180000351A00007D190000B5190000F1190000411A000008B5214B18700023C0
:40118000204A1370204A1370204A1370204A1370204A1370204A1370204A1370204B4FF400021A604FF080721A604FF400121A6020221A6040221A6080221A6011B1012970
:4011C00006D00BE0174A137803F0FE0313700AE0144A137843F00103137004E0114A137843F00103137003220F4B1A708022203B1A700120FFF7A0FE04220C4B1A7008BDA9
:401200003582FF1F3882FF1F5482FF1F5782FF1F4C82FF1F5682FF1F5982FF1F3482FF1F00E100E009600040286000401260004038B505460C46064B1B7823B9FFF7FCFE49
:401240000122034B1A7028462146FFF795FF38BDDC81FF1F00230A4A13700A4A13700A4A13700A4A13700A4A13700A4A13700A4A13700322094B1A708022203B1A7070475F
:401280003882FF1F5482FF1F5782FF1F4C82FF1F5682FF1F5982FF1F3482FF1F28600040014B1878704700BF5782FF1F431EDBB2072B3BD8F0B4074600EB40039B001C4C56
:4012C0002344DB889BB2C3F500739A4207D900EB40039B002344DA88C2F5007292B200EB40039B00124C2344DB7843EA1223114D04012E192B55D3B2737039B909E0CE5C17
:401300003D010D4C665501339BB200E000239342F5D3430003449B00054A134400225A705A79D2B20001054B1A54F0BC704700BF5C82FF1FFC5F004078600040FE5F0040FF
:401340000246002001E0013080B2135C002BFAD1704700BF10B4FF2400220EE00A4B9B5C03EB43039B0009490B449B78DBB2834201D1144602220132D2B2012AEED920466F
:401380005DF8044B704700BF2482FF1F6482FF1F10B5204C2079FFF7DDFF237813F0800F0ED06378DBB2212B2FD11B4B07221A80C0EBC000194A1044586000F093FA10BDA3
:4013C000144B5B78DBB2202B02D0222B10D01EE0114A07231380C0EBC00310490B4453600F4A135C43F00103135400F0A3FA10BD084B9B780B4A22F81030094A135C43F03B
:401400000203135400F02EF910BD002010BD002010BD00BF006000404082FF1F2081FF1F1C82FF1F3082FF1F2DE9F8438046224B1B78224AD65CF6B2FFF782FF05460027B2
:40144000344606EB46039B001D4A13441B899BB2AB4208D206EB46039B001344B3F808901FFA89F900E0A946304608EB07014A46FFF71CFFC9EB0505ADB245B906EB460367
:401480009B000F4A13441B899BB2994510D14F44BFB204EB44039B00094A13445B7813F0FF0FF6D025B9304600210A46FFF7FEFE002DC5D1BDE8F883DD81FF1F2082FF1F32
:4014C0005C82FF1FC37803F0030390F9020000280FDA032B06D002F001030B48C15442F001020EE0C2F380030848C15442F0040207E0032B05D0C2F340030548C15442F050
:4015000002021046704700BF2082FF1F2482FF1F2882FF1F1C4B19781C4A13880B449BB2138000230EE01A4A51680978C9B21948C1545168013151600133DBB21188013997
:4015400089B21180124A128892B20AB1072BEAD90D4A1278D2B2082A00D05BB10E490A7882F080020A700F210C4A117002210C4A117004E0022209490A7009490A70094A07
:401580001370014A137070473482FF1F3682FF1F4082FF1F00600040CA82FF1F5582FF1F3882FF1F5882FF1F0222074B1A708022064B1A700F22064B1A700023054A13704C
:4015C000054A1370012070473882FF1FCA82FF1F5582FF1F3482FF1F5882FF1F08B5FFF799FF08BD10B4184B197801F00F010239C9B2164A13880B449BB21380002010E085
:40160000134B5C68134A125CD2B222705A6801325A600130C0B20139C9B21A88013A92B21A800B4B1B889BB20BB10029E8D10A4B19700A4A137883F0800313700B22084B4B
:401640001A705DF8044B7047296000403682FF1F4082FF1F006000405882FF1FCA82FF1F5582FF1F0623064A1370064A13708022054B1A700022054B1A700120704700BF31
:401680003882FF1F5582FF1FCA82FF1F5882FF1F064B9B6843B1054B9A6810709A6804490988518000229A60704700BF4082FF1F3682FF1F08B5134B1A78D2B21A701B789A
:4016C000DBB213F0800F02D00F4A137008BD0220FFF7DEFF0D4B1B7803F06003202B05D0402B06D043B900F095FC06E001F0D8FE03E000F037FE00E0002010B90322024B54
:401700001A7008BD286000405582FF1F0060004008B5084B1978084A13880B449BB213800022064B1A700120FFF7B2FF0322044B1A7008BD3482FF1F3682FF1F3882FF1F36
:401740005582FF1F08B50B4B1B78DBB2042B06D0062B07D0022B0BD1FFF7DAFF08BDFFF741FF08BD0320FFF793FF0322024B1A7008BD00BF3882FF1F5582FF1F08B50022C5
:40178000044B1A700120FFF783FF0322024B1A7008BD00BF3882FF1F5582FF1F08B50B4B1B7813F0FF0F07D0084A137843F0800307490B70002313700022064B1A700120BA
:4017C000FFF766FF0322044B1A7008BD5682FF1F086000403882FF1F5582FF1F08B5094B1B78DBB2042B06D0062B07D0022B07D1FFF7F4FE08BDFFF7C1FF08BDFFF7CEFF32
:4018000008BD00BF3882FF1F08B5284B1B78DBB213F0100F48D013F0800F0CD003F00F03012B16D1FFF746FF214B1B7813F0800F11D1012312E013F0400F03D0FFF7CEFF90
:4018400001230BE013F0200F07D0FFF77BFF012304E0002302E0002300E0002323B3134B1B7813F0800F1FD1124B1B78124A12781343124A13701278D2B29A4214D10C4B33
:401880001B78DBB2094A127812F0800F07D1084B1B78DBB2054A1370137803F00F03044A1278D2B29342EAD108BD00BF286000405582FF1FCA82FF1F5882FF1F2960004095
:4018C0000022064B1A80064B9B682BB1044A916800230B7092685380704700BF3682FF1F4082FF1F08B50F4B1B889BB213B9FFF75BFE15E002220C4B1A7000220B4B1A70AF
:40190000FFF7DEFF0A4AD179937943EA0123054A128892B29A4201D9024A1380FFF7FAFD012008BD4082FF1F3882FF1FCA82FF1F0060004008B504220B4B1A7080220B4BC7
:401940001A70FFF7BDFF0A4AD179937943EA0123084A128892B29A4201D9064A13800B22054B1A70012008BD3882FF1FCA82FF1F006000404082FF1F5582FF1F0A4A1378E4
:4019800003F0FE031370094B9B7C094B1B7B03F00303012B04D0064AD37B83F08003D3730122034B5A7370470B600040FC5F00405C82FF1F0B4A137803F0FD0313700A4BA6
:4019C00093F82230094B1B7E03F00303012B04D0064AD37E83F08003D3760122034B5A76704700BF0B600040FC5F00405C82FF1F0D4A137803F0FB0313700C4B93F83230B1
:401A00000B4B93F8243003F00303012B06D0084A92F8273083F0800382F827300122044B83F82520704700BF0B600040FC5F00405C82FF1F704700BF08B5FFF70BFC08BD9D
:401A400008B500F09BFC08BD70B588B0054603AC174E0FCE0FC43368237035B322232B7003236B7001A8FFF7AFFA002402231AE008AA224412F81C2C08A901EB121111F83C
:401A8000141CE954581C00212954981C02F00F0208AE324412F8142C2A54DA1CA9540134E4B20433DBB2212BE2D908B070BD00BF284C000010B401223DE0114613010C24BC
:401AC0002148C45402EB42039B00204803445B7913F0FF0F12D002EB42039B0003441B7913F0800F04D01001194B03449C700AE01001174B03440820987004E01001144B24
:401B00000344802098704B000B449B000F480344DC88E4B208010C4901448C71D888C0F30720C871D888C0B20871DB88C3F307234B710132D2B2082ABFD9FF22054B1A7010
:401B40005DF8044B704700BF706000405C82FF1FFC5F00400A600040074B1B78074A02EBC30253681A7C824203D903EBC003586970470020704700BF3582FF1F3C4C000005
:401B8000F8B5404B1B7813F0FF0F79D03D4B18780138C0B2FFF7E0FF047AC2683A4B1878C0B200236AE01178814264D13749095CC9B25578A9425ED1917801F07F01D6783C
:401BC00006F00306DFF8C8E04D000D44AD000EEB05074FF0000C87F803C092F802C087F804C092F803C00EF805C095883D8192F90250002D0DDA012E01D1072700E00D27D4
:401C00004D000D44AD00224E35446F7101266E700CE0012E01D1052700E009274D000D44AD001B4E35446F7100266E70DFF868E00F010EEB07060125B57001FA05F529446F
:401C40008900134D29440D89C5F307250EF807500D89EDB27570CE88F6B20E4D3D44AE71CE88C6F30726EE71CE88F6B22E71C988C1F30721697108320133DBB2A34292D3A0
:401C8000F8BD00BF5782FF1F4C82FF1FC882FF1F5C82FF1F70600040FC5F0040034B1A78034B03EBC2035868704700BF3582FF1F3C4C000008B5074B18780138C0B2FFF70A
:401CC0004BFF28B14268127900EBC203586908BD002008BD5782FF1F2DE9F84300220EE06F4E53009D18AD00741900217155A170E1702181A172617061710132D2B2082A90
:401D0000EED940B90AE000226649CA546649CA540133DBB200E00023012BF4D9634B1B7813F0FF0F00F0B980604B18780138C0B2FFF712FF80464368DB7913F0400F05D02C
:401D40005B4A137843F00103137004E0584A137803F0FE03137098F808704FF0000901266CE0D8F80C50002464E0AB7803F07F039E425CD1314606EB46039B0048480344D2
:401D80001B899BB2A888834205D206EB46039B00434A134418812B784248C35CDBB26878834244D195F802C03D484B000B449B0000EB030E8EF804C095F803E000F803E0E7
:401DC000EB7803F0030395F90200002811DA012B02D14FF0070C01E04FF00D0CDFF8C0E04B0058188000704480F805C00123437012E0012B02D14FF0050C01E04FF0090C6A
:401E000027484FEA410E0EEB01039B00034483F805C0194600234B70AB790A2B01D0022B05D1284631464A46FFF74CFB814608350134E4B2BC4298D30136F6B2082E90D9BA
:401E4000D8F80C0000220CE0837803F07F0310F8084B03EB43039B0016490B449C700132D2B2BA42F0D3FFF725FF134B1860002301210EE00A4C4A00501880002044C3805C
:401E8000028913449BB203F0010213449BB20131C9B20829EED9FFF70DFEBDE8F88300BF5C82FF1FC882FF1F3C82FF1F5782FF1F5982FF1F6482FF1F5082FF1F08B5154B93
:401EC0001A7902F07F02531EDBB2072B20D8530013449B0010490B44997841F0010199700021D970597841F0020159701B7913F0800F05D01201094B13448D229A7004E0EC
:401F00001201064B134489229A70FFF7ABFB08BD002008BD006000405C82FF1FFC5F0040264B1B7903F07F035A1ED2B2072A43D810B55A001A44920021490A44917801F031
:401F4000FE0191700021D17019017F241D484454517801F0FD015170127912F0800F14D003EB4302920016490A445278D2B2012A05D11B0102461A440C23937019E01B0102
:401F8000104A1A440D23937013E003EB430292000B490A445278D2B2012A05D11B01094A1A440823937004E01B01064A1A4409239370FFF757FB10BD002070470060004029
:401FC0005C82FF1FFC5F004010B50E4B1C79E4B20D4B18780138C0B2FFF7BEFD43681B799C4201D9022C0AD8084A135DDBB208490B55044B9B78DBB21355012010BD002051
:4020000010BD00BF006000405782FF1FC882FF1F3C82FF1F10B59B4B1B78DBB200219A4A118013F0800F00F0AD80964A5278D2B20A2A00F27281DFE812F0690070017001CE
:402040007001700170010B007001920070019A008C4BDB78DBB2012B09D1FFF71FFE4268894B5A6012221A80FFF73CFC10BD854BDB78DBB2022B13D1824B9878FFF76CFD26
:40208000002800F04C8142687F4B5A605A68D1785A68927842EA01221A80FFF723FC10BD784BDB78DBB2032B05D02CE00A7811440133DBB201E000237449724A9278D2B216
:4020C0009A4203D90A7812F0FF0FEFD16D4B9B7813F0FF0F0BD06B4B9B78DBB26C4A127C934204D16B4C2046FFF7AEFC21460B7813F0FF0F00F015810B78634A1380516029
:40210000FFF7F0FB10BD01F0CBF910BD13F0030317D0022B40F007815B490B80594B1B7903F07F0303EB43039B005B4A13449A78D2B25A4B1A7000225A704B60FFF7D2FBD4
:4021400010BD514902230B80554B1A78D2B2534B1A7000225A704B60FFF7C4FB10BD4A4B01221A804F4A5A60FFF7BCFB10BD464A01231380434B1B794B490B445360FFF73D
:40218000B1FB10BD3F4A5278013A0A2A00F2CD80DFE812F04B00CB009600CB000B00CB00CB00CB001300CB003000364B9B78DBB23E4A1370FFF756FA10BD324B9B7803F029
:4021C000FF041BB1601EC0B2FFF7C6FC04B110B9002C40F0AC80334B1B78DBB29C4206D0304B1C700120324B1870FFF775FDFFF739FA10BDFFF7E8FE002800F09A80214A0C
:402200001379DBB21279D2B22A490A702A4AD25C2549C95CD3B28B4204D00122244B1A70FFF7AEFCFFF71EFA10BD03F00303012B17D04BB1022B7ED1124B9B7813F0FF0F92
:402240007BD1FFF76DFE10BD0E4B9B78DBB2012B75D1134A137803F0FD031370FFF702FA10BD084B1B79DBB2012B6AD8054B98781B79DBB21149CA5C22EA0002CA54FFF757
:40228000F1F910BD006000404082FF1FA44C0000884D0000E082FF1F5C82FF1FE081FF1F5982FF1F5782FF1FC882FF1F5682FF1F5482FF1F4C82FF1F3C82FF1FCC82FF1FB1
:4022C00003F00303012B17D04BB1022B3BD1224B9B7813F0FF0F38D1FFF7F0FD10BD1E4B9B78DBB2012B32D11C4A137843F002031370FFF7B7F910BD174B1B79DBB2012B4D
:4023000027D8154B98781B79DBB21549CA5C22EA0002CA54FFF7A6F910BD002010BD002010BD002010BD002010BD002010BD002010BD002010BD002010BD002010BD002086
:4023400010BD002010BD002010BD002010BD002010BD002010BD00BF006000405982FF1FCC82FF1F044B1B7813F0800F01D0024B5B780020704700BF00600040024B1878B3
:40238000C0F38010704700BF8F450040024A137843F080031370704778650040024A137803F07F031370704778650040014B1870704700BF88650040014B1878704700BF00
:4023C0006865004008B50146014801F05FF808BD28650040024B186820F07F40704700BF4865004008B50146014801F04FF808BD08650040024A137843F01003137070475C
:402400007865004000F00300044B1A7802F0FC021A701A7810431870704700BF7865004008B501E0FFF7D6FFFFF7C6FF10F0080FF8D108BD10B50D4C2046FFF7C3FF2046C6
:40244000FFF7D0FFFEF780FD094A137843F010031370FEF77DFDFFF7CDFF0020FFF7D2FFFFF7DEFF0320FFF7A1FF10BD1FA107009865004008B5054B1B7823B9FFF7DAFFBE
:402480000122024B1A70FFF781FF08BDE481FF1F014B1B689864704708ED00E04001C0B2014B1870704700BF02E400E00422014B1A60704700E100E00422014B1A60704743
:4024C00080E100E010B50446FFF7F6FF2046FFF7DFFF0720FFF7E2FFFFF7E8FF10BD00BF014B1B681864704708ED00E04001C0B2014B1870704700BF00E400E00122014BF9
:402500001A60704700E100E00122014B1A60704780E100E010B50446FFF7F6FF2046FFF7DFFF0720FFF7E2FFFFF7E8FF10BD00BF024B187800F00100704700BF0151004057
:40254000024A137843F080031370704775650040024A137803F07F031370704775650040014B1870704700BF86650040014B1878704700BF6665004008B50146014800F0CB
:4025800085FF08BD24650040024B186820F07F40704700BF4465004008B50146014800F075FF08BD04650040024A137843F01003137070477565004000F00300044B1A78AA
:4025C00002F0FC021A701A7810431870704700BF7565004008B501E0FFF7D6FFFFF7C6FF10F0080FF8D108BD10B50D4C2046FFF7C3FF2046FFF7D0FFFEF7A6FC094A1378BF
:4026000043F010031370FEF7A3FCFFF7CDFF0020FFF7D2FFFFF7DEFF0320FFF7A1FF10BD1FA107009665004008B5054B1B7823B9FFF7DAFF0122024B1A70FFF781FF08BDB9
:40264000E581FF1F024B1878C0F34000704700BF01510040014B1B685864704708ED00E04001C0B2014B1870704700BF01E400E00222014B1A60704700E100E00222014B53
:402680001A60704780E100E010B50446FFF7F6FF2046FFF7DFFF0720FFF7E2FFFFF7E8FF10BD00BF024A137843F080031370704771640040024A137803F07F0313707047AB
:4026C00071640040014B1870704700BF81640040014B1878704700BF6164004008B50146014800F0D3FE08BD20640040024B186820F07F40704700BF4064004008B501466E
:40270000014800F0C3FE08BD00640040024A137843F01003137070477164004000F00300044B1A7802F0FC021A701A7810431870704700BF7164004008B501E0FFF7D6FF1B
:40274000FFF7C6FF10F0080FF8D108BD10B50D4C2046FFF7C3FF2046FFF7D0FFFEF7F4FB094A137843F010031370FEF7F1FBFFF7CDFF0020FFF7D2FFFFF7DEFF0320FFF791
:40278000A1FF10BD1FA107009164004008B5054B1B7823B9FFF7DAFF0122024B1A70FFF781FF08BDE681FF1F024B1878C0F3C000704700BF01510040014B1B681865704750
:4027C00008ED00E04001C0B2014B1870704700BF04E400E01022014B1A60704700E100E01022014B1A60704780E100E010B50446FFF7F6FF2046FFF7DFFF0720FFF7E2FFAD
:40280000FFF7E8FF10BD00BF024A137843F080031370704772640040024A137803F07F031370704772640040014B1870704700BF85640040014B1878704700BF65640040E8
:4028400008B50146014800F021FE08BD24640040024B186820F07F40704700BF4464004008B50146014800F011FE08BD04640040024A137843F0100313707047726400404F
:4028800000F00300044B1A7802F0FC021A701A7810431870704700BF7264004008B501E0FFF7D6FFFFF7C6FF10F0080FF8D108BD10B50D4C2046FFF7C3FF2046FFF7D0FFA1
:4028C000FEF742FB094A137843F010031370FEF73FFBFFF7CDFF0020FFF7D2FFFFF7DEFF0320FFF7A1FF10BD1FA107009564004008B5054B1B7823B9FFF7DAFF0122024B13
:402900001A70FFF781FF08BDE781FF1F024B1878C0F38000704700BF01510040014B1B68D864704708ED00E04001C0B2014B1870704700BF03E400E00822014B1A60704732
:4029400000E100E00822014B1A60704780E100E010B50446FFF7F6FF2046FFF7DFFF0720FFF7E2FFFFF7E8FF10BD00BF024A137843F080031370704777650040014B18705C
:40298000704700BF07650040014B1870704700BF47650040014B1870704700BF27650040014B1870704700BF37650040014B1870704700BF87650040014B1878704700BFBB
:4029C00067650040014B1878704700BF5765004008B501E0FFF7F6FFFFF7EEFF10F0100FF8D108BD10B5134A137803F0C00343F009031370104C237843F001032370FF205F
:402A0000FFF7BCFFFF20FFF7BFFF0020FFF7C2FF0020FFF7C5FF0020FFF7C8FFFEF794FA237843F010032370FEF792FAFFF7D0FF10BD00BF776500409765004008B5054B56
:402A40001B7823B9FFF7CEFF0122024B1A70FFF78DFF08BDE881FF1F024A137843F080031370704778640040014B1870704700BF0A640040014B1870704700BF4A64004049
:402A8000014B1870704700BF2A640040014B1870704700BF3A640040014B1870704700BF8A640040014B1878704700BF6A640040014B1878704700BF5A64004008B501E010
:402AC000FFF7F6FFFFF7EEFF10F0100FF8D108BD10B5134A137803F0C00343F009031370104C237843F001032370FF20FFF7BCFFFF20FFF7BFFF0020FFF7C2FF0020FFF7E5
:402B0000C5FF0020FFF7C8FFFEF71EFA237843F010032370FEF71CFAFFF7D0FF10BD00BF786400409A64004008B5054B1B7823B9FFF7CEFF0122024B1A70FFF78DFF08BD3D
:402B4000E981FF1F024A137843F080031370704777640040014B1870704700BF07640040014B1870704700BF47640040014B1870704700BF27640040014B1870704700BF62
:402B800037640040014B1870704700BF87640040014B1878704700BF67640040014B1878704700BF5764004008B501E0FFF7F6FFFFF7EEFF10F0100FF8D108BD10B5134AE0
:402BC000137803F0C00343F009031370104C237843F001032370FF20FFF7BCFFFF20FFF7BFFF0020FFF7C2FF0020FFF7C5FF0020FFF7C8FFFEF7A8F9237843F010032370D6
:402C0000FEF7A6F9FFF7D0FF10BD00BF776400409764004008B5054B1B7823B9FFF7CEFF0122024B1A70FFF78DFF08BDEA81FF1F38B50222114B1A7081220E3B1A700822B9
:402C400002331A700F2511331D70002401331C704FF400420A4B1A6028460721FEF79CF928460849FEF784F91022074B1A70074B1C70074B1C70074B1C7038BDD64900400B
:402C800080E100E0E52C0000CE82FF1FD682FF1FDC82FF1FD582FF1F08B5FEF755F9064A137843F0040313701032137843F004031370FEF74DF908BDA543004008B5074B94
:402CC0001B7823B9FFF7B4FF0122044B1A70FFF7E3FF4FF40042024B1A6008BDEB81FF1F00E100E038B5A44B1C78E4B2A34B1B7813F0400F00F0378114F0010F00F01B816B
:402D00009E4B1B78453B052B00F21281DFE813F006008200100110010600DE0004F0DF0504F00A04082C42D1944B1B78DBB2452B35D1934B1B7813F0FF0F10D0914B1B6833
:402D40001B78DBB2904A137004228B4B1A7001228E4B1A704622894B1A702C46EBE08C4B1B7813F0020F0DD08A4A137843F00A0313706022814B1A704FF40042864B1A60A2
:402D80002C46D8E0854A137843F0100313701022834B1A700422023B1A702C46CBE00022754B1A704A22754B1A702C46C3E00A2C2BD1784A137843F0A0031370744B1B78D1
:402DC00013F0020F14D06D4B1B7813F0080F01D0092300E00A236F4A11780B4313706022664B1A704FF400426B4B1A602C46A2E06A4A137843F0100313701022684B1A707C
:402E00000422023B1A702C4695E00020FEF7A4F82C4690E014F0020F35D15C4B1B78584A1278DBB2934210D2584A1378DBB255490968CB5CDBB254490B7004214E4B19708A
:402E400013780133DBB2137075E0514B1B7813F0020F0CD04F4A137843F00A0313706022464B1A704FF400424B4B1A6063E04B4A137843F0100313701022494B1A70042254
:402E8000023B1A7057E0424B1B7813F0020F0CD0404A137843F09A0313706022374B1A704FF400423C4B1A6045E03C4A137843F01003137010223A4B1A700422023B1A705B
:402EC000344A137843F09003137034E0354A1378DBB2354908682C490978C9B2C15413780133DBB213701378304A1278DBB2934203D21022204B1A701DE0254B1B7813F0A2
:402F0000020F0CD0234A137843F00903137060221A4B1A704FF400421F4B1A600BE01F4A137843F0100313700022134B1A7002E00020FEF711F814F0200F1CD00F4B1B7852
:402F400013F0080F01D0012300E00223114A11780B431370114A137803F0EF0313701022064B1A7038BD054B1B7813F0100F02D11022024B1A7038BDD7490040CE82FF1F94
:402F8000DD82FF1FD082FF1FD8490040D582FF1FDE82FF1FD682FF1F80E100E0D6490040D9490040DC82FF1FD882FF1FD482FF1F1A4B1B78DBB2102B29D1194B1B7813F03C
:402FC000080F26D14FF40042164B1A604000C0B229B140F001004922104B1A7002E045220E4B1A70104B1870012201331A700F4B1B7813F0010FFAD00C4B1B7803F00A03B2
:403000000A2B08D11022054B1A700320704702207047012070470020704700BFCE82FF1FD949004080E100E0D8490040D7490040164B1B7813F0040F23D04000C0B229B1FA
:4030400040F001004922124B1A7002E04522104B1A70104B1870122201331A700422023B1A700D4B1B7813F0010FFAD00A4B1B7803F00A030A2B06D11022054B1A700320F2
:403080007047022070470020704700BFD9490040CE82FF1FD8490040D74900400A4B1B7813F0040F0ED01023074A13700421023A1170064A1370064B1B7813F0210FFAD0E0
:4030C0000020704702207047D9490040CE82FF1FD7490040114B1B7813F0040F1BD0104B18700422013B1A7046220E4B1A700E4B1B7813F0010FFAD00B4B1B7813F0020F20
:4031000004D16022074B1A70002070476022054B1A70032070470220704700BFD9490040D8490040CE82FF1FD7490040114B1B7813F0040F1BD0104B1B78DBB2492B05D171
:4031400000220E4B1A704A220B4B1A700B4B1B7813F0010FFAD00A4B1B78DBB218B11021064A117004E06021034A117000E0002318467047D9490040CE82FF1FD74900407D
:40318000D849004008B500F05FF8A0F5004000B208BD00BF08B5002803DB80B280F4004002E0A0F5004080B200F048F808BD00BF024B187800F00F00704700BF6F640040F4
:4031C000014B1870704700BF8F64004008B50F20FFF7F6FFFFF7ECFFFDF7B6FE034A137843F010031370FDF7B3FE08BD9F64004008B500F07BF84FF4004000F01FF8044BAB
:403200001B7813B90122024B1A70FFF7DFFF08BDEC81FF1F024A137843F08003137070477C640040014B1870704700BF8E640040014B1878704700BF6E640040014B188066
:40324000704700BF1A680040024B1B78024B188880B270470D6400409A680040014B188880B270479A680040014B1880704700BF5A680040014B1880704700BF7A6800407E
:4032800008B501E0FFF7EAFFFFF7D2FF10F0400FF8D108BD08B5134B1A7802F0F8021A701A7802F0FC021A70FFF7EAFF4FF40040FFF7DAFF4FF40040FFF7C0FF0020FFF73F
:4032C000B1FFFFF7B5FF4FF40040FFF7D3FFFDF73BFE054A137843F010031370FDF738FE08BD00BF7C6400409E64004008B5054B1B7823B9FFF7CEFF0122024B1A70FFF71A
:4033000089FF08BDED81FF1F08B500F05FF8A0F5004000B208BD00BF08B5002803DB80B280F4004002E0A0F5004080B200F048F808BD00BF024B187800F00F00704700BF0D
:403340006A650040014B1870704700BF8A65004008B50F20FFF7F6FFFFF7ECFFFDF7F4FD034A137843F010031370FDF7F1FD08BD9A65004008B500F07BF84FF4004000F00E
:403380001FF8044B1B7813B90122024B1A70FFF7DFFF08BDEE81FF1F024A137843F08003137070477B650040014B1870704700BF89640040014B1878704700BF696400406B
:4033C000014B1880704700BF10680040024B1B78024B188880B270470864004090680040014B188880B2704790680040014B1880704700BF50680040014B1880704700BF68
:403400007068004008B501E0FFF7EAFFFFF7D2FF10F0400FF8D108BD08B5134B1A7802F0F8021A701A7802F0FC021A70FFF7EAFF4FF40040FFF7DAFF4FF40040FFF7C0FFBB
:403440000020FFF7B1FFFFF7B5FF4FF40040FFF7D3FFFDF779FD054A137843F010031370FDF776FD08BD00BF7B6500409964004008B5054B1B7823B9FFF7CEFF0122024B8D
:403480001A70FFF789FF08BDEF81FF1FCBB20370C1F307234370C1F307418170704700BF08B5124B1B7803F00303012B02D0022B04D00FE00D4B1B79DBB20CE00B4B1B79EA
:4034C00003F07F0303EB43039B00094A13449B78DBB200E00023074A1268D35C022B02D1FDF756FF08BD002008BD00BF006000406482FF1F5082FF1F81F0004102E000BFA8
:4035000083F0004330B54FEA41044FEA430594EA050F08BF90EA020F1FBF54EA000C55EA020C7FEA645C7FEA655C00F0E2804FEA5454D4EB5555B8BF6D420CDD2C4480EAC0
:40354000020281EA030382EA000083EA010180EA020281EA0303362D88BF30BD11F0004F4FEA01314FF4801C4CEA113102D0404261EB410113F0004F4FEA03334CEA133354
:4035800002D0524263EB430394EA050F00F0A780A4F10104D5F1200E0DDB02FA0EFC22FA05F2801841F1000103FA0EF2801843FA05F359410EE0A5F120050EF1200E012AA9
:4035C00003FA0EFC28BF4CF0020C43FA05F3C01851EBE37101F0004507D54FF0000EDCF1000C7EEB00006EEB0101B1F5801F1BD3B1F5001F0CD349085FEA30004FEA3C0CD8
:4036000004F101044FEA445212F5800F80F09A80BCF1004F08BF5FEA500C50F1000041EB045141EA050130BD5FEA4C0C404141EB010111F4801FA4F10104E9D191F0000F81
:4036400004BF01460020B1FA81F308BF2033A3F10B03B3F120020CDA0C3208DD02F1140CC2F10C0201FA0CF021FA02F10CE002F11402D8BFC2F1200C01FA02F120FA0CFC22
:40368000DCBF41EA0C019040E41AA2BF01EB0451294330BD6FEA04041F3C1CDA0C340EDC04F11404C4F1200220FA04F001FA02F340EA030021FA04F345EA030130BDC4F19C
:4036C0000C04C4F1200220FA02F001FA04F340EA0300294630BD21FA04F0294630BD94F0000F83F4801306BF81F480110134013D4EE77FEA645C18BF7FEA655C29D094EA40
:40370000050F08BF90EA020F05D054EA000C04BF1946104630BD91EA030F1EBF0021002030BD5FEA545C05D14000494128BF41F0004130BD14F580043CBF01F5801130BD2C
:4037400001F0004545F0FE4141F470014FF0000030BD7FEA645C1ABF194610467FEA655C1CBF0B46024650EA013406BF52EA033591EA030F41F4002130BD00BF90F0000FB2
:4037800004BF0021704730B54FF4806404F132044FF000054FF0000150E700BF90F0000F04BF0021704730B54FF4806404F1320410F0004548BF40424FF000013EE700BF6A
:4037C00042004FEAE2014FEA31014FEA02701FBF12F07F4393F07F4F81F06051704792F0000F14BF93F07F4F704730B54FF4607401F0004521F0004120E700BF50EA010296
:4038000008BF704730B54FF000050AE050EA010208BF704730B511F0004502D5404261EB41014FF4806404F132045FEA915C3FF4DCAE4FF003025FEADC0C18BF03325FEA1B
:40384000DC0C18BF033202EBDC02C2F1200300FA03FC20FA02F001FA03FE40EA0E0021FA02F11444C1E600BF70B54FF0FF0C4CF4E06C1CEA11541DBF1CEA135594EA0C0F65
:4038800095EA0C0F00F0DEF82C4481EA030621EA4C5123EA4C5350EA013518BF52EA033541F4801143F4801338D0A0FB02CE4FF00005E1FB02E506F00042E0FB03E54FF071
:4038C0000006E1FB03569CF0000F18BF4EF0010EA4F1FF04B6F5007F64F5407404D25FEA4E0E6D4146EB060642EAC62141EA55514FEAC52040EA5E504FEACE2EB4F1FD0CDC
:4039000088BFBCF5E06F1ED8BEF1004F08BF5FEA500E50F1000041EB045170BD06F0004646EA010140EA020081EA0301B4EB5C04C2BFD4EB0C0541EA045170BD41F4801123
:403940004FF0000E013C00F3AB8014F1360FDEBF002001F0004170BDC4F10004203C35DA0C341BDC04F11404C4F1200500FA05F320FA04F001FA05F240EA020001F00042A6
:4039800021F0004110EBD37021FA04F642EB06015EEA430E08BF20EAD37070BDC4F10C04C4F1200500FA04F320FA05F001FA04F240EA020001F0004110EBD37041F10001F5
:4039C0005EEA430E08BF20EAD37070BDC4F1200500FA05F24EEA020E20FA04F301FA05F243EA020321FA04F001F0004121FA04F220EA020000EBD3705EEA430E08BF20EAAF
:403A0000D37070BD94F0000F0FD101F00046400041EB010111F4801F08BF013CF7D041EA060195F0000F18BF704703F00046520043EB030313F4801F08BF013DF7D043EADD
:403A40000603704794EA0C0F0CEA135518BF95EA0C0F0CD050EA410618BF52EA4306D1D181EA030101F000414FF0000070BD50EA410606BF1046194652EA430619D094EACF
:403A80000C0F02D150EA013613D195EA0C0F05D152EA03361CBF104619460AD181EA030101F0004141F0FE4141F470014FF0000070BD41F0FE4141F4780170BD70B54FF0A1
:403AC000FF0C4CF4E06C1CEA11541DBF1CEA135594EA0C0F95EA0C0F00F0A7F8A4EB050481EA030E52EA03354FEA013100F088804FEA03334FF0805545EA131343EA126353
:403B00004FEA022245EA111545EA10654FEA00260EF000419D4208BF964244F1FD0404F5407402D25B084FEA3202B61A65EB03055B084FEA32024FF480104FF4002CB6EBB1
:403B4000020E75EB030E22BFB61A754640EA0C005B084FEA3202B6EB020E75EB030E22BFB61A754640EA5C005B084FEA3202B6EB020E75EB030E22BFB61A754640EA9C001A
:403B80005B084FEA3202B6EB020E75EB030E22BFB61A754640EADC0055EA060E18D04FEA051545EA16754FEA06164FEAC30343EA52734FEAC2025FEA1C1CC0D111F4801F60
:403BC0000BD141EA00014FF000004FF0004CB6E711F4801F04BF01430020B4F1FD0C88BFBCF5E06F3FF6AFAEB5EB030C04BFB6EB020C5FEA500C50F1000041EB045170BD4F
:403C00000EF0004E4EEA113114EB5C04C2BFD4EB0C0541EA045170BD41F480114FF0000E013C90E645EA060E8DE60CEA135594EA0C0F08BF95EA0C0F3FF43BAF94EA0C0FD7
:403C40000AD150EA01347FF434AF95EA0C0F7FF425AF104619462CE795EA0C0F06D152EA03353FF4FDAE1046194622E750EA410618BF52EA43067FF4C5AE50EA41047FF4C5
:403C80000DAF52EA43057FF4EBAE12E74FEA4102B2F1E04324BFB3F5001CDCF1FE5C0DD901F0004C4FEAC0024CEA5070B2F1004F40EB830008BF20F00100704711F0804F9C
:403CC00021D113F13872BCBF01F00040704741F480114FEA5252C2F11802C2F1200C10FA0CF320FA02F018BF40F001004FEAC1234FEAD32303FA0CFC40EA0C0023FA02F3BC
:403D00004FEA4303CCE77FEA625307D150EA01331EBF4FF0FE4040F44000704701F0004040F0FE4040F40000704700BF80F0004002E000BF81F0004142001FBF5FEA41036F
:403D400092EA030F7FEA226C7FEA236C6AD04FEA1262D2EB1363C1BFD218414048404140B8BF5B42192B88BF704710F0004F40F4000020F07F4018BF404211F0004F41F432
:403D8000000121F07F4118BF494292EA030F3FD0A2F1010241FA03FC10EB0C00C3F1200301FA03F100F0004302D5494260EB4000B0F5000F13D3B0F1807F06D340084FEAE1
:403DC000310102F10102FE2A51D2B1F1004F40EBC25008BF20F0010040EA03007047490040EB000010F4000FA2F10102EDD1B0FA80FCACF1080CB2EB0C0200FA0CF0AABFAA
:403E000000EBC25052421843BCBFD0401843704792F0000F81F4000106BF80F400000132013BB5E74FEA41037FEA226C18BF7FEA236C21D092EA030F04D092F0000F08BFC0
:403E40000846704790EA010F1CBF0020704712F07F4F04D1400028BF40F00040704712F100723CBF00F50000704700F0004343F0FE4040F4000070477FEA226216BF084653
:403E80007FEA23630146420206BF5FEA412390EA010F40F4800070474FF0000304E000BF10F0004348BF40425FEA000C08BF704743F0964301464FF000001CE050EA0102D2
:403EC00008BF70474FF000030AE000BF50EA010208BF704711F0004302D5404261EB41015FEA010C02BF84460146002043F0B64308BFA3F18053A3F50003BCFA8CF2083AC0
:403F0000A3EBC25310DB01FA02FC634400FA02FCC2F12002BCF1004F20FA02F243EB020008BF20F00100704702F1200201FA02FCC2F1200250EA4C0021FA02F243EB020015
:403F400008BF20EADC7070474FF0FF0C1CEAD0521EBF1CEAD15392EA0C0F93EA0C0F6FD01A4480EA010C400218BF5FEA41211ED04FF0006343EA501043EA5111A0FB013174
:403F80000CF00040B1F5000F3EBF490041EAD3715B0040EA010062F17F02FD2A1DD8B3F1004F40EBC25008BF20F00100704790F0000F0CF0004C08BF49024CEA502040EA6D
:403FC00051207F3AC2BFD2F1FF0340EAC250704740F400004FF00003013A5DDC12F1190FDCBF00F000407047C2F10002410021FA02F1C2F1200200FA02FC5FEA310040F14B
:40400000000053EA4C0308BF20EADC70704792F0000F00F0004C02BF400010F4000F013AF9D040EA0C0093F0000F01F0004C02BF490011F4000F013BF9D041EA0C018FE765
:404040000CEAD15392EA0C0F18BF93EA0C0F0AD030F0004C18BF31F0004CD8D180EA010000F00040704790F0000F17BF90F0004F084691F0000F91F0004F14D092EA0C0F3E
:4040800001D142020FD193EA0C0F03D14B0218BF084608D180EA010000F0004040F0FE4040F40000704740F0FE4040F4400070474FF0FF0C1CEAD0521EBF1CEAD15392EAD1
:4040C0000C0F93EA0C0F69D0A2EB030280EA010C49024FEA402037D04FF0805343EA111143EA10130CF000408B4238BF5B0042F17D024FF4000C8B4224BF5B1A40EA0C0078
:40410000B3EB510F24BFA3EB510340EA5C00B3EB910F24BFA3EB910340EA9C00B3EBD10F24BFA3EBD10340EADC001B0118BF5FEA1C1CE0D1FD2A3FF650AF8B4240EBC250DA
:4041400008BF20F0010070470CF0004C4CEA50207F32C2BFD2F1FF0340EAC250704740F400004FF00003013A37E792F0000F00F0004C02BF400010F4000F013AF9D040EAFA
:404180000C0093F0000F01F0004C02BF490011F4000F013BF9D041EA0C0195E70CEAD15392EA0C0F08D142027FF47DAF93EA0C0F7FF470AF084676E793EA0C0F04D14B0251
:4041C0003FF44CAF08466EE730F0004C18BF31F0004CCAD130F000427FF45CAF31F000437FF43CAF5FE700BF4FF0FF3C06E000BF4FF0010C02E000BF4FF0010C4DF804CD8E
:404200004FEA40024FEA41037FEA226C18BF7FEA236C11D001B052EA530C18BF90EA010F58BFB2EB030088BFC81738BF6FEAE17018BF40F0010070477FEA226C02D15FEAE2
:40424000402C05D17FEA236CE4D15FEA412CE1D05DF8040B704700BF844608466146FFE70FB5FFF7C9FF002848BF10F1000F0FBD4DF808EDFFF7F4FF0CBF012000205DF858
:4042800008FB00BF4DF808EDFFF7EAFF34BF012000205DF808FB00BF4DF808EDFFF7E0FF94BF012000205DF808FB00BF4DF808EDFFF7D2FF94BF012000205DF808FB00BF72
:4042C0004DF808EDFFF7C8FF34BF012000205DF808FB00BF4FEA4002B2F1FE4F0FD34FF09E03B3EB12620DD94FEA002343F0004310F0004F23FA02F018BF404270474FF0D8
:404300000000704712F1610F01D1420205D110F0004008BF6FF0004070474FF000007047014B1868704700BF9C81FF1F0E4B70B51E460E4C0025E41AA410A54204D056F87B
:40434000253098470135F8E700F044FD084B094C1E46E41AA4100025A54204D056F8253098470135F8E770BDE04D0000E04D0000E04D0000E84D000010B5431E0A4491425E
:4043800004D011F8014B03F8014FF8E710BD03460244934202D003F8011BFAE7704700000EB400B54FF402719CB0ADF814106FF00041049107914FF6FF711DABADF81610A1
:4043C000084953F8042B02900690086802A9019300F064F8029B00221A701CB05DF804EB03B070479C81FF1F2DE9F0478E688246B3420C469046994640D38A8912F4906F9F
:404400003AD02568096902236F1A656905EB450595FBF3F57B1C4B449D4238BF1D4653050FD5294600F030FB064698B121693A46FFF7A2FFA38923F4906343F08003A381DA
:4044400013E02A4600F076FB064670B95046216900F0D6FA0C23CAF80030A3894FF0FF3043F04003A381BDE8F08726613E4426604E466561ED1BA560B14500D24E463246E8
:404480002068414600F0A0FAA36800209B1BA36023681E442660BDE8F08700002DE9F0439DB003938B8906461C060D4690460CD50B6953B9402100F0E7FA2860286110B9AC
:4044C0000C233360CCE040236B610023099320238DF8293030238DF82A3043461C4613F8012B1AB9B4EB08090FD002E0252AF5D1F8E73046294642464B46FFF775FF01301A
:4045000000F0A980099B4B4409932378002B00F0A28000234FF0FF3204930793059206938DF853301A9304F101084446DFF8489121784846052200F039FA08F10108049BC8
:4045400030B1C9EB00000122824013430493ECE7D80644BF20228DF85320190744BF2B228DF8532022782A2A02D0079923460EE0039A0134111D12680391002ABBBF524281
:4045800043F0020307920792B8BF04930AE01C4622780133303A092A03D80A2000FB0121F5E7079123782E2B1AD163782A2B0AD1039B02341A1D1B680392002BB8BF4FF048
:4045C000FF3305930CE0611C00220C4623780131303B092B03D80A2000FB0232F5E70592DFF8988021784046032200F0DFF938B1049AC8EB00004023834013430493013484
:4046000021781A48062204F101088DF8281000F0CDF988B1164B33B9039B073323F007030833039313E003AB0093304604A92A46104BAFF3008007E003AB0093304604A90B
:404640002A460C4B00F092F8421C074603D0099B3B44099341E7AB895B0601D4099801E04FF0FF301DB0BDE8F08300BFA84D000000000000E94300009E4D0000A44D000099
:404680002DE9F84391461F468A680B6906469342B8BF1346C9F8003091F843200C46DDF8208012B10133C9F800302368990642BFD9F800300233C9F80030256815F006059B
:4046C0001CD094F843302268003318BF012392061FD5E118302081F843005A1C94F845102244023382F8431013E03046394604F119020123C047013007D00135E368D9F84A
:4047000000209B1A9D42F0DBDBE74FF0FF30BDE8F8833046394604F14302C0470130F4D02268D9F80050E36802F00602042A08BF5D1B2269A3680CBF25EAE575002593425E
:40474000C4BF9B1AED184FF00009A9450ADA3046394604F11A020123C0470130D5D009F10109F2E70020BDE8F88300002DE9FF410C461746227E98466E2A06460A9B01F1C0
:40478000430100F0B08012D8632A23D00AD8002A00F0BD80582A40F0CC8084F84520DFF804E257E0642A1ED0692A1CD0C1E0732A00F0B18009D86F2A2ED0702A40F0B9804A
:4047C000226842F0200222603FE0752A24D0782A3BD0AEE01A6804F14205111D1960136884F84230A9E020681A6810F0800F02D0101D186008E010F0400F02F1040018605F
:4048000002D0B2F9003000E01368002B3EDA2D225B4284F8432039E020681A6810F0800F02D0101D186007E010F0400F02F10400186001D0138800E01368227EDFF864E111
:404840006F2A0CBF08220A221CE07822DFF858E184F845202268186812F0800F00F104051D6003D1550601D5038800E00368D00744BF42F0200222601BB9226822F02002C8
:4048800022601022002084F8430002E0DFF814E10A226568002DA8BF2068A560A4BF20F00400206003B965B10D46B3FBF2F002FB10331EF8033005F8013D03460028F4D1F7
:4048C00000E00D46082A0BD12368DA0708D5236962689A42DEBF302305F8013C05F1FF35491B21612EE025681A6815F0800F606903D0151D1D60136808E015F0400F02F11C
:4049000004051D60136801D0188000E01860002323610D4616E01A68111D1960156800212846626800F042F808B1401B6060636804E004F1420584F8422001232361002334
:4049400084F84330CDF800803046214603AA3B46FFF796FE013002D14FF0FF301FE0304639462A462369C0470130F5D023689B0705D4E068039B9842B8BF18460FE0002560
:40498000E368039A9B1A9D42F3DA3046394604F119020123C0470130DED00135F0E704B0BDE8F081AF4D0000C04D000010B5C9B202449042034605D01C7801308C42F8D1ED
:4049C000184610BD002010BD814210B501EB020301D3421E0BE09842FBD28118D21AD34204D013F8014D01F8014DF8E710BD994204D011F8014B02F8014FF8E710BD0000AC
:404A000030B500293CD051F8042C0B1F1D49002AB8BF9B180A680C4612B95A600B6030BD93420DD219685818904201BF5A5852181A60426823605A6030BD994203D80A46B7
:404A400051680029F9D1146815199D420AD11B682344D0188842136012D10868034413604B680CE002D90C23036030BD1C681819884201BF086849680019186059605360B4
:404A800030BD00BFF481FF1F70B5CC1C24F0030408340C2C38BF0C24002C064603DA0C233360002070BD8C42F9D3204A136810461946A1B10A68121B0ED40B2A03D90A600E
:404AC0008B188C501FE08B420BBF5A684A6802605A6018BF0B4616E00B464968E9E7144D2B681BB9304600F04BF828603046214600F046F8421C0346D1D0C51C25F00305D7
:404B000085420AD11C6003F10B001A1D20F00700821A0AD05142995070BD3046E91A00F02FF80130BBD02B46ECE770BDF481FF1FF081FF1FF8B5074615460E4621B9114632
:404B4000BDE8F840FFF7A0BF1AB9FFF759FF2846F8BD00F025F8A8420ED238462946FFF793FF044650B131462A46FFF705FC38463146FFF745FF01E03046F8BD2046F8BDF4
:404B800038B5064C0023054608462360FCF71AF8431C02D1236803B12B6038BD0483FF1F51F8040C0028BEBF091851F8043CC0180438704700000000496E69742E2E2E004B
:404BC0005B256C645D202564202564202564202564202D202564202564202564202D202564202564200D0A00C849004019003051004040000000014000100014014000082D
:404C000000400140000A004C01400002105001401000000060520040900F0048060000500140980F0048100030313233343536373839414243444546000000000100000097
:404C4000444C000001000000884D00000000000000000000010000005C4C000001000000444D000003000000884C00000000000000000000000000000000000000000000BC
:404C8000844C0000020A000000008103080002000100820240000A000100030240000A0002030000040309042C0343007900700072006500730073002000530065006D00F5
:404CC000690063006F006E0064007500630074006F007200100355005300420055004100520054003803430044004300200043006F006D006D0075006E0069006300610080
:404D0000740069006F006E00200049006E007400650072006600610063006500260343004400430020004400610074006100200049006E007400650072006600610063002F
:404D400065000000090243000201018032090400000102020103052400100104240202052406000105240100010705810308000A09040100020A0000040705820240000063
:404D800007050302400000001201000202000008B40432F201000102800100004300232D302B2000686C4C006566674546470030313233343536373839414243444546004E
:404DC0003031323334353637383961626364656600000000F8B500BFF8BC08BC9E4670474D000000410C0000F8B500BFF8BC08BC9E46704729000000084E00000881FF1F93
:404E00009800000068010000000000000883FF1F0000E02EC05D00001800000000366E0100C2010000000800C201000000080000A120000000000200000000000000000087
:404E4000000000000000000000000000000000000000000000000000000000009C4D0000000000000000000000000000000000000000000000000000000000000000000049
:404E8000000000000000000000000000000000000000000000000000000000003C81FF1F000000000000000000000000000000000000000000000000000000000000000017
:404EC00000000000000000000000000000000000000000000000000000000000000000000000000000000000000000000000000000000000000000000000000000000000B2
:404F00000000000000000000000000000000000000000000000000000000000000000000000000000000000000000000000000000000000000000000000000000000000071
:404F40000000000000000000000000000000000000000000000000000000000000000000000000000000000000000000000000000000000000000000000000000000000031
:404F800000000000000000000000000000000000000000000000000000000000000000000000000000000000000000000000000000000000000000000000000000000000F1
:020000040003F7
:0200000480007A
:40000000014500400352004007640040046500405A00014030010140550201403403014065040140470501405106014037070140610801403E090140540A0140480B014081
:40004000590C0140430D0140450E0140310F01406014014038150140491601402D1701405E18014040190140541A0140421B0140094001400E4101401242014009430140F2
:400080000A45014006460140074701400E48014014490140114C01400B4D014006500140035101407E0208A009307C40810F850F870F896F8A0F8E6F8F0F860F870F880F37
:4000C0008A0F010C03030503070C0D050F0A190F1D0A1F052D07350F4032420149FF4AFF4BFF4F01501859045A045D095F016040624064406540668068806A806C806E803D
:40010000837884048528860287508A088D288E0F8F509303970199189A0D9B609F02A20FA402A501A604A704A918AB60AF03B008B201B378B403B504B604B703BE45C0320C
:40014000C201C9FFCAFFCBFFCD83CE03CF01D018D293D403D604D804D904DA04DB04DC99DD99DF01E040E240E440E540E680E880EA80EC80EE800508060807020E081680C4
:4001800017081C501DC81E092004211022102680272828022D082E802F0432503690370A390A3B803E45401041804208458846085C405F2567406C016E6076807702874034
:4001C0008D08C0E0C240C430CA78CCFCCEDBD07ED6F0D880E0400006040206040A180C0112701402160418061E4820282A78340736783AB04032420145EC4702481349FF8B
:400200004AFF4BFF4D834E034F015018529358045A045B045C095D995F016040624064406540668068806A806C806E808160830884018542860287098B048C028E018F78F9
:400240009210938095019604970299589B209D609E089F10A101A302A401A501A602A702AC01AD38AE02B008B104B210B303B404B580B603B778BA80BB08D804D904DF018D
:400280000004018004020544070409400A500D020E2A1212171119891A581E0E202421042242280229093256390A3A103B80458846084F0556086F0574828490894090024A
:4002C00091209220950A9684978D980299409E08A188A210B002B404C0F5C2FDC455CA0BCC0FCE0FD070E008070F090B0A0D0B040D080F01110C13021A081C041D0C1E02EC
:400300001F01220F240226042D072E0F3008310F3203340436013E514012420649FF4AFF4BFF4F015018580459045A045C095D095F016040624064406540668068806A804E
:400340006C806E80800A81068318860388408E0F9030910A93149506960697189A0D9C109E209F01A030A410A620A71EAD0AAF14B070B20FB31EB501B701BA0BC052C20628
:40038000C9FFCAFFCBFFCD83CE03CF01D018D403D604D804D904DA04DB04DC99DD99DF01E040E240E440E540E680E880EA80EC80EE80001004020564088009600D020E2AC3
:4003C0000F02108312201705181119201A4A1B201D061F06210122022620272228022F22324233303480370539283B803F0240014120452049204E055D015E405F24644068
:4004000080408440900291289280938095029708988299409B059D049F10A082A215A502AE10B180B340B640C0F2C2F3C43DCA58CCD9CE8ED02CD234D6F0D880EA06EE04CA
:400440000A010D01130116011F0223032F03300131034052420645EC4620480B49FF4AFF4BFF4D834E034F015018580459045A045C905D095F0160406240644065406680A8
:4004800068806A806C806E808A068F01910897029E049F0CA602AA01AD02B004B104B301B402B508B601B702BE10C030C106C5D2C605C701C817C9FFCAFFCBFFCDA0CF04C6
:4004C000D018D280D407D804D904DA04DB04DF01E040E2C0E440E540E6C0E8C0EAC0ECC0EEC00010041009800C08102819401A041B021C40201021022250278029402C81C9
:400500003028319237823B403D8040104520482049114D014E054F0450085180552059015AA473408B02920A94409501970498019B02A080A140A520AD01C042C221C40614
:40054000CA98CC9BCE18D022D234D60FE680EC02001001020202031C09060B68101612081418160218181A041E1E21012378280E29022B342D562E0131783201341E35073C
:400580003B324036410249FF4AFF4BFF4DA04F0150185280580459045A045B045C905F016040628064406540668068406A806C406D206E8084018501900896029A029B0322
:4005C000A001A20CA401B004B208B302B401B602B701B820BE14BF40C036C102C532C6C4C70EC81FC9FFCAFFCBFFCDAFCE07CF01D018D40FD804D904DA04DB04DF05E0405F
:40060000E280E440E540E680E840EA80EC40ED20EE80031005020A500B080C010E240F0210A01404175019241A411B101D101E142104230225112F8A303039083D224008C7
:4006400043044408472448A049204F20504051085210581059845B0261086210774078049308961098039B209D129F10A301A610AD04AE20B280B320C014C2FEC4CCCAB050
:40068000CC04CEA2D066D224D60FD806DE02013807060B010C010F3811041602172019381F012108220523102508260227102B402D203004310233783402350436013701F9
:4006C0003E104030410245D246014705481749FF4AFF4BFF4DA04F0450185407580459045A045B045F01604062C06440654066C068C06AC06CC06EC0809481948260836071
:400700008573860F889E89308A608BC990FD919E9202936094CF95FD9630970299CF9B309C309EC99F0FA873B2FFB7FFBE04BF40D804D904DF0100400512060407200A10E6
:400740000B200C010D090E200F0210A01710184019801A041F08218022112320270129022A042B092C202E08308031083201331036A1370839023A803B283C083D013F10F3
:400780004218482049015080530459815A24898091039310950498029B089D129F11A004A281A301A508AE04B310B621B740C071C2B4C44CCA0FCCFFCEEFD006D60FE81013
:4007C000EA04EC80EE040301050E060909080A100D0113101402150E1604180719021B041C051E021F0E210223042403270828062B012C062E013008320734103501371E76
:400800003F105280580459045B045F01810F84028E019010920893109408950C96109703980899079A149C089E10A002A103A30CA402A90AAB05AD05AF0AB018B10FB20439
:40084000B402B510B601B820BA02BE10C032C101C9FFCAFFCBFFCDA0CF01D018D804D904DA04DF01E040E280E440E540E680E840EA80EC40ED20EE800008021003020504A7
:40088000060409200A920C100E020F1010A01404161118041A921B011D041E441F08212125802680270429122B012C102D052F0831083201331036A0370939023C0A3E4019
:4008C0003F1040044180430474018302840685018E04940495049A019B089F44A0A4A580A680B004B621B708C065C2EFC4ECCAEDCCF7CEF1D00EE204E622EA20EC400203D0
:400900001B011C021F0222082501260428083002310132043302340836013E113F0140324101453246C4470E481F49FF4AFF4BFF4DAF4E074F015018540F580459045A0492
:400940005B045F056040628064406540668068406A806C406D206E80810182028414880C8C02930198019C029F01A001A418AC18B001B101B202B41CB822BE04BF01D40FD8
:40098000D804D904DB04DF010240051106220A010C200E0110A0120814401504174019081A451C081D111E2822092780290A2A0130E03210350136803E014004418042025D
:4009C000430448A0510852505A665D025E285F80610862107A04C0F8C2C1C4BECA02CC9CCE80D00ED6FFD806DE04010602030502070411061A0D1D011E0F210223042A061D
:400A00002C0A300F310735073A023B334032420149FF4AFF4BFF4F015018580459045A045C995D095F016040624064406540668068806A806C806E808101820F834087038C
:400A4000890C8A0D8B308E0F8F03911493289608970199149B289C049E029F02A33CA402A604AD0CAF30B008B201B33CB403B540B604B703BE45C036C201C9FFCAFFCBFF21
:400A8000CD83CE03CF01D018D293D804D904DA04DB04DC99DD99DF01E040E240E440E540E680E880EA80EC80EE8001020510074209A00F22100A170819031B021D981E405A
:400AC0001F40212222202680272829012F42318236A03709380A3E983F024188432045884F206C0F6E106F0176807742860887028B0196409F20A330A588AD40C0D8C2A3BE
:400B0000C423CA91CCF9CEF3D05ED220E088E204E401E620E804EA01EC084036420145EC4620480B49FF4AFF4BFF4D834E034F015018540356045A045B045D995F0160400E
:400B4000624064406540668068806A806C806E80820889018E0D910892029705A30AA604AA01B002B102B201B304B404B508B608B701BE10C040C102C5D2C605C701C8172A
:400B8000C9FFCAFFCBFFCDA0CF04D018D280D407D804D904DA04DB04DF01E040E2C0E440E540E6C0E8C0EAC0ECC0EEC00040038009021028186019401A04201022512B808F
:400BC0003028312032013810404041204588482049014D044F2150085380573059015AA45D045E405F216740710287408C10C009C208C406CA01CC03CE04D055D220D6FFF5
:400C0000D880E208EA020118020F0360040405010602070409280A080B500E0F0F03130317011A0D1F0223782402260429182B602D282F503008320133783403350436044A
:400C400037033E454032420449FF4AFF4BFF4F015018529354035604580459045A045B045C995D995F016040624064406540668068806A806C806E8086018F0390019102BB
:400C80009401A002A402B101B202B302B401B808BE10BF04C036C205C9FFCAFFCBFFCD83CE03CF01D018D804D904DA04DD09DF01E040E240E440E540E680E880EA80EC80B9
:400CC000EE800108040406040741080809020E0810A01708182019181C021D081E481F8021062340268027282C402F8A31023680370938803C043D223E8041084440450876
:400D0000460448095E405F2567806F0A76807741874090809204980B9D829F14A0A0A111A301A610A78AAE01C0F4C24CC42CCAB0CCD1CEF8D0E2D20CD6F0D880E440E80889
:400D4000EA0200020201070408010A020B080D081302240126022B082C012E022F01300331043301350237083A023F404036420545EC4702481349FF4AFF4BFF4D834E03BD
:400D80004F015018540F580459045A045B045D095F016040624064406540668068806A806C806E808120821E8340840E855C87208E01931194189604981899369A029C1061
:400DC0009E029F01A160A501A97CAC16AD6AAE08AF10B21EB30EB401B501B770B908BF10D280D804D904DB04DF0100200102050607110E240F021222140119021E201F24AE
:400E00002020210422622715280A2C012D022F2432023751382039083B403E043F02410848094B0550085204580159145A8077409020920493409705980B99109D029E0428
:400E40009F14A001A108A301A408A610A804B184C0BAC2E0C485CAFCCCB1CECED002D20CD60FE008E204E401E620EA01EC083002322035283B2087108C40CCF0CE10E640BE
:400E8000000203080444321033013580870894409D28A402A620C0F0CC70E4403E10534057048304850890049D289F01A001A402A620A980AA10CE20D460E630EA20EE2085
:400EC0008B409004961097809D209F01A001A402A62009400B200C200F808340871089408C20C20FE60C8B1096409C08A808AA40E00408080B040E40932096409C08C20EAE
:400F0000220184028520900496109D20A001A402A620AF01C840E210E640EA401220164074087B028220830286408809A001A804AA10AE21C430DC80DE20E010E220E480EC
:400F4000E820EA801108132016105F086140631067207B107F408F089330AF14C40ED603D803DE03E4028104831087408A1097809A10A104A710AB20AD40E604100111017C
:400F80001A011B011C011D0100FF01AB03C000000A0C000003000000010100000000000001010101010101000F0F0000000000000300000C0F000F000000000040000000A4
:400FC00000000000C000000000F0F000F0000000F0F00000000000000000000000000000000000000000000000000000000000000000000000000000000000000000000081
:4010000000000000000000000000000000000000000000000000000000000000000000000000000000000000000000000000000000000000000000000000000000000000B0
:401040000000000000000000000000000000000000000000000000000000000000000000000000000000000000000000000000000000000000000000000000000000000070
:401080000000000000000000000000000000000000000000000000000000000000000000000000000000000000000000000000000000000000000000000000000000000030
:4010C00000000000000000000000000000000000000000000000000000000000000000000000000000000000000000000000000000000000000000000000000000000000F0
:0200000490006A
:0400000000004005B7
:0200000490105A
:04000000BC90ACAF55
:0200000490303A
:02000000485363
:0200000490402A
:4000000000000000000000000000000000000000000000000000000000000000000000000000000000000000000000000000000000000000000000000000000000000000C0
:400040000000000000000000000000000000000000000000000000000000000000000000000000000000000000000000000000000000000000000000000000000000000080
:400080000000000000000000000000000000000000000000000000000000000000000000000000000000000000000000000000000000000000000000000000000000000040
:4000C0000000000000000000000000000000000000000000000000000000000000000000000000000000000000000000000000000000000000000000000000000000000000
:0200000490501A
:0C00000000012E16106900012E3958BCBA
:00000001FF