:400000000080002011000000490100004901000008B5044B1A6803F53F5302331A6000F0ADF800BFFA46004010B5054C237833B9044B13B10448AFF300800123237010BD3E
:40004000A081FF1F00000000D0250000084B10B51BB108480849AFF300800848036803B910BD074B002BFBD0BDE81040184700BF00000000D0250000A481FF1F0881FF1F27
:400080000000000008B501F09FFD0C4B186010F0020F05D001F0A4FD094B1B1A074A5360064B1B6813F0010F02D00022034B5A6001F07CFD024801F099FD08BDBC81FF1FE4
:4000C000FFF69E0B10B590B062B60020012100F0D1FB00F007FC0028FBD000F02BFA01F047FD01F0D9FC134801F0EEFD01F0C4FD0021009101A83C2201F057FE0E4B1B688D
:4001000093B113F0020F01D00C4A00E00C4A0A4C636868460B4901F051FE684600F0A6FC0023236001F0A8FD0A2000F023FA01F02DFDE3E785000000BC81FF1FD425000036
:40014000DC250000E8250000FEE700BF08B5094B1A681044084BC31A802B02DC054B186005E001F0EBFD0C2303604FF0FF32104608BD00BF0C81FF1FB882FF1F08B5104EAD
:40018000104D16E029686B68AC68002204E051F8040B43F8040B0432A242F8D1E868002203E0002143F8041B04328242F9D11035013E002EE6D101F0C7FDFFF783FFFEE7DA
:4001C00001000000FC27000008B5124A124B1A60124A136843F40073136000230AE0032B03D80F4A52F8231000E00E490E4A42F8231001332F2BF2D90C4B1A780C4B1A70EC
:40020000094A0C4B1A6000F0B1F800220A4B1A6008BD00BF0004FA050CED00E014ED00E000000000490100000080FF1FBC7600400481FF1F08ED00E00081FF1FFEE700BFBA
:40024000F0B40022174611E050F82760F3B226F0FF0608E001EB420511F812406D78A5550132013BDBB2002BF4D101371F2FEBD9F0BC7047064B1B78DBB203F00701054A32
:4002800011701B09013213704422034B1A707047CF0100496E5800407658004008B50A46002101F082FD08BD38B50122244B1A80182202331A70062203F27E231A70522290
:4002C000A3F580731A701F4B1B78DBB21E4A13704FF4E1621D4B1A8041F25122023B1A80002419250CE01A4B1B7803F0010343EA440404F003044FF4F07000F029F9013DCF
:400300000DB1032CEFD115B90320FFF797FF114A4FF4807313800723137000230E490B7048200231087013700532137002220B4B1A700B4A137843F00103137038BD00BF2B
:40034000804000400F010049A14600402242004025420040044000400640004001400040A243004008B501F015FD08BD38B572B62C4A137843F00403137000240CE02A4927
:4003800063001A1952000A4423445B00C8589188FFF784FF0134E4B2072CF0D94FF090402249FFF74DFF224A137843F0020313701032137843F0020313701E4C237843F09E
:4003C00040032370A2F58632513A137843F010031370194819490822FFF7C4FF184819490A22FFF7BFFF184818490822FFF7BAFF174818490822FFF7B5FF174A137843F064
:4004000008031370154D61232B70FFF74DFF81232B70FFF72FFF124821460E22FFF7A2FF38BD00BFE8460040FC2500008000004803500140A04300400251004010050048CE
:40044000F0510040180500481251004024050048325100402C0500482243004000480040B0430040024A137843F080031370704779650040014B1870704700BF0965004009
:40048000014B1870704700BF49650040014B1870704700BF29650040014B1870704700BF39650040014B1870704700BF89650040014B1878704700BF69650040014B187810
:4004C000704700BF5965004008B501E0FFF7F6FFFFF7EEFF10F0100FF8D108BD10B5134A137803F0C00343F009031370104C237843F001032370FF20FFF7BCFFFF20FFF7A4
:40050000BFFF0020FFF7C2FF0020FFF7C5FF0020FFF7C8FF00F024F8237843F01003237000F022F8FFF7D0FF10BD00BF796500409965004008B5054B1B7823B9FFF7CEFFF9
:400540000122024B1A70FFF78DFF08BDC481FF1F0230800803D000BF01380046FCD17047EFF3108072B6704780F31088704700BF01BE704710B5044605E0084B1868FFF783
:40058000E7FFA4F50044B4F5004FF6D8034B586800FB04F0FFF7DCFF10BD00BF1081FF1F08B5034B1B7A03FB00F0FFF7D1FF08BD1081FF1F70B504460E46074B1D681F2800
:4005C00002D90020FFF7D4FF04F01F04103455F8240045F8246070BD08ED00E038B504460D46072902D90020FFF7C2FF1F2C02D90020FFF7BDFF04F01F0000F1604000F5AB
:4006000064406D01EDB2057038BD00BF134B1B78DBB20360124A127843EA02230360114A127843EA024303600F4A127843EA026303600E4B1B78DBB243600D4A127843EAA8
:40064000022343600B4A127843EA024343600A4A127843EA02634360704700BF0301004904010049EC4600400201004901010049000100490501004906010049F8B5FFF705
:400680006FFF0746404A137843F0010313701032137843F00103137001263C4B1E700225943B1D7002F5E2521B32137803F07F0313700020FFF774FF354C237803F0F903DB
:4006C0002370344A137803F0DF0313702378334323703046FFF764FF2820FFF761FF2E4B1A7802F07F021A701A7802F0BF021A7023782B4323702846FFF752FF237843F0FF
:40070000040323700023254A1370013213703846FFF72AFF17200721FFF760FF17202049FFF748FF18200721FFF758FF18201D49FFF740FF15200721FFF750FF15201A496C
:40074000FFF738FF30460721FFF748FF30461749FFF730FF28460721FFF740FF28461449FFF728FF03200721FFF738FF03201149FFF720FF0C200721FFF730FF0C200E49BD
:40078000FFF718FFF8BD00BFA54300409D6000409443004012600040F8510040846000407D1000004D0E000079100000C10F0000F90F0000351000008510000008B5214B91
:4007C00018700023204A1370204A1370204A1370204A1370204A1370204A1370204A1370204B4FF400021A604FF080721A604FF400121A6002221A6004221A6008221A604D
:4008000011B1012906D00BE0174A137803F0FE0313700AE0144A137843F00103137004E0114A137843F00103137003220F4B1A708022203B1A700120FFF78AFE04220C4BEB
:400840001A7008BDF181FF1FF481FF1F1082FF1F1382FF1F0882FF1F1282FF1F1582FF1FF081FF1F00E100E009600040286000401260004038B505460C46064B1B7823B9D7
:40088000FFF7FCFE0122034B1A7028462146FFF795FF38BDC581FF1F00230A4A13700A4A13700A4A13700A4A13700A4A13700A4A13700A4A13700322094B1A708022203B91
:4008C0001A707047F481FF1F1082FF1F1382FF1F0882FF1F1282FF1F1582FF1FF081FF1F28600040014B1878704700BF1382FF1F431EDBB2072B3BD8F0B4074600EB400304
:400900009B001C4C2344DB889BB2C3F500739A4207D900EB40039B002344DA88C2F5007292B200EB40039B00124C2344DB7843EA1223114D04012E192B55D3B2737039B9F0
:4009400009E0CE5C3D010D4C665501339BB200E000239342F5D3430003449B00054A134400225A705A79D2B20001054B1A54F0BC704700BF1882FF1FFC5F00407860004097
:40098000FE5F00400246002001E0013080B2135C002BFAD1704700BF10B4FF2400220EE00A4B9B5C03EB43039B0009490B449B78DBB2834201D1144602220132D2B2012AC9
:4009C000EED920465DF8044B704700BFE081FF1F2082FF1F10B5204C2079FFF7DDFF237813F0800F0ED06378DBB2212B2FD11B4B07221A80C0EBC000194A1044586000F023
:400A000093FA10BD144B5B78DBB2202B02D0222B10D01EE0114A07231380C0EBC00310490B4453600F4A135C43F00103135400F0A3FA10BD084B9B780B4A22F81030094A4C
:400A4000135C43F00203135400F02EF910BD002010BD002010BD00BF00600040FC81FF1F2081FF1FD881FF1FEC81FF1F2DE9F8438046224B1B78224AD65CF6B2FFF782FF1B
:400A800005460027344606EB46039B001D4A13441B899BB2AB4208D206EB46039B001344B3F808901FFA89F900E0A946304608EB07014A46FFF71CFFC9EB0505ADB245B9F9
:400AC00006EB46039B000F4A13441B899BB2994510D14F44BFB204EB44039B00094A13445B7813F0FF0FF6D025B9304600210A46FFF7FEFE002DC5D1BDE8F883C681FF1F99
:400B0000DC81FF1F1882FF1FC37803F0030390F9020000280FDA032B06D002F001030B48C15442F001020EE0C2F380030848C15442F0040207E0032B05D0C2F34003054829
:400B4000C15442F002021046704700BFDC81FF1FE081FF1FE481FF1F1C4B19781C4A13880B449BB2138000230EE01A4A51680978C9B21948C1545168013151600133DBB2BC
:400B80001188013989B21180124A128892B20AB1072BEAD90D4A1278D2B2082A00D05BB10E490A7882F080020A700F210C4A117002210C4A117004E0022209490A700949CB
:400BC0000A70094A1370014A13707047F081FF1FF281FF1FFC81FF1F006000408682FF1F1182FF1FF481FF1F1482FF1F0222074B1A708022064B1A700F22064B1A700023FB
:400C0000054A1370054A137001207047F481FF1F8682FF1F1182FF1FF081FF1F1482FF1F08B5FFF799FF08BD10B4184B197801F00F010239C9B2164A13880B449BB21380E2
:400C4000002010E0134B5C68134A125CD2B222705A6801325A600130C0B20139C9B21A88013A92B21A800B4B1B889BB20BB10029E8D10A4B19700A4A137883F08003137085
:400C80000B22084B1A705DF8044B704729600040F281FF1FFC81FF1F006000401482FF1F8682FF1F1182FF1F0623064A1370064A13708022054B1A700022054B1A70012047
:400CC000704700BFF481FF1F1182FF1F8682FF1F1482FF1F064B9B6843B1054B9A6810709A6804490988518000229A60704700BFFC81FF1FF281FF1F08B5134B1A78D2B2A6
:400D00001A701B78DBB213F0800F02D00F4A137008BD0220FFF7DEFF0D4B1B7803F06003202B05D0402B06D043B900F095FC06E000F0D8FF03E000F037FE00E0002010B972
:400D40000322024B1A7008BD286000401182FF1F0060004008B5084B1978084A13880B449BB213800022064B1A700120FFF7B2FF0322044B1A7008BDF081FF1FF281FF1F34
:400D8000F481FF1F1182FF1F08B50B4B1B78DBB2042B06D0062B07D0022B0BD1FFF7DAFF08BDFFF741FF08BD0320FFF793FF0322024B1A7008BD00BFF481FF1F1182FF1FA8
:400DC00008B50022044B1A700120FFF783FF0322024B1A7008BD00BFF481FF1F1182FF1F08B50B4B1B7813F0FF0F07D0084A137843F0800307490B70002313700022064BD9
:400E00001A700120FFF766FF0322044B1A7008BD1282FF1F08600040F481FF1F1182FF1F08B5094B1B78DBB2042B06D0062B07D0022B07D1FFF7F4FE08BDFFF7C1FF08BDE0
:400E4000FFF7CEFF08BD00BFF481FF1F08B5284B1B78DBB213F0100F48D013F0800F0CD003F00F03012B16D1FFF746FF214B1B7813F0800F11D1012312E013F0400F03D09F
:400E8000FFF7CEFF01230BE013F0200F07D0FFF77BFF012304E0002302E0002300E0002323B3134B1B7813F0800F1FD1124B1B78124A12781343124A13701278D2B29A4276
:400EC00014D10C4B1B78DBB2094A127812F0800F07D1084B1B78DBB2054A1370137803F00F03044A1278D2B29342EAD108BD00BF286000401182FF1F8682FF1F1482FF1FB8
:400F0000296000400022064B1A80064B9B682BB1044A916800230B7092685380704700BFF281FF1FFC81FF1F08B50F4B1B889BB213B9FFF75BFE15E002220C4B1A70002219
:400F40000B4B1A70FFF7DEFF0A4AD179937943EA0123054A128892B29A4201D9024A1380FFF7FAFD012008BDFC81FF1FF481FF1F8682FF1F0060004008B504220B4B1A7077
:400F800080220B4B1A70FFF7BDFF0A4AD179937943EA0123084A128892B29A4201D9064A13800B22054B1A70012008BDF481FF1F8682FF1F00600040FC81FF1F1182FF1FA7
:400FC0000A4A137803F0FE031370094B9B7C094B1B7B03F00303012B04D0064AD37B83F08003D3730122034B5A7370470B600040FC5F00401882FF1F0B4A137803F0FD03AD
:4010000013700A4B93F82230094B1B7E03F00303012B04D0064AD37E83F08003D3760122034B5A76704700BF0B600040FC5F00401882FF1F0D4A137803F0FB0313700C4BD3
:4010400093F832300B4B93F8243003F00303012B06D0084A92F8273083F0800382F827300122044B83F82520704700BF0B600040FC5F00401882FF1F704700BF08B5FFF78A
:401080000BFC08BD08B500F09BFC08BD70B588B0054603AC174E0FCE0FC43368237035B322232B7003236B7001A8FFF7AFFA002402231AE008AA224412F81C2C08A901EB66
:4010C000121111F8141CE954581C00212954981C02F00F0208AE324412F8142C2A54DA1CA9540134E4B20433DBB2212BE2D908B070BD00BF2C26000010B401223DE01146C0
:4011000013010C242148C45402EB42039B00204803445B7913F0FF0F12D002EB42039B0003441B7913F0800F04D01001194B03449C700AE01001174B03440820987004E019
:401140001001144B0344802098704B000B449B000F480344DC88E4B208010C4901448C71D888C0F30720C871D888C0B20871DB88C3F307234B710132D2B2082ABFD9FF2244
:40118000054B1A705DF8044B704700BF706000401882FF1FFC5F00400A600040074B1B78074A02EBC30253681A7C824203D903EBC003586970470020704700BFF181FF1F06
:4011C00040260000F8B5404B1B7813F0FF0F79D03D4B18780138C0B2FFF7E0FF047AC2683A4B1878C0B200236AE01178814264D13749095CC9B25578A9425ED1917801F06E
:401200007F01D67806F00306DFF8C8E04D000D44AD000EEB05074FF0000C87F803C092F802C087F804C092F803C00EF805C095883D8192F90250002D0DDA012E01D10727E3
:4012400000E00D274D000D44AD00224E35446F7101266E700CE0012E01D1052700E009274D000D44AD001B4E35446F7100266E70DFF868E00F010EEB07060125B57001FA8C
:4012800005F529448900134D29440D89C5F307250EF807500D89EDB27570CE88F6B20E4D3D44AE71CE88C6F30726EE71CE88F6B22E71C988C1F30721697108320133DBB24D
:4012C000A34292D3F8BD00BF1382FF1F0882FF1F8482FF1F1882FF1F70600040FC5F0040034B1A78034B03EBC2035868704700BFF181FF1F4026000008B5074B1878013869
:40130000C0B2FFF74BFF28B14268127900EBC203586908BD002008BD1382FF1F2DE9F84300220EE06F4E53009D18AD00741900217155A170E1702181A172617061710132EB
:40134000D2B2082AEED940B90AE000226649CA546649CA540133DBB200E00023012BF4D9634B1B7813F0FF0F00F0B980604B18780138C0B2FFF712FF80464368DB7913F064
:40138000400F05D05B4A137843F00103137004E0584A137803F0FE03137098F808704FF0000901266CE0D8F80C50002464E0AB7803F07F039E425CD1314606EB46039B004F
:4013C000484803441B899BB2A888834205D206EB46039B00434A134418812B784248C35CDBB26878834244D195F802C03D484B000B449B0000EB030E8EF804C095F803E0B5
:4014000000F803E0EB7803F0030395F90200002811DA012B02D14FF0070C01E04FF00D0CDFF8C0E04B0058188000704480F805C00123437012E0012B02D14FF0050C01E0AC
:401440004FF0090C27484FEA410E0EEB01039B00034483F805C0194600234B70AB790A2B01D0022B05D1284631464A46FFF74CFB814608350134E4B2BC4298D30136F6B2CF
:40148000082E90D9D8F80C0000220CE0837803F07F0310F8084B03EB43039B0016490B449C700132D2B2BA42F0D3FFF725FF134B1860002301210EE00A4C4A00501880002E
:4014C0002044C380028913449BB203F0010213449BB20131C9B20829EED9FFF70DFEBDE8F88300BF1882FF1F8482FF1FF881FF1F1382FF1F1582FF1F2082FF1F0C82FF1FB0
:4015000008B5154B1A7902F07F02531EDBB2072B20D8530013449B0010490B44997841F0010199700021D970597841F0020159701B7913F0800F05D01201094B13448D2286
:401540009A7004E01201064B134489229A70FFF7ABFB08BD002008BD006000401882FF1FFC5F0040264B1B7903F07F035A1ED2B2072A43D810B55A001A44920021490A444B
:40158000917801F0FE0191700021D17019017F241D484454517801F0FD015170127912F0800F14D003EB4302920016490A445278D2B2012A05D11B0102461A440C239370E7
:4015C00019E01B01104A1A440D23937013E003EB430292000B490A445278D2B2012A05D11B01094A1A440823937004E01B01064A1A4409239370FFF757FB10BD002070477E
:40160000006000401882FF1FFC5F004010B50E4B1C79E4B20D4B18780138C0B2FFF7BEFD43681B799C4201D9022C0AD8084A135DDBB208490B55044B9B78DBB213550120AB
:4016400010BD002010BD00BF006000401382FF1F8482FF1FF881FF1F10B59B4B1B78DBB200219A4A118013F0800F00F0AD80964A5278D2B20A2A00F27281DFE812F069005A
:40168000700170017001700170010B007001920070019A008C4BDB78DBB2012B09D1FFF71FFE4268894B5A6012221A80FFF73CFC10BD854BDB78DBB2022B13D1824B98786D
:4016C000FFF76CFD002800F04C8142687F4B5A605A68D1785A68927842EA01221A80FFF723FC10BD784BDB78DBB2032B05D02CE00A7811440133DBB201E000237449724A0F
:401700009278D2B29A4203D90A7812F0FF0FEFD16D4B9B7813F0FF0F0BD06B4B9B78DBB26C4A127C934204D16B4C2046FFF7AEFC21460B7813F0FF0F00F015810B78634AA8
:4017400013805160FFF7F0FB10BD00F0CBFA10BD13F0030317D0022B40F007815B490B80594B1B7903F07F0303EB43039B005B4A13449A78D2B25A4B1A7000225A704B601D
:40178000FFF7D2FB10BD514902230B80554B1A78D2B2534B1A7000225A704B60FFF7C4FB10BD4A4B01221A804F4A5A60FFF7BCFB10BD464A01231380434B1B794B490B44ED
:4017C0005360FFF7B1FB10BD3F4A5278013A0A2A00F2CD80DFE812F04B00CB009600CB000B00CB00CB00CB001300CB003000364B9B78DBB23E4A1370FFF756FA10BD324B50
:401800009B7803F0FF041BB1601EC0B2FFF7C6FC04B110B9002C40F0AC80334B1B78DBB29C4206D0304B1C700120324B1870FFF775FDFFF739FA10BDFFF7E8FE002800F054
:401840009A80214A1379DBB21279D2B22A490A702A4AD25C2549C95CD3B28B4204D00122244B1A70FFF7AEFCFFF71EFA10BD03F00303012B17D04BB1022B7ED1124B9B78E8
:4018800013F0FF0F7BD1FFF76DFE10BD0E4B9B78DBB2012B75D1134A137803F0FD031370FFF702FA10BD084B1B79DBB2012B6AD8054B98781B79DBB21149CA5C22EA000224
:4018C000CA54FFF7F1F910BD00600040FC81FF1FA82600008C2700008C82FF1F1882FF1FC881FF1F1582FF1F1382FF1F8482FF1F1282FF1F1082FF1F0882FF1FF881FF1FE9
:401900008882FF1F03F00303012B17D04BB1022B3BD1224B9B7813F0FF0F38D1FFF7F0FD10BD1E4B9B78DBB2012B32D11C4A137843F002031370FFF7B7F910BD174B1B79A7
:40194000DBB2012B27D8154B98781B79DBB21549CA5C22EA0002CA54FFF7A6F910BD002010BD002010BD002010BD002010BD002010BD002010BD002010BD002010BD002084
:4019800010BD002010BD002010BD002010BD002010BD002010BD002010BD00BF006000401582FF1F8882FF1F044B1B7813F0800F01D0024B5B780020704700BF00600040F5
:4019C000024B1878C0F38010704700BF8F450040024A137843F080031370704775650040014B1870704700BF85650040014B1878704700BF65650040014B1880704700BF32
:401A0000086A0040014B188880B27047886A0040014B1880704700BF486A0040014B1880704700BF686A004008B501E0FFF7EAFFFFF7DCFF10F0400FF8D108BD08B5144AEF
:401A4000137803F0F80343F001031370137803F0FC0343F008031370FFF7E6FF4FF6FF70FFF7D6FF0020FFF7C7FF0020FFF7B8FFFFF7BCFF0020FFF7D1FFFEF771FD054AA9
:401A8000137843F010031370FEF76EFD08BD00BF756500409565004008B5054B1B7823B9FFF7CCFF0122024B1A70FFF791FF08BDCC81FF1F024A137843F0800313707047E6
:401AC00078650040014B1870704700BF08650040014B1870704700BF48650040014B1870704700BF28650040014B1870704700BF88650040014B1878704700BF68650040AE
:401B0000014B1878704700BF5865004008B501E0FFF7F6FFFFF7EEFF10F0100FF8D108BD10B5114A137803F0C00343F0090313700E4C237843F001032370DB20FFF7C2FFA9
:401B4000DB20FFF7C5FF6D20FFF7C8FF0020FFF7CBFFFEF705FD237843F010032370FEF703FDFFF7D3FF10BD786500409865004008B5054B1B7823B9FFF7D2FF0122024B84
:401B80001A70FFF797FF08BDCD81FF1F024B187800F00100704700BF01510040024A137843F080031370704770640040024A137803F07F031370704770640040014B1870BF
:401BC000704700BF83640040014B1878704700BF63640040014B1860704700BF20640040014B1868704700BF40640040014B1860704700BF00640040024A137843F01003D0
:401C0000137070477064004000F00300044B1A7802F0FC021A701A7810431870704700BF7064004008B501E0FFF7DAFFFFF7CCFF10F0080FF8D108BD10B50D4C2046FFF7C4
:401C4000C9FF2046FFF7D2FFFEF78AFC094A137843F010031370FEF787FCFFF7CDFF0020FFF7D2FFFFF7DEFF0220FFF7A7FF10BDFFF69E0B9364004008B5054B1B7823B97D
:401C8000FFF7DAFF0122024B1A70FFF787FF08BDCE81FF1F014B1B681864704708ED00E04001C0B2014B1870704700BF00E400E00122014B1A60704700E100E00122014B45
:401CC0001A60704780E100E010B50446FFF7F6FF2046FFF7DFFF0720FFF7E2FFFFF7E8FF10BD00BF08B5124B1B7803F00303012B02D0022B04D00FE00D4B1B79DBB20CE0DE
:401D00000B4B1B7903F07F0303EB43039B00094A13449B78DBB200E00023074A1268D35C022B02D1FEF756FE08BD002008BD00BF006000402082FF1F0C82FF1F014B1868A4
:401D4000704700BF9C81FF1F0E4B70B51E460E4C0025E41AA410A54204D056F8253098470135F8E700F038FD084B094C1E46E41AA4100025A54204D056F8253098470135D2
:401D8000F8E770BDE4270000E4270000E4270000EC27000010B5431E0A44914204D011F8014B03F8014FF8E710BD03460244934202D003F8011BFAE7704700000EB400B520
:401DC0004FF402719CB0ADF814106FF00041049107914FF6FF711DABADF81610084953F8042B02900690086802A9019300F064F8029B00221A701CB05DF804EB03B0704752
:401E00009C81FF1F2DE9F0478E688246B3420C469046994640D38A8912F4906F3AD02568096902236F1A656905EB450595FBF3F57B1C4B449D4238BF1D4653050FD52946F4
:401E400000F030FB064698B121693A46FFF7A2FFA38923F4906343F08003A38113E02A4600F076FB064670B95046216900F0D6FA0C23CAF80030A3894FF0FF3043F04003B7
:401E8000A381BDE8F08726613E4426604E466561ED1BA560B14500D24E4632462068414600F0A0FAA36800209B1BA36023681E442660BDE8F08700002DE9F0439DB00393E0
:401EC0008B8906461C060D4690460CD50B6953B9402100F0E7FA2860286110B90C233360CCE040236B610023099320238DF8293030238DF82A3043461C4613F8012B1AB926
:401F0000B4EB08090FD002E0252AF5D1F8E73046294642464B46FFF775FF013000F0A980099B4B4409932378002B00F0A28000234FF0FF3204930793059206938DF85330E7
:401F40001A9304F101084446DFF8489121784846052200F039FA08F10108049B30B1C9EB00000122824013430493ECE7D80644BF20228DF85320190744BF2B228DF85320AD
:401F800022782A2A02D0079923460EE0039A0134111D12680391002ABBBF524243F0020307920792B8BF04930AE01C4622780133303A092A03D80A2000FB0121F5E707915F
:401FC00023782E2B1AD163782A2B0AD1039B02341A1D1B680392002BB8BF4FF0FF3305930CE0611C00220C4623780131303B092B03D80A2000FB0232F5E70592DFF898804A
:4020000021784046032200F0DFF938B1049AC8EB00004023834013430493013421781A48062204F101088DF8281000F0CDF988B1164B33B9039B073323F007030833039332
:4020400013E003AB0093304604A92A46104BAFF3008007E003AB0093304604A92A460C4B00F092F8421C074603D0099B3B44099341E7AB895B0601D4099801E04FF0FF30D1
:402080001DB0BDE8F08300BFAC27000000000000051E0000A2270000A82700002DE9F84391461F468A680B6906469342B8BF1346C9F8003091F843200C46DDF8208012B1A3
:4020C0000133C9F800302368990642BFD9F800300233C9F80030256815F006051CD094F843302268003318BF012392061FD5E118302081F843005A1C94F8451022440233A6
:4021000082F8431013E03046394604F119020123C047013007D00135E368D9F800209B1A9D42F0DBDBE74FF0FF30BDE8F8833046394604F14302C0470130F4D02268D9F800
:402140000050E36802F00602042A08BF5D1B2269A3680CBF25EAE57500259342C4BF9B1AED184FF00009A9450ADA3046394604F11A020123C0470130D5D009F10109F2E75E
:402180000020BDE8F88300002DE9FF410C461746227E98466E2A06460A9B01F1430100F0B08012D8632A23D00AD8002A00F0BD80582A40F0CC8084F84520DFF804E257E007
:4021C000642A1ED0692A1CD0C1E0732A00F0B18009D86F2A2ED0702A40F0B980226842F0200222603FE0752A24D0782A3BD0AEE01A6804F14205111D1960136884F84230EF
:40220000A9E020681A6810F0800F02D0101D186008E010F0400F02F10400186002D0B2F9003000E01368002B3EDA2D225B4284F8432039E020681A6810F0800F02D0101D98
:40224000186007E010F0400F02F10400186001D0138800E01368227EDFF864E16F2A0CBF08220A221CE07822DFF858E184F845202268186812F0800F00F104051D6003D197
:40228000550601D5038800E00368D00744BF42F0200222601BB9226822F0200222601022002084F8430002E0DFF814E10A226568002DA8BF2068A560A4BF20F00400206083
:4022C00003B965B10D46B3FBF2F002FB10331EF8033005F8013D03460028F4D100E00D46082A0BD12368DA0708D5236962689A42DEBF302305F8013C05F1FF35491B216139
:402300002EE025681A6815F0800F606903D0151D1D60136808E015F0400F02F104051D60136801D0188000E01860002323610D4616E01A68111D1960156800212846626846
:4023400000F042F808B1401B6060636804E004F1420584F8422001232361002384F84330CDF800803046214603AA3B46FFF796FE013002D14FF0FF301FE0304639462A462C
:402380002369C0470130F5D023689B0705D4E068039B9842B8BF18460FE00025E368039A9B1A9D42F3DA3046394604F119020123C0470130DED00135F0E704B0BDE8F081B6
:4023C000B3270000C427000010B5C9B202449042034605D01C7801308C42F8D1184610BD002010BD814210B501EB020301D3421E0BE09842FBD28118D21AD34204D013F876
:40240000014D01F8014DF8E710BD994204D011F8014B02F8014FF8E710BD000030B500293CD051F8042C0B1F1D49002AB8BF9B180A680C4612B95A600B6030BD93420DD295
:4024400019685818904201BF5A5852181A60426823605A6030BD994203D80A4651680029F9D1146815199D420AD11B682344D0188842136012D10868034413604B680CE09E
:4024800002D90C23036030BD1C681819884201BF08684968001918605960536030BD00BFD481FF1F70B5CC1C24F0030408340C2C38BF0C24002C064603DA0C23336000204C
:4024C00070BD8C42F9D3204A136810461946A1B10A68121B0ED40B2A03D90A608B188C501FE08B420BBF5A684A6802605A6018BF0B4616E00B464968E9E7144D2B681BB9D0
:40250000304600F04BF828603046214600F046F8421C0346D1D0C51C25F0030585420AD11C6003F10B001A1D20F00700821A0AD05142995070BD3046E91A00F02FF80130CE
:40254000BBD02B46ECE770BDD481FF1FD081FF1FF8B5074615460E4621B91146BDE8F840FFF7A0BF1AB9FFF759FF2846F8BD00F025F8A8420ED238462946FFF793FF044697
:4025800050B131462A46FFF705FC38463146FFF745FF01E03046F8BD2046F8BD38B5064C0023054608462360FDF7D0FD431C02D1236803B12B6038BDB082FF1F51F8040C0D
:4025C0000028BEBF091851F8043CC018043870470000000043617074757265004F766572666C6F770000000052432025732054696D653D20256C640D0A0000002051004083
:402600001000405100403000C0510040100000000140001000140140000800400140000A004C0140000200500140200030313233343536373839414243444546000000000D
:402640000100000048260000010000008C270000000000000000000001000000602600000100000048270000030000008C260000000000000000000000000000000000008B
:402680000000000088260000020A000000008103080002000100820240000A000100030240000A0002030000040309042C034300790070007200650073007300200053000F
:4026C00065006D00690063006F006E0064007500630074006F007200100355005300420055004100520054003803430044004300200043006F006D006D0075006E00690098
:4027000063006100740069006F006E00200049006E007400650072006600610063006500260343004400430020004400610074006100200049006E00740065007200660055
:402740006100630065000000090243000201018032090400000102020103052400100104240202052406000105240100010705810308000A09040100020A00000407058207
:402780000240000007050302400000001201000202000008B40432F201000102800100004300232D302B2000686C4C00656667454647003031323334353637383941424301
:4027C000444546003031323334353637383961626364656600000000F8B500BFF8BC08BC9E4670474D000000C9010000F8B500BFF8BC08BC9E467047290000001028000032
:402800000881FF1F98000000180100000000000000000000B882FF1F0000E02EC05D00001800000000366E0100C2010000000800C201000000080000A120000000000200A7
:40284000000000000000000000000000000000000000000000000000000000000000000000000000A027000000000000000000000000000000000000000000000000000091
:402880000000000000000000000000000000000000000000000000000000000000000000000000003C81FF1F0000000000000000000000000000000000000000000000003D
:4028C00000000000000000000000000000000000000000000000000000000000000000000000000000000000000000000000000000000000000000000000000000000000D8
:402900000000000000000000000000000000000000000000000000000000000000000000000000000000000000000000000000000000000000000000000000000000000097
:402940000000000000000000000000000000000000000000000000000000000000000000000000000000000000000000000000000000000000000000000000000000000057
:402980000000000000000000000000000000000000000000000000000000000000000000000000000000000000000000000000000000000000000000000000000000000017
:020000040003F7
:0200000480007A
:4000000001450040035200400164004003650040490001402701014046020140320301400607014003090140040A0140010B0140010D01405614014038150140051701404A
:40004000521801402E190140051B0140054001400A41014002420140044301400145014001460140064701400248014004490140054C0140034D01400550014001510140CB
:400080007E02084009807C40830F8577880D890F030904040602070E0B030D050E0817201A0D1B401F60220F23602520271028022A042B0F2E0F300832043310340335605D
:4000C0003601370F3B803E454014420349FF4AFF4BFF4F0150185293580459045A045B045C995D995F016040624064406540668068806A806C806E80C051C203C9FFCAFFEF
:40010000CBFFCD83CE03CF01D018DA04DD09DF01E040E240E440E540E680E880EA80EC80EE80020103200A04108012081380180119881A541B4420022218230129012A20EF
:400140002B243080321839583B0140014101421046214F80680869506B02708071017380C005C202C40BCA07CC0ECE0FD05BD2104051420349FF4AFF4BFF4D834E034F0164
:4001800050185A045D095F016040624064406540668068806A806C806E808003820C860F89018B0294059503960A9D019F02A005A103A20AA504A803AA0CB307B40FBB0C86
:4001C000C014C203C5ECC720C823C9FFCAFFCBFFCD83CE03CF01D018D403D604D804D904DA04DB04DC99DD99DF01E040E240E440E540E680E880EA80EC80EE800002010815
:4002000002800908104813021910210C2840290831083280391040014101421043044601470449054D805101520159155A4060409001911092509440950A99889B029E01A1
:40024000A009B320B440C00CC204C40ACA03CC0ACE04D05BD210D60FD801E608E880EA409140A001A940AC01E202EE0CAB20AF20E202B820BE10D804DF011F20E6080A01F0
:400280000F0112021E0129013001340235013F1040434105420249FF4AFF4BFF4DA04F015018580459045A045F016040628064406540668068406A506BA86C406D206E50C4
:4002C0006FA8810882028408870388018E0193019901AE0CAF0CB104B203B302B404B508B608B701BE44BF50C043C105C202C50CC620C75EC83DC9FFCAFFCBFFCDAFCE07D4
:40030000CF01D018D280D417D804D904DA04DB04DF01E040E280E440E540E680E840EA50EBA8EC40ED20EE50EFA8001004840520068008800A401602188019201A401C04C6
:400340001D4821202501272929202E803502372038803A203B103D0A412843014528470148014D404F0456AA59C05D805F18664867047502810489208A409010914098802F
:40038000A001AC80C0F2C209C480CA14CCA0CEC8D0E7D218D670D870EE0280109140A001E601EE020001060416031E042E0830013208340436023E104030410445D0461012
:4003C0004720482A49FF4AFF4BFF4DA04F0450185280540558045A045B045F01604062C06440654066C068C06AC06CC06EC0820787018B0E9108920894019E04AF03B004A6
:40040000B104B202B301B401B508B608B702BF04C050C106C5D0C615C702C81EC9FFCAFFCBFFCDA0CF04D018D280D407D804D904DA04DB04DF01E040E2C0E440E540E6C046
:40044000E8C0EAC0ECC0EEC00240040105040A510F221780188019501A111C411D0C1E081F082008214222042940310238284509480849414F01501C5240550157115880A5
:4004800059115A085C405E085F01724077808310C038C2ADC480CA08CC01CE06D0C0D20CD6DFEE02A940AF08B084B440E8013108321035023640CCF0000285029D02A4013F
:4004C000A508A640B001B610C010E610A508A6408508A508A640E24084209C2008200B400D0285029C20C20EAE40EE4000048004C010E0205C016204AF40D601D802AA04DD
:40050000B401EC080101090110011A011C0100AB01010000000000004000000000000000C000000000C0C000C00000000100000000000000000000000000000000000000CF
:40054000000000000000000000000000000000000000000000000000000000000000000000000000000000000000000000000000000000000000000000000000000000007B
:40058000000000000000000000000000000000000000000000000000000000000000000000000000000000000000000000000000000000000000000000000000000000003B
:4005C00000000000000000000000000000000000000000000000000000000000000000000000000000000000000000000000000000000000000000000000000000000000FB
:4006000000000000000000000000000000000000000000000000000000000000000000000000000000000000000000000000000000000000000000000000000000000000BA
:0200000490006A
:0400000000004005B7
:0200000490105A
:04000000BC90ACAF55
:0200000490303A
:0200000075CDBC
:0200000490402A
:4000000000000000000000000000000000000000000000000000000000000000000000000000000000000000000000000000000000000000000000000000000000000000C0
:400040000000000000000000000000000000000000000000000000000000000000000000000000000000000000000000000000000000000000000000000000000000000080
:400080000000000000000000000000000000000000000000000000000000000000000000000000000000000000000000000000000000000000000000000000000000000040
:4000C0000000000000000000000000000000000000000000000000000000000000000000000000000000000000000000000000000000000000000000000000000000000000
:0200000490501A
:0C00000000012E16106900012E26863625
:00000001FF