:400000000080002011000000710D0000710D000008B5044B1A6803F53F5302331A6000F0A9FE00BFFA46004010B5054C237833B9044B13B10448AFF300800123237010BDD4
:400040001081FF1F000000004C380000084B10B51BB108480849AFF300800848036803B910BD074B002BFBD0BDE81040184700BF000000004C3800001481FF1F0881FF1F29
:40008000000000002DE9F043ADF5097D62B600F077F9904F3E68002002F0D0F800F0DCFD0DF5FA79002448468B4922468B4B00F0D5FD0DF5E478404689492246234600F0BD
:4000C000CDFD67AD4FF07E5328461946224600F0C5FD5CA883492246834B00F0BFFD51A882492246234600F0B9FD3B6800F096FA7F4F00976FF400040194CDF8089046A86F
:400100000021F02242F2D00300F09AFA794B0093794B0193CDF808803BA8012146224FF4486300F08DFA00970194029530A80221F0224FF4966300F083FA00F0E3FD2FA813
:4001400000215A2200F00EFE00F0AAF92BA8012100F0C4F927A8022100F0C0F923A8032100F0BCF91FA8042100F0B8F900F0AAFC04A800F0B3FC574C2068801B03F0E8F87B
:4001800005462668BDF8A8305BB9BDF9B830002BB8BF5B42594A1268934202DA04A800F0B3FC2BA800F0A2F927A800F09FF923A800F09CF91FA800F099F99DF89D300BB361
:4001C000BDF8A810F1B146A809B200F04DFA46A800F0BEFA4B9803F0D9FA494A80FB0223C218C317C3EB62234FF4317202FB1303132B03DC012002F021F812E0002002F071
:400200001DF80EE01C9A3F4B1B6800955CA8002100F032FD669803F0B9FA01B246A800F023FA9DF8AD303BB3BDF8B80003B2002BB8BF5B42314A126893421DDD00B202F0A4
:4002400059FC0022304B02F0BBFC804689462F4B186802F04FFC02460B464046494602F0D9FD02F06FFF01461D4B72933BA82A46002300F0A9FA05E03BA800212A46002308
:4002800000F0A2FA9DF87D303BB1BDF8881021B130A809B200F0E8F903E030A8002100F0E3F99DF88D3083B1BDF898306BB11BB25A2101FB03F3154A116893FBF1F15A312D
:4002C0002FA8C9B200F022FD55E72FA85A2100F01DFD50E76081FF1F0000C8420000A04100002043000020420000F04000004040FFFF7F7F9A9919409A9919C05038000053
:40030000FB4321B974380000000059C058380000164A136801331360154A138801339BB21380B3F57A7F20D30022114B1A80114A138801339BB213803B2B16D900220D4B3B
:400340001A800D4A138801339BB213803B2B0CD90022094B1A80094A138801339BB21380172B02D90022054B1A8070476081FF1F5C81FF1F5E81FF1F6481FF1F6681FF1FA1
:4003800008B5024800F09EFF08BD00BF1103000008B500F0C3FF0D4B187010F0020F07D000F0CAFFC0F5F42000F21F10074B5860064B1B7813F0010F02D00022034B5A603A
:4003C00000F09EFF024800F0BFFF08BD2C81FF1F1FA1070008B500F0C7FE0D4B187210F0020F07D000F0CEFEC0F5F42000F21F10074BD860064B1B7A13F0010F02D00022C8
:40040000034BDA6000F0A2FE024800F0C3FE08BD2C81FF1F1FA1070008B501F0E3F80D4B187410F0020F07D001F0EAF8C0F5F42000F21F10074B5861064B1B7C13F0010F3A
:4004400002D00022034B5A6101F0BEF8024801F0DFF808BD2C81FF1F1FA1070008B501F00FF80D4B187610F0020F07D001F016F8C0F5F42000F21F10074BD861064B1B7E8E
:4004800013F0010F02D00022034BDA6100F0EAFF024801F00BF808BD2C81FF1F1FA1070008B50A4800F0C8FF00F096FF084800F0E1FE00F0B7FE074801F022F901F0F0F8FB
:4004C000054801F06BF801F039F808BD91030000D5030000190400005D040000017000234370838143608360704700BF70B504460378012B0CD0022B07D0032B02D1454ABD
:40050000167C07E0434A167E04E0424A167A01E0404A1678012B0CD0022B07D0032B02D13C4A556907E03B4AD56904E0394AD56801E0384A5568012B02D100F0D1FE0BE0C0
:40054000022B02D100F056FF06E0032B02D101F0B5F801E001F000F828B12F4B1B6863600123637007E02C4B1B6862689B1A322B01D9002363706378002B4AD0002E48D064
:40058000A5F5BB43403B45F20822934200D9A568C5F50043E83313F5167F05DDB3F5167F02DA0023A38111E048F2E8039D4202D942F6E06201E042F22832A5F50043E83B5C
:4005C000C3EB03131B0193FBF2F3A381B4F90C3013F1F00F02DA4FF61073A381B4F90C30F02B01DDF023A381A5602378012B01D100F0F2FE2378022B01D100F013FE237803
:40060000032B01D101F04CF82378042B01D100F095FF70BD2C81FF1F6081FF1F08B501F0E5F801F0BDFC002001F08CFC01F054F901F078FD002001F047FD01F0C3F908BD35
:400640000170828000224280C3800281009BC360019B0361002343618361C36103624362029B8362704700BF10B5044681EAE170A0EBE170A3881AB2904207DD002901DA76
:400680005A426280002902DD638000E061802378EBB900290BDAB4F902000028B8BF4042C0B201F04FF8002001F052F810BD002906DD002001F046F8A07801F049F810BDAF
:4006C000002001F03FF8002001F042F810BD012B1DD100290BDAB4F902000028B8BF4042C0B201F0A5F8002001F0A8F810BD002906DD002001F09CF8A07801F09FF810BD06
:40070000002001F095F8002001F098F810BD022B1CD100290BDAB4F902000028B8BF4042C0B201F0FBF8002001F0FEF810BD002906DD002001F0F2F8A07801F0F5F810BDC1
:40074000002001F0EBF8002001F0EEF810BD00BFD0B5044603781BB901F0ECFB208104E0012B02D101F0A8FC2081B4F90800400002F0C0F90EA3D3E9002302F021FA0022F3
:400780000F4B02F01DFA06460F46E08802F0B2F902460B463046394602F03CFB06A3D3E9002302F00DFA02F0CDFC6061D0BD00BF182D4454FB210940F8C1631ADCA54C40AB
:4007C00000001040AFF30080F0B583B00478012C4ED115460E46044663BB836A186802F0D5FF07462046FFF7B3FF656930464FF0804102F0FDFC0146284602F0BDFF28B1D7
:400800007942204609B2FFF72FFF31E030464FF0804102F0EBFC0146284602F08FFF20B1204639B2FFF720FF22E020460021FFF71BFF1DE0012B1BD1FFF78AFF0095A06A20
:40084000314662694FF0804300F016FAA36A986A02F09CFF014600F11303262B04D820460021FFF701FF03E0204609B2FFF7FCFE03B0F0BD6822014B1A7070477E81FF1F18
:4008800000B583B0054B1B78009018461A210222032300F0D1F803B05DF804FB7E81FF1F00B583B0054B1B78009018461B210422022300F0C1F803B05DF804FB7E81FF1F10
:4008C00000B583B0054B1B78009018461C210422022300F0B1F803B05DF804FB7E81FF1F2DE9F04180460F4616461D46154C164B18783B210E22234600F052F822786378E3
:4009000043EA0223A8F80030A278E37843EA02233B802279637943EA02233380227A637A43EA02232B80A27AE37A43EA0223069A1380227B637B43EA0223079A1380BDE87D
:40094000F08100BF6881FF1F7E81FF1F08B50346034A10786B21062200F094F808BD00BF7E81FF1F00B583B0054B1B78009018466B210222032300F05FF803B05DF804FB9A
:400980007E81FF1F08B50120FFF7ECFF0020FFF787FF0020FFF794FF0020FFF7D7FF08BDF8B504460F4615461E46002101F0D8F9384601F067FA2046012101F011FA0024FF
:4009C00007E0012001F08AFA30550134E4B2013DEDB2012DF5D1002001F080FA305501F035FAF8BD70B50D4614461E46002101F0B7F9284601F046FA002506E0705D01F014
:400A000041FA0135EDB2013CE4B2002CF6D101F01DFA70BD08B513460122FFF7C1FF08BD00B583B002AB03F8012D0122FFF7DAFF03B05DF804FB00BF2DE9F04182B00746BB
:400A40000E4601249C40013CD21A551CAC405FFA84F80DF10702FFF7DDFF9DF82020AA4002EA08089DF8072022EA040448EA04028DF8072038463146FFF7D2FF02B0BDE86B
:400A8000F08100BFF0B583B005460C4616461F460DF10702FFF7BEFF37B10122B2409DF807301A43D2B205E00122B2409DF8073023EA02028DF8072028462146FFF7B0FF6F
:400AC00003B0F0BD08B500F0D1FFFFF7D3FEFFF759FF0620FFF7D4FE08BD00BF00230AE0002240F82320191D40F8212003F1080140F821200133032BF2DD014B83667047A6
:400B00006666663F000000002DE9F04786B004460DF10E03009303AB019305A80DF116010DF1120204ABFFF7DBFE0025A946AA4603231FE05E1E54F8261044F82310DA1CB5
:400B400054F822801A1D44F82280DA1D54F82270083344F82370504602F04AFB82464846414602F045FB81462846394602F040FB05463346002BDDDCBDF9160002F0ECFB89
:400B8000334902F0F1FC514602F032FB4FF07A5102F036FC2060BDF9140002F0DDFB2C4902F0E2FC494602F023FB4FF07A5102F027FC06462061BDF9120002F0CDFB244923
:400BC00002F0D2FC294602F013FB4FF07A5102F017FC206201F0A0FF80468946304601F09BFF02460B464046494601F0B1FB16A3D3E9002301F0E4FF0022164B01F02EFEB8
:400C000002F0A0FA60662568206A01F085FF06460F46284601F080FF02460B463046394601F096FB08A3D3E9002301F0C9FF0022084B01F013FE02F085FA206606B0BDE83B
:400C4000F08700BFAFF30080F8C1631ADCA54C400000C84400805640704700BF0160426083600023C360036143618361C361036243628362704700BF2DE9F0410446984631
:400C8000069EC161026246620846114602F0AEFA0546E060A7693046294602F0B1FB0146384602F0A5FA0746A0612846216902F09DFA314602F058FC06466061256125F07B
:400CC0000040414602F058FDC0B12846216802F097FB05463846616802F092FB0146284602F086FA05463046A16802F089FB0146284602F07DFAA062BDE8F0810023A36224
:400D0000BDE8F08108B501F00BFB08BD08B541700378EBB9084601F0EDFE00220D4B02F079F800220C4B01F04BFF00220B4B01F047FF00220A4B01F091FD02F0DBF9A0F2DF
:400D4000D17240F2CE739A4202D880B201F096FA08BD00BF008066400040AF400000E03F00409F4008B501701146FFF7CFFF08BDFEE700BF08B5104E104D16E029686B68B9
:400D8000AC68002204E051F8040B43F8040B0432A242F8D1E868002203E0002143F8041B04328242F9D11035013E002EE6D102F013FDFFF767F9FEE70100000024390000FC
:400DC00008B5124A124B1A60124A136843F40073136000230AE0032B03D80F4A52F8231000E00E490E4A42F8231001332F2BF2D90C4B1A780C4B1A70094A0C4B1A6000F0F0
:400E0000BFF800220A4B1A6008BD00BF0004FA050CED00E014ED00E000000000710D00000080FF1FBC7600400481FF1F08ED00E00081FF1FFEE700BFF0B40022174611E06C
:400E400050F82760F3B226F0FF0608E001EB420511F812406D78A5550132013BDBB2002BF4D10137292FEBD9F0BC7047064B1B78DBB203F00701054A11701B0901321370D5
:400E80004422034B1A707047CF0100496E5800407658004008B50A46002102F0CEFC08BD38B50122294B1A801823294A13700B21023211800232137045F6BF51023211805A
:400EC000023213700622234B1A705222A3F580731A70214B1B78DBB2204A13704FF4E1621F4B1A8041F25122023B1A80002419250CE01C4B1B7803F0010343EA440404F06A
:400F000003044FF4F07000F0DBF8013D0DB1032CEFD115B90320FFF78DFF134A4FF48073138007231370002310490B7048200231087013700532137002220D4B1A700D4A6F
:400F4000137843F00703137038BD00BF8040004082400040004300400F010049A14600402242004025420040044000400640004001400040A243004008B502F053FC08BDAF
:400F800038B572B63C4A137843F00403137000240CE03A4963001A1952000A4423445B00C8589188FFF776FF0134E4B2062CF0D900240FE03149A3001A1952000A4452F80C
:400FC0002C0F23445B000B4451689A8EFFF7D4FF0134E4B2012CEDD94FF090402849FFF72BFF284A137843F0020313701032137843F002031370244C237843F04003237049
:40100000A2F58632513A137843F0100313701F481F490822FFF7B0FF1E481F490A22FFF7ABFF1E481E490A22FFF7A6FF1D481E490822FFF7A1FF1D481D490822FFF79CFFA4
:4010400084231C4A137002F538621370A2F55542393A137843F008031370174D61232B70FFF71EFF81232B70FFF700FF134821460E22FFF781FF38BDE84600407C38000096
:40108000A800004803500140A04300400251004004110048C05100400C110048F0510040181100481251004024110048225100402C110048DB0C014000480040B0430040B6
:4010C0000230800803D000BF01380046FCD17047EFF3108072B6704780F31088704700BF01BE704770B504460E46074B1D681F2802D90020FFF7F4FF04F01F04103455F8EC
:40110000240045F8246070BD08ED00E038B504460D46072902D90020FFF7E2FF1F2C02D90020FFF7DDFF04F01F0000F1604000F564406D01EDB2057038BD00BF024A1378DA
:4011400043F080031370704770640040024A137803F07F031370704770640040014B1870704700BF81640040014B1878704700BF6164004008B50146014801F0DFF808BD31
:4011800020640040024B186820F07F40704700BF4064004008B50146014801F0CFF808BD00640040024A137843F01003137070477064004000F00300044B1A7802F0FC02D8
:4011C0001A701A7810431870704700BF7064004008B501E0FFF7D6FFFFF7C6FF10F0080FF8D108BD10B50D4C2046FFF7C3FF2046FFF7D0FFFFF76CFF094A137843F01003B9
:401200001370FFF769FFFFF7CDFF0020FFF7D2FFFFF7DEFF0320FFF7A1FF10BD1FA107009164004008B5054B1B7823B9FFF7DAFF0122024B1A70FFF781FF08BD4C81FF1F64
:40124000014B1B689864704708ED00E04001C0B2014B1870704700BF02E400E00422014B1A60704700E100E00422014B1A60704780E100E010B50446FFF7F6FF2046FFF7B6
:40128000DFFF0720FFF7E2FFFFF7E8FF10BD00BF014B1B681864704708ED00E04001C0B2014B1870704700BF00E400E00122014B1A60704700E100E00122014B1A60704750
:4012C00080E100E010B50446FFF7F6FF2046FFF7DFFF0720FFF7E2FFFFF7E8FF10BD00BF024B187800F00100704700BF01510040024A137843F08003137070477864004059
:40130000024A137803F07F031370704778640040014B1870704700BF89640040014B1878704700BF6964004008B50146014801F005F808BD28640040024B186820F07F40CD
:40134000704700BF4864004008B50146014800F0F5FF08BD08640040024A137843F01003137070477864004000F00300044B1A7802F0FC021A701A7810431870704700BFC5
:401380007864004008B501E0FFF7D6FFFFF7C6FF10F0080FF8D108BD10B50D4C2046FFF7C3FF2046FFF7D0FFFFF792FE094A137843F010031370FFF78FFEFFF7CDFF00204F
:4013C000FFF7D2FFFFF7DEFF0320FFF7A1FF10BD1FA107009964004008B5054B1B7823B9FFF7DAFF0122024B1A70FFF781FF08BD4D81FF1F024B1878C0F34000704700BF17
:4014000001510040014B1B685864704708ED00E04001C0B2014B1870704700BF01E400E00222014B1A60704700E100E00222014B1A60704780E100E010B50446FFF7F6FF03
:401440002046FFF7DFFF0720FFF7E2FFFFF7E8FF10BD00BF024A137843F080031370704775640040024A137803F07F031370704775640040014B1870704700BF85640040D9
:40148000014B1878704700BF6564004008B50146014800F053FF08BD24640040024B186820F07F40704700BF4464004008B50146014800F043FF08BD04640040024A1378F8
:4014C00043F01003137070477564004000F00300044B1A7802F0FC021A701A7810431870704700BF7564004008B501E0FFF7D6FFFFF7C6FF10F0080FF8D108BD10B50D4C22
:401500002046FFF7C3FF2046FFF7D0FFFFF7E0FD094A137843F010031370FFF7DDFDFFF7CDFF0020FFF7D2FFFFF7DEFF0320FFF7A1FF10BD1FA107009564004008B5054B09
:401540001B7823B9FFF7DAFF0122024B1A70FFF781FF08BD4E81FF1F024B1878C0F3C000704700BF01510040014B1B681865704708ED00E04001C0B2014B1870704700BFDE
:4015800004E400E01022014B1A60704700E100E01022014B1A60704780E100E010B50446FFF7F6FF2046FFF7DFFF0720FFF7E2FFFFF7E8FF10BD00BF024A137843F08003DB
:4015C0001370704776640040024A137803F07F031370704776640040014B1870704700BF86640040014B1878704700BF6664004008B50146014800F0A1FE08BD24650040BD
:40160000024B186820F07F40704700BF4465004008B50146014800F091FE08BD04650040024A137843F01003137070477664004000F00300044B1A7802F0FC021A701A7824
:4016400010431870704700BF7664004008B501E0FFF7D6FFFFF7C6FF10F0080FF8D108BD10B50D4C2046FFF7C3FF2046FFF7D0FFFFF72EFD094A137843F010031370FFF711
:401680002BFDFFF7CDFF0020FFF7D2FFFFF7DEFF0320FFF7A1FF10BD1FA107009664004008B5054B1B7823B9FFF7DAFF0122024B1A70FFF781FF08BD4F81FF1F024B1878B4
:4016C000C0F38000704700BF01510040014B1B68D864704708ED00E04001C0B2014B1870704700BF03E400E00822014B1A60704700E100E00822014B1A60704780E100E004
:4017000010B50446FFF7F6FF2046FFF7DFFF0720FFF7E2FFFFF7E8FF10BD00BF024A137843F08003137070477A650040014B1870704700BF0A650040014B1870704700BFE5
:401740004A650040014B1870704700BF2A650040014B1870704700BF3A650040014B1870704700BF89650040014B1878704700BF69650040014B1878704700BF5A6500400F
:4017800008B501E0FFF7F6FFFFF7EEFF10F0100FF8D108BD08B5134A137803F0C00343F0090313702032137843F001031370FF20FFF7BCFFFF20FFF7BFFF0020FFF7C2FFE2
:4017C0000020FFF7C5FF0020FFF7C8FFFFF780FC054A137843F010031370FFF77DFCFFF7CFFF08BD7A6500409965004008B5054B1B7823B9FFF7CEFF0122024B1A70FFF799
:401800008DFF08BD5081FF1F024A137843F08003137070477B650040014B1870704700BF07650040014B1870704700BF47650040014B1870704700BF27650040014B18706B
:40184000704700BF37650040014B1870704700BF84650040014B1878704700BF64650040014B1878704700BF5765004008B501E0FFF7F6FFFFF7EEFF10F0100FF8D108BDE1
:4018800008B5134A137803F0C00343F0090313701C32137843F001031370FF20FFF7BCFFFF20FFF7BFFF0020FFF7C2FF0020FFF7C5FF0020FFF7C8FFFFF70AFC054A137871
:4018C00043F010031370FFF707FCFFF7CFFF08BD7B6500409465004008B5054B1B7823B9FFF7CEFF0122024B1A70FFF78DFF08BD5181FF1F024A137843F08003137070470D
:4019000077650040014B1870704700BF03640040014B1870704700BF43640040014B1870704700BF23640040014B1870704700BF33640040014B1870704700BF83640040C6
:40194000014B1878704700BF63640040014B1878704700BF5364004008B501E0FFF7F6FFFFF7EEFF10F0100FF8D108BD10B5134A137803F0C00343F009031370104C237890
:4019800043F001032370FF20FFF7BCFFFF20FFF7BFFF0020FFF7C2FF0020FFF7C5FF0020FFF7C8FFFFF794FB237843F010032370FFF792FBFFF7D0FF10BD00BF7765004043
:4019C0009364004008B5054B1B7823B9FFF7CEFF0122024B1A70FFF78DFF08BD5281FF1F38B50222114B1A7081220E3B1A70082202331A700F2511331D70002401331C7000
:401A00004FF400420A4B1A6028460721FFF77EFB28460849FFF766FB1022074B1A70074B1C70074B1C70074B1C7038BDD649004080E100E0951A00007F81FF1F8681FF1F08
:401A40008C81FF1F8581FF1F08B5FFF741FB064A137843F0040313701032137843F004031370FFF739FB08BDA543004008B5074B1B7823B9FFF7B4FF0122044B1A70FFF7D6
:401A8000E3FF4FF40042024B1A6008BD5381FF1F00E100E038B5A44B1C78E4B2A34B1B7813F0400F00F0378114F0010F00F01B819E4B1B78453B052B00F21281DFE813F0E4
:401AC00006008200100110010600DE0004F0DF0504F00A04082C42D1944B1B78DBB2452B35D1934B1B7813F0FF0F10D0914B1B681B78DBB2904A137004228B4B1A700122DB
:401B00008E4B1A704622894B1A702C46EBE08C4B1B7813F0020F0DD08A4A137843F00A0313706022814B1A704FF40042864B1A602C46D8E0854A137843F01003137010229B
:401B4000834B1A700422023B1A702C46CBE00022754B1A704A22754B1A702C46C3E00A2C2BD1784A137843F0A0031370744B1B7813F0020F14D06D4B1B7813F0080F01D074
:401B8000092300E00A236F4A11780B4313706022664B1A704FF400426B4B1A602C46A2E06A4A137843F0100313701022684B1A700422023B1A702C4695E00020FFF790FA88
:401BC0002C4690E014F0020F35D15C4B1B78584A1278DBB2934210D2584A1378DBB255490968CB5CDBB254490B7004214E4B197013780133DBB2137075E0514B1B7813F00C
:401C0000020F0CD04F4A137843F00A0313706022464B1A704FF400424B4B1A6063E04B4A137843F0100313701022494B1A700422023B1A7057E0424B1B7813F0020F0CD0EE
:401C4000404A137843F09A0313706022374B1A704FF400423C4B1A6045E03C4A137843F01003137010223A4B1A700422023B1A70344A137843F09003137034E0354A13784B
:401C8000DBB2354908682C490978C9B2C15413780133DBB213701378304A1278DBB2934203D21022204B1A701DE0254B1B7813F0020F0CD0234A137843F00903137060223B
:401CC0001A4B1A704FF400421F4B1A600BE01F4A137843F0100313700022134B1A7002E00020FFF7FDF914F0200F1CD00F4B1B7813F0080F01D0012300E00223114A1178E8
:401D00000B431370114A137803F0EF0313701022064B1A7038BD054B1B7813F0100F02D11022024B1A7038BDD74900407F81FF1F8D81FF1F8081FF1FD84900408581FF1F5E
:401D40008E81FF1F8681FF1F80E100E0D6490040D94900408C81FF1F8881FF1F8481FF1F1A4B1B78DBB2102B29D1194B1B7813F0080F26D14FF40042164B1A604000C0B2C6
:401D800029B140F001004922104B1A7002E045220E4B1A70104B1870012201331A700F4B1B7813F0010FFAD00C4B1B7803F00A030A2B08D11022054B1A700320704702200E
:401DC0007047012070470020704700BF7F81FF1FD949004080E100E0D8490040D7490040164B1B7813F0040F23D04000C0B229B140F001004922124B1A7002E04522104B8C
:401E00001A70104B1870122201331A700422023B1A700D4B1B7813F0010FFAD00A4B1B7803F00A030A2B06D11022054B1A7003207047022070470020704700BFD9490040E3
:401E40007F81FF1FD8490040D74900400A4B1B7813F0040F0ED01023074A13700421023A1170064A1370064B1B7813F0210FFAD00020704702207047D94900407F81FF1FDA
:401E8000D7490040114B1B7813F0040F1BD0104B18700422013B1A7046220E4B1A700E4B1B7813F0010FFAD00B4B1B7813F0020F04D16022074B1A70002070476022054B16
:401EC0001A70032070470220704700BFD9490040D84900407F81FF1FD7490040114B1B7813F0040F1BD0104B1B78DBB2492B05D100220E4B1A704A220B4B1A700B4B1B78B6
:401F000013F0010FFAD00A4B1B78DBB218B11021064A117004E06021034A117000E0002318467047D94900407F81FF1FD7490040D849004008B500F05FF8A0F5004000B26D
:401F400008BD00BF08B5002803DB80B280F4004002E0A0F5004080B200F048F808BD00BF024B187800F00F00704700BF6A640040014B1870704700BF8A64004008B50F20D3
:401F8000FFF7F6FFFFF7ECFFFFF7A2F8034A137843F010031370FFF79FF808BD9A64004008B500F07BF84FF4004000F01FF8044B1B7813B90122024B1A70FFF7DFFF08BDA9
:401FC0005481FF1F024A137843F08003137070477B640040014B1870704700BF8D640040014B1878704700BF6D640040014B1880704700BF18680040024B1B78024B188843
:4020000080B270470C64004098680040014B188880B2704798680040014B1880704700BF58680040014B1880704700BF7868004008B501E0FFF7EAFFFFF7D2FF10F0400F4B
:40204000F8D108BD08B5134B1A7802F0F8021A701A7802F0FC021A70FFF7EAFF4FF40040FFF7DAFF4FF40040FFF7C0FF0020FFF7B1FFFFF7B5FF4FF40040FFF7D3FFFFF789
:4020800027F8054A137843F010031370FFF724F808BD00BF7B6400409D64004008B5054B1B7823B9FFF7CEFF0122024B1A70FFF789FF08BD5581FF1F08B500F05FF8A0F55F
:4020C000004000B208BD00BF08B5002803DB80B280F4004002E0A0F5004080B200F048F808BD00BF024B187800F00F00704700BF6B650040014B1870704700BF8B65004048
:4021000008B50F20FFF7F6FFFFF7ECFFFEF7E0FF034A137843F010031370FEF7DDFF08BD9B65004008B500F07BF84FF4004000F01FF8044B1B7813B90122024B1A70FFF754
:40214000DFFF08BD5681FF1F024A137843F080031370704778650040014B1870704700BF88650040014B1878704700BF68650040014B1880704700BF106A0040024B1B7819
:40218000024B188880B2704708650040906A0040014B188880B27047906A0040014B1880704700BF506A0040014B1880704700BF706A004008B501E0FFF7EAFFFFF7D2FF47
:4021C00010F0400FF8D108BD08B5134B1A7802F0F8021A701A7802F0FC021A70FFF7EAFF4FF40040FFF7DAFF4FF40040FFF7C0FF0020FFF7B1FFFFF7B5FF4FF40040FFF781
:40220000D3FFFEF765FF054A137843F010031370FEF762FF08BD00BF786500409865004008B5054B1B7823B9FFF7CEFF0122024B1A70FFF789FF08BD5781FF1F044A137851
:4022400003F0FD03400000F0020018431070704720510040024A137843F08003137070477F640040014B1880704700BF1C680040014B1880704700BF9C680040014B18806C
:40228000704700BF5C680040014B1870704700BF8F640040014B1878704700BF6F640040014B188880B27047BC68004008B501E0FFF7F6FFFFF7EEFF10F0100FF8D108BD70
:4022C00010B5154A137803F0C00343F0090313701F32137843F001031370104C237843F00103237049F64040FFF7BCFF49F64040FFF7BEFF40F6B830FFF7C0FF0020FFF795
:40230000C3FFFEF7E5FE237843F010032370FEF7E3FEFFF7CBFF10BD7F6400409F64004008B5054B1B7823B9FFF7CAFF0122024B1A70FFF78FFF08BD5881FF1FCBB2037061
:40234000C1F307234370C1F307418170704700BF00F002B8000000002DE9F84F5442144323F00049DFF878C149EAD474644517469E4606460D4641D84442044321F0004BC3
:402380004BEAD47464458A4638D803F1404404F58014144349D09C1704F0020444EAD1745BEA000132D059EA070138D04C49894548D04B498B4532D0C9EB0B094FEA295983
:4023C000B9F13C0F3ADCBEF1000F64DB3046294600F020FD00F038FA00F09AF8012C57D0022C48D084B138A3D3E9002300F034FA37A3D3E9002300F02FFA05E0104619462C
:4024000032462B4600F02AFABDE8F88F032CCAD8DFE804F01212020F32483349F4E7BAF1000F304825DB3149EEE7BDE8F84F00F06FB82C482E49E7E72946E5E726A1D1E9E8
:402440000001CBE7CB452CD0032CB2D801A151F824F000BF652400006B240000192400003324000000200146CEE700204FF00041CAE72049C8E714A3D3E9002300F0ECF98A
:4024800002460B4612A1D1E9000100F0E5F9BBE701F10041B8E719F13C0F97DA002000219CE7032CBBD8DFE804F0020B08050D481149A9E711481249A6E710481149A3E7F6
:4024C00008481149A0E700BF075C143326A6A13C182D4454FB210940182D4454FB21F93F0000F07F182D4454FB210940FB21F93FFB2109C0FB21F9BFFB21E93FD221337F7F
:402500007CD902C07CD90240FB21E9BFAFF300802DE9F84FBE4B21F000469E420D468A4604460FDDBB4B9E4200F3B08000F0AB80B94BBA49BA4CBAF1000FC8BF19462046DA
:40254000BDE8F88FB74B9E4200F3BA80A3F1DE739E4240F3A5804FF0FF3B22462B462046294600F02DFB02460B468046894600F027FB8FA3D3E9002306460F4600F020FBC7
:402580008DA3D3E9002300F069F932463B4600F017FB8BA3D3E9002300F060F932463B4600F00EFB88A3D3E9002300F057F932463B4600F005FB86A3D3E9002300F04EF905
:4025C00032463B4600F0FCFA83A3D3E9002300F045F942464B4600F0F3FA81A3D3E90023804689463046394600F0EAFA7EA3D3E9002300F031F932463B4600F0E1FA7CA375
:40260000D3E9002300F028F932463B4600F0D8FA79A3D3E9002300F01FF932463B4600F0CFFA77A3D3E9002300F016F932463B4600F0C6FABBF1FF3F02460B4667D0404659
:40264000494600F00BF922462B4600F0B9FA764E764B4FEACB0B5E449B44DBE9002300F0FBF822462B4600F0F7F802460B46D6E9000100F0F1F8BAF1000F0446BFF65FAFCB
:4026800001F100415BE700283FF452AF2246204629462B4600F0E2F804462046BDE8F88F59A3D3E9002300F0D9F80022604B00F017FD00283FF44FAF29462046BDE8F88F2E
:4026C00000F0C2F85B4B04469E420D462FDCA3F550239E4254DC02460B4600F0BFF80022534B00F0B9F8002206460F46204629464FF0804300F0B2F802460B463046394684
:4027000000F088FB4FF0000B04460D4625E74046494600F0A3F822462B4600F051FA02460B462046294600F097F8044607E7424B9E421ADC0022414B00F08EF80022064665
:402740000F46204629463D4B00F03AFA0022384B00F084F802460B463046394600F05AFB4FF0020B04460D46F7E602460B460020334900F04FFB4FF0030B04460D46ECE6AE
:4027800000222B4B00F068F8002206460F4620462946274B00F062F802460B463046394600F038FB4FF0010B04460D46D5E600BF11DA22E33AAD903FEB0D76244B7BA93FE4
:4027C000513DD0A0660DB13F6E204CC5CD45B73FFF8300922449C23F0D5555555555D53F2F6C6A2C44B4A2BF9AFDDE522DDEAD3F6D9A74AFF2B0B33F711623FEC671BC3FA5
:40280000C4EB98999999C93F9C7500883CE4377EFFFF0F440000F07FFB21F93FFB21F9BF182D4454FFFFDB3FE0380000C03800000000F03FFFFFF23FFF7F03400000F83FCD
:402840000000F0BFAFF3008021F00041704700BF81F0004102E000BF83F0004330B54FEA41044FEA430594EA050F08BF90EA020F1FBF54EA000C55EA020C7FEA645C7FEAE7
:40288000655C00F0E2804FEA5454D4EB5555B8BF6D420CDD2C4480EA020281EA030382EA000083EA010180EA020281EA0303362D88BF30BD11F0004F4FEA01314FF4801C72
:4028C0004CEA113102D0404261EB410113F0004F4FEA03334CEA133302D0524263EB430394EA050F00F0A780A4F10104D5F1200E0DDB02FA0EFC22FA05F2801841F1000144
:4029000003FA0EF2801843FA05F359410EE0A5F120050EF1200E012A03FA0EFC28BF4CF0020C43FA05F3C01851EBE37101F0004507D54FF0000EDCF1000C7EEB00006EEB63
:402940000101B1F5801F1BD3B1F5001F0CD349085FEA30004FEA3C0C04F101044FEA445212F5800F80F09A80BCF1004F08BF5FEA500C50F1000041EB045141EA050130BD02
:402980005FEA4C0C404141EB010111F4801FA4F10104E9D191F0000F04BF01460020B1FA81F308BF2033A3F10B03B3F120020CDA0C3208DD02F1140CC2F10C0201FA0CF0A0
:4029C00021FA02F10CE002F11402D8BFC2F1200C01FA02F120FA0CFCDCBF41EA0C019040E41AA2BF01EB0451294330BD6FEA04041F3C1CDA0C340EDC04F11404C4F12002F2
:402A000020FA04F001FA02F340EA030021FA04F345EA030130BDC4F10C04C4F1200220FA02F001FA04F340EA0300294630BD21FA04F0294630BD94F0000F83F4801306BF49
:402A400081F480110134013D4EE77FEA645C18BF7FEA655C29D094EA050F08BF90EA020F05D054EA000C04BF1946104630BD91EA030F1EBF0021002030BD5FEA545C05D1B6
:402A80004000494128BF41F0004130BD14F580043CBF01F5801130BD01F0004545F0FE4141F470014FF0000030BD7FEA645C1ABF194610467FEA655C1CBF0B46024650EAFF
:402AC000013406BF52EA033591EA030F41F4002130BD00BF90F0000F04BF0021704730B54FF4806404F132044FF000054FF0000150E700BF90F0000F04BF0021704730B5EF
:402B00004FF4806404F1320410F0004548BF40424FF000013EE700BF42004FEAE2014FEA31014FEA02701FBF12F07F4393F07F4F81F06051704792F0000F14BF93F07F4F5C
:402B4000704730B54FF4607401F0004521F0004120E700BF50EA010208BF704730B54FF000050AE050EA010208BF704730B511F0004502D5404261EB41014FF4806404F19D
:402B800032045FEA915C3FF4DCAE4FF003025FEADC0C18BF03325FEADC0C18BF033202EBDC02C2F1200300FA03FC20FA02F001FA03FE40EA0E0021FA02F11444C1E600BF88
:402BC00070B54FF0FF0C4CF4E06C1CEA11541DBF1CEA135594EA0C0F95EA0C0F00F0DEF82C4481EA030621EA4C5123EA4C5350EA013518BF52EA033541F4801143F48013A9
:402C000038D0A0FB02CE4FF00005E1FB02E506F00042E0FB03E54FF00006E1FB03569CF0000F18BF4EF0010EA4F1FF04B6F5007F64F5407404D25FEA4E0E6D4146EB0606B1
:402C400042EAC62141EA55514FEAC52040EA5E504FEACE2EB4F1FD0C88BFBCF5E06F1ED8BEF1004F08BF5FEA500E50F1000041EB045170BD06F0004646EA010140EA020065
:402C800081EA0301B4EB5C04C2BFD4EB0C0541EA045170BD41F480114FF0000E013C00F3AB8014F1360FDEBF002001F0004170BDC4F10004203C35DA0C341BDC04F114046C
:402CC000C4F1200500FA05F320FA04F001FA05F240EA020001F0004221F0004110EBD37021FA04F642EB06015EEA430E08BF20EAD37070BDC4F10C04C4F1200500FA04F366
:402D000020FA05F001FA04F240EA020001F0004110EBD37041F100015EEA430E08BF20EAD37070BDC4F1200500FA05F24EEA020E20FA04F301FA05F243EA020321FA04F093
:402D400001F0004121FA04F220EA020000EBD3705EEA430E08BF20EAD37070BD94F0000F0FD101F00046400041EB010111F4801F08BF013CF7D041EA060195F0000F18BFD8
:402D8000704703F00046520043EB030313F4801F08BF013DF7D043EA0603704794EA0C0F0CEA135518BF95EA0C0F0CD050EA410618BF52EA4306D1D181EA030101F00041DA
:402DC0004FF0000070BD50EA410606BF1046194652EA430619D094EA0C0F02D150EA013613D195EA0C0F05D152EA03361CBF104619460AD181EA030101F0004141F0FE41DC
:402E000041F470014FF0000070BD41F0FE4141F4780170BD70B54FF0FF0C4CF4E06C1CEA11541DBF1CEA135594EA0C0F95EA0C0F00F0A7F8A4EB050481EA030E52EA03353B
:402E40004FEA013100F088804FEA03334FF0805545EA131343EA12634FEA022245EA111545EA10654FEA00260EF000419D4208BF964244F1FD0404F5407402D25B084FEAB0
:402E80003202B61A65EB03055B084FEA32024FF480104FF4002CB6EB020E75EB030E22BFB61A754640EA0C005B084FEA3202B6EB020E75EB030E22BFB61A754640EA5C00FC
:402EC0005B084FEA3202B6EB020E75EB030E22BFB61A754640EA9C005B084FEA3202B6EB020E75EB030E22BFB61A754640EADC0055EA060E18D04FEA051545EA16754FEAC9
:402F000006164FEAC30343EA52734FEAC2025FEA1C1CC0D111F4801F0BD141EA00014FF000004FF0004CB6E711F4801F04BF01430020B4F1FD0C88BFBCF5E06F3FF6AFAE10
:402F4000B5EB030C04BFB6EB020C5FEA500C50F1000041EB045170BD0EF0004E4EEA113114EB5C04C2BFD4EB0C0541EA045170BD41F480114FF0000E013C90E645EA060E70
:402F80008DE60CEA135594EA0C0F08BF95EA0C0F3FF43BAF94EA0C0F0AD150EA01347FF434AF95EA0C0F7FF425AF104619462CE795EA0C0F06D152EA03353FF4FDAE10462E
:402FC000194622E750EA410618BF52EA43067FF4C5AE50EA41047FF40DAF52EA43057FF4EBAE12E74FF0FF3C06E000BF4FF0010C02E000BF4FF0010C4DF804CD4FEA410C7B
:403000007FEA6C5C4FEA430C18BF7FEA6C5C1BD001B050EA410C0CBF52EA430C91EA030F02BF90EA020F0020704710F1000F91EA030F58BF994208BF90422CBFD8176FEA4B
:40304000E37040F0010070474FEA410C7FEA6C5C02D150EA013C07D14FEA430C7FEA6C5CD6D152EA033CD3D05DF8040B704700BF8446104662468C461946634600E000BFA3
:4030800001B5FFF7B7FF002848BF10F1000F01BD4DF808EDFFF7F4FF0CBF012000205DF808FB00BF4DF808EDFFF7EAFF34BF012000205DF808FB00BF4DF808EDFFF7E0FFF8
:4030C00094BF012000205DF808FB00BF4DF808EDFFF7CEFF94BF012000205DF808FB00BF4DF808EDFFF7C4FF34BF012000205DF808FB00BF4FEA410212F5001215D211D5DD
:403100006FF47873B3EB625212D94FEAC12343F0004343EA505311F0004F23FA02F018BF404270474FF00000704750EA013005D111F0004008BF6FF0004070474FF000005E
:40314000704700BF4FEA4102B2F1E04324BFB3F5001CDCF1FE5C0DD901F0004C4FEAC0024CEA5070B2F1004F40EB830008BF20F00100704711F0804F21D113F13872BCBF9B
:4031800001F00040704741F480114FEA5252C2F11802C2F1200C10FA0CF320FA02F018BF40F001004FEAC1234FEAD32303FA0CFC40EA0C0023FA02F34FEA4303CCE77FEA87
:4031C000625307D150EA01331EBF4FF0FE4040F44000704701F0004040F0FE4040F40000704700BF80F0004002E000BF81F0004142001FBF5FEA410392EA030F7FEA226CD1
:403200007FEA236C6AD04FEA1262D2EB1363C1BFD218414048404140B8BF5B42192B88BF704710F0004F40F4000020F07F4018BF404211F0004F41F4000121F07F4118BF59
:40324000494292EA030F3FD0A2F1010241FA03FC10EB0C00C3F1200301FA03F100F0004302D5494260EB4000B0F5000F13D3B0F1807F06D340084FEA310102F10102FE2A85
:4032800051D2B1F1004F40EBC25008BF20F0010040EA03007047490040EB000010F4000FA2F10102EDD1B0FA80FCACF1080CB2EB0C0200FA0CF0AABF00EBC2505242184359
:4032C000BCBFD0401843704792F0000F81F4000106BF80F400000132013BB5E74FEA41037FEA226C18BF7FEA236C21D092EA030F04D092F0000F08BF0846704790EA010F69
:403300001CBF0020704712F07F4F04D1400028BF40F00040704712F100723CBF00F50000704700F0004343F0FE4040F4000070477FEA226216BF08467FEA236301464202B3
:4033400006BF5FEA412390EA010F40F4800070474FF0000304E000BF10F0004348BF40425FEA000C08BF704743F0964301464FF000001CE050EA010208BF70474FF00003D7
:403380000AE000BF50EA010208BF704711F0004302D5404261EB41015FEA010C02BF84460146002043F0B64308BFA3F18053A3F50003BCFA8CF2083AA3EBC25310DB01FA42
:4033C00002FC634400FA02FCC2F12002BCF1004F20FA02F243EB020008BF20F00100704702F1200201FA02FCC2F1200250EA4C0021FA02F243EB020008BF20EADC70704716
:403400004FF0FF0C1CEAD0521EBF1CEAD15392EA0C0F93EA0C0F6FD01A4480EA010C400218BF5FEA41211ED04FF0006343EA501043EA5111A0FB01310CF00040B1F5000FA2
:403440003EBF490041EAD3715B0040EA010062F17F02FD2A1DD8B3F1004F40EBC25008BF20F00100704790F0000F0CF0004C08BF49024CEA502040EA51207F3AC2BFD2F13B
:40348000FF0340EAC250704740F400004FF00003013A5DDC12F1190FDCBF00F000407047C2F10002410021FA02F1C2F1200200FA02FC5FEA310040F1000053EA4C0308BFB1
:4034C00020EADC70704792F0000F00F0004C02BF400010F4000F013AF9D040EA0C0093F0000F01F0004C02BF490011F4000F013BF9D041EA0C018FE70CEAD15392EA0C0F53
:4035000018BF93EA0C0F0AD030F0004C18BF31F0004CD8D180EA010000F00040704790F0000F17BF90F0004F084691F0000F91F0004F14D092EA0C0F01D142020FD193EAC7
:403540000C0F03D14B0218BF084608D180EA010000F0004040F0FE4040F40000704740F0FE4040F4400070474FF0FF0C1CEAD0521EBF1CEAD15392EA0C0F93EA0C0F69D0A3
:40358000A2EB030280EA010C49024FEA402037D04FF0805343EA111143EA10130CF000408B4238BF5B0042F17D024FF4000C8B4224BF5B1A40EA0C00B3EB510F24BFA3EB40
:4035C000510340EA5C00B3EB910F24BFA3EB910340EA9C00B3EBD10F24BFA3EBD10340EADC001B0118BF5FEA1C1CE0D1FD2A3FF650AF8B4240EBC25008BF20F00100704706
:403600000CF0004C4CEA50207F32C2BFD2F1FF0340EAC250704740F400004FF00003013A37E792F0000F00F0004C02BF400010F4000F013AF9D040EA0C0093F0000F01F045
:40364000004C02BF490011F4000F013BF9D041EA0C0195E70CEAD15392EA0C0F08D142027FF47DAF93EA0C0F7FF470AF084676E793EA0C0F04D14B023FF44CAF08466EE75A
:4036800030F0004C18BF31F0004CCAD130F000427FF45CAF31F000437FF43CAF5FE700BF4FF0FF3C06E000BF4FF0010C02E000BF4FF0010C4DF804CD4FEA40024FEA4103B2
:4036C0007FEA226C18BF7FEA236C11D001B052EA530C18BF90EA010F58BFB2EB030088BFC81738BF6FEAE17018BF40F0010070477FEA226C02D15FEA402C05D17FEA236CEC
:40370000E4D15FEA412CE1D05DF8040B704700BF844608466146FFE70FB5FFF7C9FF002848BF10F1000F0FBD4DF808EDFFF7F4FF0CBF012000205DF808FB00BF4DF808EDE1
:40374000FFF7EAFF34BF012000205DF808FB00BF4DF808EDFFF7E0FF94BF012000205DF808FB00BF4DF808EDFFF7D2FF94BF012000205DF808FB00BF4DF808EDFFF7C8FFC2
:4037800034BF012000205DF808FB00BF4FEA4002B2F1FE4F0FD34FF09E03B3EB12620DD94FEA002343F0004310F0004F23FA02F018BF404270474FF00000704712F1610FF0
:4037C00001D1420205D110F0004008BF6FF0004070474FF0000070470E4B70B51E460E4C0025E41AA410A54204D056F8253098470135F8E700F084F8084B094C1E46E41AAF
:40380000A4100025A54204D056F8253098470135F8E770BD0C3900000C3900000C3900001439000010B5431E0A44914204D011F8014B03F8014FF8E710BD03460244934249
:4038400002D003F8011BFAE770470000000000001900000000000000F00000003200000058020000C05D0000E8800000C8AF00001FA107000000C0400000C844C849004012
:40388000190030510040400000000140001000140140000800400140000A004C01400002105001401000000060520040EC100048060000500140F41000481000000000004C
:4038C000E2652F227F2B7A3C075C143326A6813CBDCBF07A8807703C075C143326A6913C4FBB610567ACDD3F182D4454FB21E93F9BF681D20B73EF3F182D4454FB21F93FAC
:40390000F8B500BFF8BC08BC9E4670474D000000C10D0000F8B500BFF8BC08BC9E46704729000000383900000881FF1F0800000080000000000000000000000000000000A5
:403940000000000000000000000000000000000000000000000000000000000000000000000000000000000000000000000000000000000000000000000000000000000047
:403980000000000000000000000000000000000000000000000000000000000000000000000000000000000000000000000000000000000000000000000000000000000007
:4039C00000000000000000000000000000000000000000000000000000000000000000000000000000000000000000000000000000000000000000000000000000000000C7
:403A00000000000000000000000000000000000000000000000000000000000000000000000000000000000000000000000000000000000000000000000000000000000086
:020000040003F7
:0200000480007A
:40000000014500400552004008640040046500405B000140310101405A0201403D03014062040140440501404E0601403F0701406408014049090140530A0140430B014067
:40004000580C0140410D0140690E0140310F014061140140551501406816014047170140551801404E190140541A0140581B0140084001401241014012420140094301405C
:40008000024401400F45014006460140084701400548014010490140104C01400E4D014006500140035101407E0208300990100811087C40810F830F850F860F890F8A0FC0
:4000C0008D6F8F0D840F886F890F8B0F030F0A020F0F170D19021A011B041C012104220323022B082E03310832033303350437013F514052420649FF4AFF4BFF4F015018F5
:400100005293580459045A045B045C995D995F016040624064406540668068806A806C806E80800A821485018D06950297049A1E9C069D069E18A102A201A304A406A61889
:40014000AC0AAE14B107B21EB401BB03C043C202C9FFCAFFCBFFCD83CE03CF01D018D403D604D804D904DA04DB04DC99DD99DF01E040E240E440E540E680E880EA80EC80F0
:40018000EE800010074008800A040D200E01108214801540170818101D101E24200A21382342274028802A202E012F403118374838823C083D404320452046204702480591
:4001C0005D015E205F44650169406B0870C38101C012C2C3C4B9CA85CC56CE59D0E4D20CD6F0D880020D04200640070108100C601420164018601E0326062A0F2B012C0A3E
:4002000031013470360F3AB04043420245EC4620480B49FF4AFF4BFF4D834E034F015018580459045A045C095D095F016040624064406540668068806A806C806E8086016E
:4002400087028F04930897019A049D01A302A601AA02B004B101B201B308B504B602B702BE04C020C106C5D2C605C701C817C9FFCAFFCBFFCDA0CF04D018D407D804D90474
:40028000DA04DB04DF01E040E2C0E440E540E6C0E8C0EAC0ECC0EEC000040408052007410A080D080E06102815601708188019441E061F40210522A425022B802C282F10F7
:4002C00030083140320238843C0440844101452046204702482049014B204D014F045008514053805620572058A059058A829160950197849B4A9E20A120A720A880C0F499
:40030000C2E2C4E6CA21CC0BCE4AD0E4D204D60FE28A000202040501060807020A0D0D010E0F0F02110213011404160219011B02220F300831033203340436013B023E51A7
:400340004053420649FF4AFF4BFF4F015018580459045A045C095D095F016040624064406540668068806A806C806E808201840C863087068A3C8C148E289114940C963033
:40038000970C98149A289B1E9E02A203A71AA801AB01AE03B23CB31EB603B701BB08C053C206C9FFCAFFCBFFCD83CE03CF01D018D293D403D604D804D904DA04DB04DC9964
:4003C000DD99DF01E040E240E440E540E680E880EA80EC80EE80009002800360040805200741080C0D080E06124014081641181019601A401B401E2221012201250C268068
:400400002C042E04322135203705388039083D084220462049604D204F805D025E605F0467806C046F05744076418B40908091889204940C98089C209D209F01A220A50883
:40044000A808B102C0FFC2E4C4D8CA60CCE5CE4AD042D23CD6F0D880E208E680EE20020F0378080409180A020B600E0F0F031128135014021501160417041A0D1B011F02C9
:4004800025282608275029182B602F0330083201337834033504360437033E454053420645EC4620480B49FF4AFF4BFF4D834E034F015018529354035604580459045A04A9
:4004C0005B045C995D995F016040624064406540668068806A806C806E80840E88108A028C188E0492019E1EA201A416A608A818AA02B01EB401D804DF0100200312074ABE
:4005000008020A020E2810A011201610188019101B021D481E4B2690272029402A402E802F18369037093C803D103E0146204D224F84562057205D055E405F2067806D50F1
:400540006F057440768077428740918292029404970499209B089C209D029E20A340A720AF08C0D7C269C42ECA70CCF0CEB0D040D230D6F0D880E602005A010F02A00507D5
:4005800006FF08300AC30D0C0F031110150A170519051B0A1C501D201EAD211023202430250326C6270C2910310F32F03310340F352039083A203F144016420249FF4AFF55
:4005C0004BFF4F0150185293580459045A045B045C095D995F016040624064406540668068806A806C806E8082018304870889028B0199019A029B02A101A302AD01AF029D
:40060000B002B303B504B601B708BB08C016C202C9FFCAFFCBFFCD83CE03CF01D018D403D604D804D904DA04DB04DD99DF01E040E240E440E540E680E880EA80EC80EE8078
:4006400001020406051009200E0215201608170419821D101E1021A0231024802501271829822C802E282F403120340836623A023B183D063F8040044340451047404A08F7
:400680004E094F80584059055A1063406C056F04744176017A207B10874088219124920A948E9502970299059A029C289D109E019F40A2C9A310A480A501A610B202C07816
:4006C000C282C420CAE9CCF4CED7D03CD224D60FD801000102020320051C09040B080C020D1C100113101502171D19032340251029042B082F033140333C34023502360111
:40070000370138803E103F504016420245EC4702481349FF4AFF4BFF4D834E034F015018540F580459045A045B045D095F016040624064406540668068806A806C806E800D
:40074000801883028408861088088A109001910294049A029C18A201A302A603AE03AF01B302B403B61CB701BAC0BF04D280D804D904DB04DC99DF0100800102040A05109A
:400780000B800D200E6214201601170119801A041D201E022090225426802711280829822B102E402F81320533203602388039263C024004434049054A08520858025AA036
:4007C0005B0474017C027D029124920293809410960C99029B049C089F10A242A3B0A480A501B030B180B402B504C079C2F8C4B0CA9FCC87CE8FD00CD204D60FE208020174
:40080000100612011402160418061E0820072301240328052A023008310136074023410649FF4AFF4BFF4DA04F015018580459045A045F01604062806440654066806840AF
:400840006A806C406D206E80840485048C018D048F019A029B08A104A201A60CAF02B004B101B201B304B408B508B602B702B908BE05BF04C026C103C534C6C2C70EC81FD6
:40088000C9FFCAFFCBFFCDAFCE07CF01D018D40FD804D904DA04DB04DF05E040E280E440E540E680E840EA80EC40ED20EE80008003E00740088009010A020B440C800D10ED
:4008C0000F60126014881508170419841A401B201E801F802080210822482304260229822F803020390C3A40401043104508471049024A284E0451805254534058125A4481
:400900006214790891289202968097449C089D80A310A501B010C015C2F2C47CCA89CC04CE0AD066D224D60FD806DE02E20AE62004840518061209020A010B010C020D2801
:400940000E0410021130120414C015011610170618021A041CC01D011E201F0220B021012240230226F0287029302E083001320833383406350336F0370439083A203B20E9
:400980004030410249FF4AFF4BFF4DA04F045018580459045A045D015F01604062C06440654066C068C06AC06CC06EC0830196069E0CA101A602AE01B004B201B402B608B1
:4009C000B701BE10C030C102C5D0C620C710C82AC9FFCAFFCBFFCDAFCE0FCF04D018D280D405D804D904DA04DB04DC11DD11DF01E040E2C0E440E540E6C0E8C0EAC0ECC000
:400A0000EEC00024018008080A820B040D080F021102122916101740180419051A021B101D081E481F40211422A82640280829012A012F403104328139283B403F024108B5
:400A4000432045184D015510561057215D015E8877408E40C007C2AFC4AFCA85CC0BCE8ED066D6D0040707040A200B010C0A0E050F0A1108140C1603180F20052101220AD9
:400A8000261028032A0C2D04301031023301340F3504362037083F044032420549FF4AFF4BFF4F0150185407580459045A045B045D095F0160406240644065406680688037
:400AC0006A806C806E80850788CF89018A308B028C9E8D048E60920F9494966098FD99079A029F07A030A2C9A308A704A873AD01AF02B6FFB70FBE40C036C204C9FFCAFFCE
:400B0000CBFFCD83CE03CF01D018D804D904DA04DD09DF01E040E240E440E540E680E880EA80EC80EE80018002040310048005800608070808080A040C240D040E84100453
:400B400012101301150216801710180819521A041F80202221022210264029422D802E082F8031023640371039A03A143EA441084320450846404A014F2059015AA85C0837
:400B80005F088004842186408F10908091AA9288930199019A649B189C209D90A108A201A330A430AC01AD10AE02B202B410B608C0C7C276C45ECAD9CC31CE7ED0C6D22873
:400BC000D60FE240E413E620E820EA03EC04EE08014003080B7814101566162917101830193B1A0E1C401E0F2410255D262327202C352D662F08320F330734703578390877
:400C00003A384036420445EC4620480B49FF4AFF4BFF4D834E034F015018580459045A045C095D095F016040624064406540668068806A806C806E8081088202831085184C
:400C40008B018F04911492019308950C991C9F02A204A301A918AA02AB04AD02B004B11CB202B301B401B702BF04C010C102C5D0C621C705C81EC9FFCAFFCBFFCDA0CF0400
:400C8000D018D280D804D904DA04DB04DF01E040E2C0E440E540E6C0E8C0EAC0ECC0EEC0000209020E2A108012041540170418141B011E281F18224623402510262827189A
:400CC00029102A022B012C212D803081322837183820390A3B413E203F014002412442224508464049014D054F205090512052045610573071028810908091CA9404950535
:400D000097209A409B049C229E109F10A108A201A4A0A510A708A910B010B104C008C2E8C4AACA5DCC6FCEAFD0CCD220EC040204030F0F0F120317081B0D1C011D021F0418
:400D400022012D042F0231013201330334043504360237083E043F514032410549FF4AFF4BFF4DA04F0150185280540F580459045A045B045C905F0560406280644065409B
:400D8000668068406A806C406D206E80870388028F029D01A203B201B302B501B602C032C105C50EC6C3C724C83DC9FFCAFFCBFFCDAFCE07CF01D018D407D804D904DA04FC
:400DC000DB04DF01E040E280E440E540E680E840EA80EC40ED20EE80001005020D020E0210801640181019801D081E021F202210231024042510261027612F01318036884A
:400E0000372038403B083C824108431044404508471149044B404F405212534859815A245D015E905F086504661076407D08834089018E1290809124920A94049502978AF4
:400E40009B189C489E209F40A041A180A288A310A510A612B310C012C290C418CA10CC78CE9AD066D218D6FFD860DE40E004E480EC04EE80057309940B600DFD0E050F020A
:400E800011CF12021330170F199E1B602201253027C92A04300231FF340436013E103F014040410645D546014702481749FF4AFF4BFF4DA04F0450185280580459045A0472
:400EC0005B045F01604062C06440654066C068C06AC06CC06EC080168208841886048A1E8C188E02900191029601980E9B019E01A102A501A620A810AA02AB04AD05B020F4
:400F0000B201B301B41EB502B704B920BE04BF44D280D40FD804D904DB04DF01004004040688070109020D800E600F0410881520162018401A041B401C241D101E40210103
:400F4000265027202A082B102C102E602F483110320533013612388039243A803B044040480849014B0850885D805E025F28600861107102750282018410858087408810BD
:400F800089808F0890809124920A938094409502960497489C089D03A202A318A480A640A740AB01AE02AF30B102B504B620C0F1C2F8C46ACAF2CCA7CE0ED001D204D6F017
:400FC000E240E450E620E838EA01EC603002331036283B108002CCF0CE10E220032205040602312032023580852086028B0497109D049F10A628A904C0F0CC70E250EC80DA
:401000003E105304561085808B10930897109A109D809F10A322A628AA02B210CE20D460E210EC20862896109F10A320A628AF02E210E640E8108C02E402080809200C011D
:401040000D105402860487408801A002A520B120C20FD604E604EE018710960497809808B110EE040A040B800F1096049790B008C20EEA01271096109F10A320C880130234
:4010800016807408794088088D408E809F02AA10AB20B302C430DC80DE20EA80EC201280132016105A015E086208650478107C018208A204AA04C40ED603D803DE038A10F8
:4010C0008C018E8094019A10A280AB20AE01B010B504E202E408E604E80C100111011A011B011C011D0100FF01AB03C00A0C0000030000000301000000000000010101012F
:40110000010103000F0F0000000000000300000C0F000F00000000004000000000000000C000000000F0F000F0000000F0FA0A000800000000000000000000000000000093
:40114000000000000000000000000000000000000000000000000000000000000000000000000000000000000000000000000000000000000000000000000000000000006F
:40118000000000000000000000000000000000000000000000000000000000000000000000000000000000000000000000000000000000000000000000000000000000002F
:4011C00000000000000000000000000000000000000000000000000000000000000000000000000000000000000000000000000000000000000000000000000000000000EF
:4012000000000000000000000000000000000000000000000000000000000000000000000000000000000000000000000000000000000000000000000000000000000000AE
:0200000490006A
:0400000000004005B7
:0200000490105A
:04000000BC90ACAF55
:0200000490303A
:0200000083304B
:0200000490402A
:4000000000000000000000000000000000000000000000000000000000000000000000000000000000000000000000000000000000000000000000000000000000000000C0
:400040000000000000000000000000000000000000000000000000000000000000000000000000000000000000000000000000000000000000000000000000000000000080
:400080000000000000000000000000000000000000000000000000000000000000000000000000000000000000000000000000000000000000000000000000000000000040
:4000C0000000000000000000000000000000000000000000000000000000000000000000000000000000000000000000000000000000000000000000000000000000000000
:0200000490501A
:0C00000000012E16106900012E329399A9
:00000001FF